:100000000C948B030C94C3030C94C3030C94C30390
:100010000C94C3030C94C3030C94C3030C94C30348
:100020000C94C3030C94C3030C94B82A0C948C2B2B
:100030000C9489250C94C3030C94C3030C94C30340
:100040000C94C3030C94C3030C94C3030C94C30318
:100050000C94C3030C9410260C94C3030C94C30398
:100060000C94C3030C94C3030C94C3030C94C303F8
:100070000C94C3030C94C3030C94C3030C94C303E8
:100080000C94C3030C94C3030C94C3030C94C303D8
:100090000C94C3030C94C3030C94C3030C94C303C8
:1000A0000C94C3030C94C3030C94C303165C1E008E
:1000B0001F0020002100220023002400250026002C
:1000C00027002D002E0000002A002B420000140003
:1000D0001A000800150017001C0018000C00120080
:1000E00013002F0030003100E00000000400160073
:1000F000070009000A000B000D000E000F0033007E
:10010000340028000000E10000001D001B00060074
:100110001900050011001000360037000000387289
:10012000E50004513943E2000000E3002C00000028
:100130002C4100002C000000AE0050005200510085
:100140004F0035003A003B003C003D003E003F00C0
:1001500040004100420043004400450000004C00C4
:100160000100000001000100010001000100010088
:100170002F0001000100300001000100010001001A
:1001800000000100010001000100010001002F0238
:1001900026022702300235000100000001000000A5
:1001A0000100010001000100010001000100010047
:1001B0000100000001000100A80001000100000092
:1001C0000100010000000100000001000000AE007D
:1001D000AC00A900AA00AB00010001000100010071
:1001E0000100010001000100010001000100010007
:1001F00001000000010001000000010001000100F9
:100200000100010001004A00010001004D00010051
:1002100001000100010000000100010001000100D7
:10022000010001005000520051004F003502010052
:1002300000000100000001000100010001000100B8
:100240004E00010001004B00000001000100010010
:100250000100010000000100010000000100000099
:100260000100000001000100010001000100035332
:10027000000000000000000000000000000054002A
:10028000550056000000000000002A000000000099
:100290000000000000000000000000005F0060009F
:1002A0006100570000000000000000000000000096
:1002B000000000000000000000005C005D005E0027
:1002C0008500000058000000000000000000000051
:1002D000000000000000000059005A005B00000010
:1002E0006700000000000000035300000000000051
:1002F0000000000000006200000063000000000039
:1003000000000000C35CC65CC75CC85CC95CCA5C1A
:10031000CB5CC45CCC5CCD5C010001000100000042
:1003200001000100000001000100010001000100C6
:100330000100010001000100010001000100005C5A
:1003400001000000010001000100010001000100A6
:100350000100010001000100010001000000010096
:100360000000010001000100010001000100010086
:100370000100010000000100010001000100010076
:100380000000010001000000010000000100000069
:100390000100010001000100010000047F3F1F6413
:1003A0003214643214783C1E1E140A0522232526BA
:1003B00028292A2C2D2F3032333536383A3B3D3E12
:1003C0004042434547494A4C4E5051535557595A5C
:1003D0005C5E6062646668696B6D6F717375777976
:1003E0007B7D7F81838587898A8C8E909294969875
:1003F0009A9C9E9FA1A3A5A7A8AAACAEAFB1B3B487
:10040000B6B8B9BBBCBEBFC1C2C3C5C6C7C9CACBDB
:10041000CCCDCED0D1D2D2D3D4D5D6D7D7D8D9D9A6
:10042000DADADBDBDBDCDCDCDCDCDDDDDDDDDCDC0F
:10043000DCDCDCDBDBDBDADAD9D9D8D7D7D6D5D42C
:10044000D3D2D2D1D0CECDCCCBCAC9C7C6C5C3C2F8
:10045000C1BFBEBCBBB9B8B6B4B3B1AFAEACAAA84D
:10046000A7A5A3A19F9E9C9A98969492908E8C8A01
:1004700089878583817F7D7B79777573716F6D6BDC
:100480006968666462605E5C5A5957555351504EB4
:100490004C4A4947454342403E3D3B3A3836353366
:1004A00032302F2D2C2A292826252322FFAA7F55DA
:1004B00040000101010101010101010202020202E9
:1004C00002020202030303030303030304040404FC
:1004D00004040405050505050606060606070707C4
:1004E000070708080808090909090A0A0A0B0B0B7B
:1004F0000C0C0C0D0D0D0E0E0E0F0F0F1010111118
:10050000111212131314141515161617171818199B
:10051000191A1A1B1B1C1D1D1E1E1F202021222202
:10052000232424252626272829292A2B2C2D2D2E45
:100530002F30313232333435363738393A3B3C3D5F
:100540003E3F404142434445464748494A4C4D4E50
:100550004F50515354555658595A5B5D5E5F616216
:1005600064656668696B6C6D6F7072737577787AA5
:100570007B7D7E8082838587888A8C8E8F91939500
:1005800096989A9C9EA0A2A3A5A7A9ABADAFB1B324
:10059000B5B7BABCBEC0C2C4C6C9CBCDCFD1D4D604
:1005A000D8DBDDDFE2E4E7E9EBEEF0F3F5F8FAFDA6
:1005B000FF0A0344005A0036003000000010034BCD
:1005C0000042004400460061006E00730000000419
:1005D00003090409023B00020100A0FA090400001B
:1005E000010301010009211101000122400007055A
:1005F0008103080001090401000103000000092132
:100600001101000122B6000705820320000112013A
:100610000002000000085A446022010001020001AB
:1006200005010902A10185020901A10005091901BD
:100630002908150025019508750181020501093079
:1006400009311581257F95027508810609381581C4
:10065000257F950175088106050C0A38021581254C
:100660007F950175088106C0C005010980A101853B
:100670000319012AB700150126B7009501751081ED
:1006800000C0050C0901A101850419012AA0021569
:100690000126A002950175108100C005010906A17F
:1006A000018506050719E029E7150025019508755C
:1006B0000181020507190029EF1500250195F07544
:1006C0000181020508190129059505750191029519
:1006D0000175039101C005010906A101050719E093
:1006E00029E7150025019508750181029501750816
:1006F00081010507190029FF150026FF00950675E1
:1007000008810005081901290595057501910295D3
:100710000175039101C011241FBECFEFDAE0DEBFE7
:10072000CDBF04B603FE18C08091580390915903C1
:10073000A0915A03B0915B038730904BA740B04B18
:1007400059F4109258031092590310925A031092C0
:100750005B03E0E0F8E3099511E0A0E0B1E0E0E43C
:10076000FDE502C005900D92A63CB107D9F723E044
:10077000A6ECB1E001C01D92A835B207E1F70E94D6
:1007800033130C94882E0C94000081E0089581E0CE
:1007900008950E94C703089508950E94CC03089508
:1007A000A5E0B0E0E6EDF3E00C94D32D49835A8345
:1007B0003091CD0189819A81311119C0662399F058
:1007C000222389F00E94F609182F682F89819A81C7
:1007D0000E94D20969817A81812F0E94B1102596E9
:1007E000E3E00C94EF2D0E94E409182FF3CF0E9450
:1007F000F60969817A81F1CFFC01262F4081518170
:100800006281738184810E94D003089581E00895FC
:10081000CF93DF93EC0160E00E94FC03BE010E94D5
:10082000CD03DF91CF9108950E94D81108950E94C1
:10083000DC11089508950E949D080E941A042FEF6C
:1008400084E39CE0215080409040E1F700C000002C
:1008500008950E941B040E94342608950E941B04E0
:100860000E9458260895A2E0B0E0E9E3F4E00C9479
:10087000D22D8C0161E00E94FC039A838983B80128
:10088000CE0101960E946120811105C080E0229670
:10089000E4E00C94EE2DB80189819A810E94C9038D
:1008A0008823A1F3B80189819A810E94B01D882311
:1008B00069F3B80189819A810E94BA23882331F3B0
:1008C000B80189819A810E94C91E8823F9F2B80172
:1008D00089819A810E9437208823C1F2B8018981D9
:1008E0009A810E94001C882389F2F8018281882362
:1008F00071F089819A818B35FDE59F0701F158F4EC
:100900008115ECE59E0791F08F3D9C4591F0C80163
:100910000E94C503BCCF8D352DE5920769F090F09C
:10092000883A9D45A1F70E942E04B0CF0E94290469
:10093000ADCF0E94E20EF7CF0E94270EE8CF0E94B3
:10094000310EE5CF0E94350EE2CF0E94652580E092
:100950000E94E51D0E94D7040E94761A08950E9405
:10096000DC1C0E94DB040E944D1B0E946A25089536
:1009700008950E94B804089581E00895CF93C82F88
:100980000E94BC04882319F0C1FD03C02A9ACF91AC
:1009900008952A98FCCF229A2A9A0895CF93C82FB7
:1009A0000E94B9048C2F0E94BE04CF91089580E06C
:1009B0000E94CE0408950E9416240E94CE04089539
:1009C000CF930E941624C82F8091C8018C1779F00C
:1009D000C093C8010E94F5256093C9017093CA01B4
:1009E0008093CB019093CC018C2F0E94CE04CF91A9
:1009F0000895ABE0B0E0EFEFF4E00C94D42D4F831A
:100A0000588769877A878B8761110E94720D1E82D1
:100A10001D8285E0FE013796DE01119601900D9250
:100A20008A95E1F78C819D81892B61F449815A81F6
:100A30006B817C818D819E810E949B0C2B96E2E0D4
:100A40000C94F02D89819A8189238F3F79F3CE010F
:100A500001960E9406048111E9CFF0CFFC0180814C
:100A600091810E94280A0895CF93C82F8823C9F046
:100A70008238C9F40E94162481FD13C089E30E94C4
:100A80002A0D0E94930D2FEF87EE93E021508040B6
:100A90009040E1F700C0000089E30E94320D0E94FF
:100AA000930DCF9108958338A1F40E94162480FD00
:100AB000F8CF83E50E942A0D0E94930D2FEF81EE5F
:100AC00094E0215080409040E1F700C0000083E5B1
:100AD000E4CF8438A1F40E94162482FDE2CF87E49B
:100AE0000E942A0D0E94930D2FEF81EE94E0215079
:100AF00080409040E1F700C0000087E4CECF8CEF4B
:100B00008C0F813A90F46C2F80910001909101013B
:100B10000E948B24882329F08C2F0E94320D0E9482
:100B2000930D8C2F0E942A0DBACF80E28C0F883053
:100B300048F4C77081E001C0880FCA95EAF70E94A7
:100B4000550DADCFEBE5EC0FE33040F4F0E0E85AA3
:100B5000FE4F808190E00E944B24A3CFE8E5EC0F8C
:100B6000E73150F4F0E0EE0FFF1FE65DFE4F8081AD
:100B700091810E94612495CFCD3E08F492CF8C2FB5
:100B80000E94B7130E948A148CCF882309F455C0A1
:100B9000823879F40E94162481FF4FC089E30E94B5
:100BA0002A0D0E94930D89E30E94320D0E94930D3D
:100BB0000895833859F40E94162480FF3EC083E5CF
:100BC0000E942A0D0E94930D83E5EECF843859F4DC
:100BD0000E94162482FF31C087E40E942A0D0E94E1
:100BE000930D87E4E1CF9CEF980F913AE8F290E201
:100BF000980F983050F4877091E001C0990F8A9552
:100C0000EAF7892F0E945B0DD1CF9BE5980F9330B7
:100C100028F490E080E00E944B24089598E5980F16
:100C2000973128F490E080E00E94612408958D3E81
:100C300020F00E9411140E948A1408951F93CF93EC
:100C4000DF93182FEB010E943405209739F4812F90
:100C50000E94C505DF91CF911F9108958FE99FE014
:100C60000197F1F700C000002197EFCF70E060E03E
:100C7000893311F460E570E00E941E060895882310
:100C800021F00E94550D0E94930D0895882321F0B4
:100C90000E945B0D0E94930D0895B0E0A0E0E3E593
:100CA000F6E00C94CD2D6C01D62FC72FFC011281DC
:100CB000F580F2949FE0F9220E944B0DE82E8823E4
:100CC000B9F0E12E1123A1F08C2F807F803421F028
:100CD00080E28D0F8830D0F08091FC0282FF16C038
:100CE00082E00E94F60D0E944B0D91E0E82EE9266D
:100CF000BC2EB2948FE0B822FBE0FB1508F468C06C
:100D0000EB2DF0E0E657F14D0C948D2DE12CF0CF5A
:100D10000C2F0F70C07F11F00295007F112399F006
:100D2000002359F080E28D0F883010F0D11107C0F8
:100D3000802F0E94550D0E94930D8D2F41C0802F52
:100D40000E94650DF8CF8D2F0E94C505002309F480
:100D50003FC080E28D0F883010F0D11104C0802F89
:100D60000E945B0D03C0802F0E946B0D0E94930DAB
:100D70002FC00C2F0F70C07FC03211F00295007F82
:100D8000DD2381F0D13009F463C0112309F46DC073
:100D9000FF2009F463C0F601858180FFCECF8F70FC
:100DA00085835CC08091FC0282FD33C0112359F021
:100DB000002329F0802F0E94550D0E94930D80E0A2
:100DC0000E94340505C080E00E94C5050111C7CF0F
:100DD000EB2DE850FF0B349720F40E9416240E945C
:100DE000CE04EE2089F00E94470D80FD0DC0F60173
:100DF00012820E94410D0E943009C6010E945D08C6
:100E00000E94410D0E944009CDB7DEB7E9E00C9485
:100E1000E92D112389F0F11006C00E94750D802B79
:100E20000E943F06D5CF21E0F212F7CF0E94750D48
:100E3000802B0E947C0DCCCFF11006C00E94890D42
:100E4000802F0E944606C4CF31E0F31609F2F6CF98
:100E5000112331F085E08F1508F4BACF802FE0CF51
:100E600094E09F1508F4B4CFEBCFFF2049F3D933BA
:100E700049F4FFEF27EE33E0F15020403040E1F736
:100E800000C000008D2F0E94C505A2CF8C2F869533
:100E90008695837069F0813009F09ACF8D2F9C2F51
:100EA0009370111102C090E080E00E94612490CF05
:100EB0008D2F9C2F9370111102C090E080E00E9452
:100EC0004B2486CF8D2F112329F00E94B7130E9447
:100ED0008A147ECF0E941114FACF8C2F8370A1F553
:100EE000111176CF4D2F429546954770440F440F10
:100EF0002D2F2F7030E0042E02C0220F331F0A94D2
:100F0000E2F790E080E0D4FF09C08FE090E002C0FB
:100F1000880F991F4A95E2F780959095C695C695DA
:100F2000C370822B932BC23049F058F4C13019F0B2
:100F30000E94FE084DCF0E94F5084ACF0E94070983
:100F400047CF0E94F20844CF8695112311F08C2FD1
:100F50008170882309F43CCF4D2F42954695477008
:100F6000440F440F2D2F2F7030E0042E02C0220FAB
:100F7000331F0A94E2F790E080E0D4FF09C08FE0CD
:100F800090E002C0880F991F4A95E2F780959095EE
:100F9000C695C695C370822B932BC23049F058F486
:100FA000C13019F00E946B0913CF0E94620910CF63
:100FB0000E9474090DCF0E9416090ACFCF70112329
:100FC00029F08C2F0E9430098D2F2ACF8D2F0E945F
:100FD00046068C2F0E944009FBCED23F51F160F4AF
:100FE000D03FB9F0D13F81F0112309F449C0F1108D
:100FF000A4CE8C2F8F7121C0D33F11F1D43FA1F724
:101000008091FC0282FD26C08C2F8F71112311F379
:1010100014C0112349F084E08F1508F4D9CE8C2F29
:101020008F710E945209D4CE95E09F1508F4D0CE5E
:10103000F6CF8C2F8F711111CDCF0E943009C8CE01
:10104000112329F08C2F8F710E942409C1CE0E9498
:101050001F09BECE112349F0CF718C2F0E94300999
:1010600063E08C2F0E94D80DB3CE81E00E94F60D74
:10107000E1E0EF1508F0ACCE82E00E94F60DA8CEBC
:10108000F110F5CE8C2F8F71A5CF0F931F93CF93B7
:10109000DF93EC01688179818A810E94330A8C0197
:1010A0000E947D090E94F108B801CE010E944D0600
:1010B000DF91CF911F910F910895CF93DF93EC01B2
:1010C0008B819C81892B29F08881998189238F3F8D
:1010D00051F4DF91CF910895CE010E944508CE01D1
:1010E0000E940804F6CFCE010E9433048111F4CF90
:1010F0000E944B0D882369F38A81882351F38091E4
:10110000FC0282FFE6CF82E00E94F60DE2CF90E083
:1011100080E00E944B2490E080E00E9461240E94C5
:10112000720D0E94930D0E94A6140E948A140895C5
:101130000E943A0D0E94870808950E94620D0E9445
:101140009808089592959F70963091F058F4925FA8
:101150009F70923058F4803F19F030F4883E30F49C
:1011600081E008959A5FF4CF843FD1F380E0089541
:10117000883EB0F3813FD1F7F3CFFC0183819481A6
:10118000892B29F08081918189238F3F11F480E0A0
:101190000895808191810E94280A0E94A2080895E2
:1011A000A5E0B0E0E6EDF8E00C94D42D2596E2E061
:1011B0000C94F02DA6E0B0E0E0EEF8E00C94D42D15
:1011C0002696E2E00C94F02D08950E94E40808951C
:1011D0000E94E5089093F9018093F8010E94870826
:1011E000089508950E94E80808952091F80130912B
:1011F000F901822B932B0E94E80808952091F801B1
:101200003091F901822393230E94E80808952091E8
:10121000F8013091F901822793270E94E808089588
:101220000E94E40808950E94100908950E9413097D
:101230009093F7018093F6010E948708089590E04B
:1012400080E00E941609089521E030E0A90102C063
:10125000440F551F8A95E2F7CA010E9416090895A6
:1012600021E030E002C0220F331F8A95E2F780911F
:10127000F6019091F701822B932B0E941609089595
:1012800021E030E002C0220F331F8A95E2F720955B
:1012900030958091F6019091F701822393230E946B
:1012A0001609089521E030E002C0220F331F8A950D
:1012B000E2F78091F6019091F701822793270E942F
:1012C000160908952091F6013091F701822B932B96
:1012D0000E94160908952091F6013091F7018223AA
:1012E00093230E94160908952091F6013091F70189
:1012F000822793270E94160908950895262F2770A4
:1013000091E001C0990F2A95EAF723E07695679559
:101310002A95E1F7660F771F660F771FFA01E60F30
:10132000F71F50E040E0682F70E08191DF011197D6
:101330009B01042E02C0369527950A94E2F721708E
:1013400021952827292328272C934F5F5F4F44306E
:10135000510559F70895A82FA77023E09695879512
:101360002A95E1F7880F991F880F991FFB01E80F55
:10137000F91F50E040E080E0219130E00A2E02C0E9
:10138000369527950A94E2F721703327042E01C081
:10139000220F0A94EAF7822B4F5F5F4F44305105CA
:1013A00059F70895262F953070F48F3060F4682F28
:1013B00070E08FE0989F600D711D11244EEC51E09C
:1013C000822F0E947E090895292F953068F48F306E
:1013D00058F490E06EEC71E03FE0239F800D911D8A
:1013E00011240E94AB09089580E00895B0E0A0E0C8
:1013F000ECEFF9E00C94CD2D7C010091F6011091F9
:10140000F7018091F8019091F901082B192BCFE099
:10141000D0E0CC24C394D12CBC2EC6010C2E02C02B
:10142000880F991F0A94E2F780239123892B49F4AE
:10143000219790F7B12C8B2DCDB7DEB7E9E00C9456
:10144000E92DB7018C2F0E94CC10019789F3F3CFBF
:10145000CF93DF93EC010E94F609BE010E94CC10ED
:10146000DF91CF9108951F93CF93DF93EB0190917C
:10147000CD01992339F0CB010E94280ADF91CF9149
:101480001F910895882369F0CB010E94F609182F57
:10149000682FCE010E94D209BE01812F0E94CC107C
:1014A000EDCFCB010E94E409182FF6CF1F93CF9305
:1014B000DF93C091FA0116E08091FB018C1304C008
:1014C000DF91CF911F910895D0E01C9FF0011D9FE7
:1014D000F00D1124E450FE4F4081518162817381EF
:1014E000848195810E94DA082196C770E5CF4091EA
:1014F0002C0250912D0260912E0270912F0280914A
:101500003002909131020E94DA0808952091FA0188
:101510009091FB0156E0291302C080E0089530E06D
:10152000529FF001539FF00D1124E450FE4F718142
:10153000761306C07081781303C07281741304C0DF
:101540002F5F3F4F2770E7CF81E008951F93CF9320
:10155000DF9380913102807F09F049C080912E0293
:10156000882309F444C08091FA01C091FB01609185
:101570002C0270912D02A0912F02B0913002D62F33
:10158000D72316E0C81799F190E0109711F0DF3FCC
:1015900019F401968770F6CF189F9001199F300DAE
:1015A0001124F901E450FE4F41814713F2CF4081ED
:1015B0004613EFCF42814111ECCF438154814A1B46
:1015C0005B0B4C32514028F7809131028F70806163
:1015D00080933102F901EF5FFD4F80818F70806150
:1015E00080838CE292E00E945D080E94560ADF919F
:1015F000CF911F910895A1E1B0E0E1E0FBE00C94F0
:10160000CA2D8C0185E0F801DE011D9601900D9236
:101610008A95E1F7D8011296EC9012978CE2A82EE9
:1016200082E0B82E40912F025091300241155105B1
:1016300009F462C190912C0220912D02892F8223FE
:101640008F3F09F459C1CC901196DC9011971396F5
:101650008D909C901497F0902E02F401E41BF50BF2
:10166000AF01FF2009F4F6C080913102382F307F9E
:101670004C32514008F0B0C031117BC0FE2CD21268
:1016800017C09C1115C0E11013C08F70806180934A
:1016900031020E94770AC5010E945D0880913102E3
:1016A000D80115968C938F2D6196ECE00C94E62D65
:1016B0008114910429F08D2D8C218F3F09F038C1C0
:1016C00080E080FF15C04E2D6D2D8C2D0E94860A66
:1016D000882371F08CE292E00E945D0886E0ECE2E3
:1016E000F2E0DF011D928A95E9F70E94770A3FC078
:1016F0008114910429F08D2D8C218F3F09F015C1A3
:1017000080E0B82FB170AB2E80FF29C04E2D6D2D1B
:101710008C2D0E94860AB82E811121C0CD86DE86CE
:101720008D859E850E94280A292F22952F702230B0
:1017300050F0243078F49F7051F0F8019581907F3B
:1017400031F4FB2CB0CF9F7011F08823D1F3805E71
:101750008830B8F3C8010E945D08BA2CF2CFEE20A1
:1017600009F4A1CF80913102816080933102F12C84
:101770009ACFD21205C09C1103C0EE2009F487C095
:10178000C8010E94BD08882319F1EE2009F180915B
:101790003102803270F020912C0230912D02388776
:1017A0002F8319869B868A868C87CE0107960E9496
:1017B0005D0886E0F801ACE2B2E001900D928A95F6
:1017C000E1F70E94A60A0E94770AFF24F3946BCFE8
:1017D000C8010E945D08F9CF311112C0782D998A95
:1017E000888AA6016E2D89890E94D0088CE292E039
:1017F0000E945D0886E0F50111928A95E9F775CFA0
:10180000D2120FC09C110DC0E1100BC015968C9325
:10181000C8010E945D0886E0F50111928A95E9F7FA
:1018200042CFC8010E94BD08882391F2EE2081F2C8
:1018300080913102803208F4BCCF20912C0230918B
:101840002D023A8329831B829D828C828E83CE0156
:101850000196ADCF4C32514008F040C0FE2CEE2036
:1018600009F4B6CFD2122CC09C112AC0809131024B
:1018700080FD1DC0982F907FD1F015968C93159701
:10188000903F39F0982F907F905F8F70892B15963D
:101890008C93C8010E945D0886E0F801ACE2B2E0DA
:1018A00001900D928A95E1F70E94770AFCCE86E0BE
:1018B000F801ACE2B2E001900D928A95E1F7F3CE27
:1018C000C8010E94BD08811174CF809131028160EE
:1018D00080933102C8010E945D08E5CE782D998A77
:1018E000888AA6016E2D89890E94D00886E0F501BC
:1018F00011928A95E9F7D8CFEE2009F469CFC80193
:101900000E94BD08F82E882309F462CF86E0F80112
:10191000ACE2B2E001900D928A95E1F78CE292E0A0
:101920000E942E050E94A60ABFCF81E08E25E9CE37
:1019300081E08E25C6CEACE0B0E0E1EAFCE00C949C
:10194000D32D4F83588769877A878B879C87CE01F1
:1019500007960E94FB0A882369F08A859B85892B5C
:1019600039F04F815885842F85238F3F09F06BC054
:1019700016E05FC086E0FE013796DE011196019009
:101980000D928A95E1F78A859B85892B89F38F8152
:10199000988589238F3F61F32091FB0130E0C901D5
:1019A0000196877099274091FA014817190671F43A
:1019B0000E949D081092FB011092FA0186E0ECE271
:1019C000F2E0DF011D928A95E9F7D2CF96E0929F6F
:1019D000D001939FB00D1124A450BE4FFE0131964B
:1019E00001900D929A95E1F78093FB010E94560AAF
:1019F000BFCF819FC001112484509E4F0E94FB0ADB
:101A00008823E9F0E091FA011E9FF0011124E450CF
:101A1000FE4F4081518162817381848195810E9452
:101A2000DA088091FA0190E00196877099278093F7
:101A3000FA018091FA019091FB018913DACF2C967B
:101A4000E3E00C94EF2D69857A858B859C850E9457
:101A5000DA088ECF682F80910001909101010E94D9
:101A60000B250895682F80910001909101010E943B
:101A70001925089580910001909101010E94272568
:101A80000895809152028595859585950895809158
:101A900052028770089590915202977081E009F484
:101AA00080E0089580917502089590917502892BC8
:101AB0008093750208958095909175029823909374
:101AC0007502089510927502089590917402892B01
:101AD0008093740208958095909174029823909356
:101AE000740208951092740208958091530208952B
:101AF00008950E94780D08959091FC0292FF08C00D
:101B000090915302981721F0809353020E94790D0F
:101B1000089580915302882329F01092530280E0A7
:101B20000E94790D0895CF93DF93E0910001F09129
:101B30000101809175028083E0910001F091010123
:101B4000808190917402892B808390915302992314
:101B500081F0E0910001F09101018081892B808367
:101B600080910001909101010E94772481110E94CF
:101B7000890DC0910001D091010140E250E062E383
:101B800072E0CE010E942A2E892B59F080E2FE01DC
:101B9000A2E3B2E001900D928A95E1F7CE010E9496
:101BA0002324DF91CF91089508950E94D40D0895C4
:101BB0009091FC0292FF11C098E0899F900111243E
:101BC000622B609352020E943009809152028595E7
:101BD000859585950E94D50D08950E943009089538
:101BE0001092520280E00E94D50D08959091520209
:101BF0008095892380935202282F277091F4282FF3
:101C0000082E000C330B9217130659F09091FC022A
:101C100092FF07C08595859585950E9440090E9491
:101C2000F00D08959091FC0292FB222720F92817CD
:101C300069F080FB92F99093FC028091FB029091F5
:101C4000FC020E945C0E82E00E94F60D08958091D5
:101C5000FC0282FB882780F991E089270E94120EFE
:101C6000089581E00E94120E089580E00E94120EF5
:101C7000089590E080E00E944E2E21E0883E9E4F25
:101C800009F020E0822F089582E090E00E94402E2B
:101C9000089583E090E00E94402E0895CF9384E061
:101CA00090E00E94402EC82F82E290E00E94402ED9
:101CB000982F8C2FCF910895CF93C92F682F84E050
:101CC00090E00E94542E6C2F82E290E00E94542EED
:101CD000CF910895AB01BC018FE090E00E94662E89
:101CE0000895AB01BC0183E190E00E94662E089547
:101CF00060E070E0CB010E94710E089560E070E03A
:101D0000CB010E946A0E0E94780E089568EE7EEF65
:101D100090E080E00E94722E60E082E090E00E94FD
:101D2000542E60E083E090E00E94542E1092F9015E
:101D30001092F80160E084E090E00E94542E64E08C
:101D400082E290E00E94542E60E085E090E00E94E4
:101D5000542E60E086E090E00E94542E6FEF87E002
:101D600090E00E94542E40E050E0BA0188E090E0FC
:101D70000E94662E60E08DE090E00E94542E40E0CC
:101D800050E0BA0188E190E00E94662E60E087E1B1
:101D900090E00E94542E40E050E0BA018CE190E0C7
:101DA0000E94662E70E060E080E290E00E94722E59
:101DB00040E050E0BA0188E190E00E94662E0E9467
:101DC0007E0E08950E94860E0895682F8EE090E0A2
:101DD0000E94542E08950E94F52560938602709308
:101DE00087028093880290938902609382027093A5
:101DF0008302809384029093850208950895089544
:101E00000E94FF0E089508950E94030F089586EB27
:101E100091E10E940C240E94FE0E0E94000F089582
:101E200081E008950E94100F0895089508950E947A
:101E3000150F0E94160F08950E94B9110E94CB043D
:101E40000E948C1E08950E94E0250E9494120E9418
:101E50001C0F0E94DC1C0E94111B0E94040F08959D
:101E6000AAE0B0E0E6E3FFE00C94C92D0E94AA12BC
:101E700028E7822E22E0922E640110E0F601E19024
:101E8000F1906F01812F0E94DF111F5F153009F45F
:101E900049C0E816F90691F380918A0281FD0E94FB
:101EA000E8110E94120F782E10E0812F0E94DF119E
:101EB0007C01F401A190B1904F018A159B0561F15D
:101EC000A826BF2400E0CC24C394D12CC5018C21CA
:101ED0009D21892BC1F07720B1F00E831F8321E073
:101EE000C7018C219D21892B09F420E028870E94BD
:101EF000E9258160782F9A8789874E815F8168857F
:101F00008A850E94F9040F5FCC0CDD1C0F30F1F6BE
:101F1000F4013297F182E0821F5F153031F60E94A2
:101F2000EB0E22C0E816F90609F0B6CF0E94E925AB
:101F30008C01809176029091770208171907A1F021
:101F40008FEF89838A831B820E94E9258160782F25
:101F50009D838C8349815A816B818D810E94F90414
:101F600010937702009376020E94571B0E948B1EEB
:101F70000E94C8140E94E0042A96EDE00C94E52D1E
:101F8000CF93DF930E94D110EC01811521E59207D8
:101F900008F042C0811530E5930708F09FC0883EE5
:101FA000910530F5803E910508F094C0883A91057E
:101FB00088F4853A910508F086C08130910509F4CE
:101FC00089C0009709F486C0049708F083C0D0E068
:101FD000C0E080C08F3B9105D0F7C85AD0E0CC0F4D
:101FE000DD1FC55ADE4F0990D881C02DD46472C060
:101FF000811540E2940750F4C11581E0D80708F03C
:1020000069C0CD3ED10518F3D06564C081159044F8
:10201000F0F2DF70D06A5EC0811535E5930718F5E0
:10202000811544E5940708F085C0C11583E5D807FC
:1020300008F06CC0C11522E5D20708F462C0CE01D9
:102040008370992721E030E002C0220F331F8A9568
:10205000E2F7C695C69580E2C89FE0011124C22B25
:10206000D32BDC6837C0811539E59307A8F48115B7
:1020700048E5940708F063C0C11586E5D80708F065
:10208000A6CF8C2F0E947311C82FD0E0DC2FCC2755
:10209000CC27DF71D0621EC081152AE5920708F4B3
:1020A00053C090568115904208F091CF8D2F8F71BB
:1020B0000E94731190E0982F882788279F719C01B8
:1020C0002C2BE901E7CFC55AD0E0C757DE4FC881B6
:1020D000D0E0D064CE01DF91CF910895837099272D
:1020E00021E030E002C0220F331F8A95E2F7C69547
:1020F000C69540E2C49FE0011124C22BD32BDD68BA
:10210000E9CFDC2FCC27C16FD06AE4CFCE0183703A
:10211000992721E030E002C0220F331F8A95E2F7B1
:10212000C695C69540E2C49FE0011124C22BD32B73
:10213000DA68D0CFD82FCC27C46FD06ACBCFD82FB6
:10214000CC27C06FD06AC6CF8F700E94731134E065
:10215000D695C7953A95E1F7CF709C2FEC01D069E1
:10216000B9CF972F7530A8F46F3098F470E02FE056
:10217000929F600D711D1124FB019BE4899FE00D6E
:10218000F11D1124EE0FFF1FE455FF4F859194912F
:10219000089580E090E008950E94B1100E94C00F61
:1021A000089582389105B9F1B0F48133910509F4AD
:1021B0007DC048F48932910509F46DC08A329105D9
:1021C00009F47BC008958533910509F45FC0893314
:1021D000910509F10895833E9105D9F138F4803EC7
:1021E000910529F1823E910579F10895863E910588
:1021F000D9F1873E910509F43EC0843E910541F531
:102200002091FC0221FF24C08091FB0284FD19C0B3
:1022100087EE90E008952091FB02237009F05AC0E8
:102220002091FC0223FF14C089E290E008952091E0
:10223000FB0220FD38C03091FC0230FF09C024FFB2
:1022400043C090E080E008952091FB0222FDF7CF8B
:1022500008952091FB0222FD3AC03091FC0230FD2E
:1022600039C024FFF5CFEDCF2091FB0223FFF0CF43
:1022700024FDE7CFCDCF2091FB0223FD2EC030916E
:10228000FC0231FFEECF84EE90E008952091FB0236
:1022900025FFDECFC9CF2091FB0225FD21C0209173
:1022A000FC0223FFD5CF89E390E0D2CF2091FB023F
:1022B00026FFCECF8AE290E008952091FB0226FF10
:1022C000C7CF81E390E0089583EE90E0089582EE19
:1022D00090E0089580EE90E0089586EE90E00895F5
:1022E00085E390E008959091FB0292FF06C0282FAD
:1022F00028712830F9F4877F846093FF06C0282F67
:1023000028712831F1F4877E84612091FC0220FF3E
:1023100006C0382F38713830D9F4877F816021FFAB
:1023200006C0282F28712831D1F4877E816194FD61
:10233000877E0895282F24712430F9F68B7F8860DA
:10234000DCCF282F2471243101F78B7E8861DDCF0B
:10235000382F3171313019F78E7F8860E0CF282F08
:102360002171213121F78E7E8861E1CF80E00895CF
:1023700008950E94390E811102C00E94E20E0E944F
:10238000440E80938A020E944E0E9093FC0280932A
:10239000FB020E94B8110E94490E90E00E94F208D0
:1023A0008091F6019091F7010E9413090895089514
:1023B0000E94D711089508950E94DB110895E82F17
:1023C000F0E0EE0FFF1FE95FFC4F808191810895DF
:1023D000089580EA8A95F1F7089500C008950E9453
:1023E000E9110895F894E82FE295EF70F0E031A13B
:1023F000282F2F7081E090E001C0880F2A95EAF71E
:10240000982F9095932391A392A1892B82A37894DE
:102410000895CF93DF93CBE9D1E089918F3F11F0FD
:102420000E94F21181E0C03AD807B9F7CCE8D1E0B8
:1024300089918F3F11F00E94F21181E0CB39D807CA
:10244000B9F7DF91CF910895AF92BF92DF92EF92EB
:10245000FF920F931F93CF93DF938C01D62EC62F3D
:10246000D0E0CE0185569E4F7C01FC0120812F3F9C
:1024700009F44DC0F894E22FE295EF70F0E031A13D
:102480002F7081E090E001C0880F2A95EAF7932F22
:10249000982B91A392A18095892382A378940E947E
:1024A000ED11ECE8F1E04BE951E021E030E0B12C36
:1024B000A12C61916F3FA9F1A62FA295AF70B0E05A
:1024C00090968C9190E06F7002C0959587956A9573
:1024D000E2F780FD26C0C901A82AB92A220F331FBE
:1024E0004E175F0731F7F70180818F3F11F00E948F
:1024F000F21161E0A114B10409F460E08D2D0E9495
:10250000EF11CC0FDD1FC00FD11FB982A882DF9160
:10251000CF911F910F91FF90EF90DF90BF90AF9000
:10252000089590E080E0D8CF0E9409128AE0E7E0A9
:10253000F3E0DF01982F1D929A95E9F7EDEFF2E0B5
:10254000DF011D928A95E9F785E00E94E5120E945D
:1025500014040895AAE0B0E0E0EBF2E10C94D12D70
:102560008E010F5F1F4F8AE0F80111928A95E9F7FB
:10257000F12C6F2DC8010E942412F394F5E0FF1294
:10258000F8CF4AE050E0B8018DEF92E00E942A2E89
:1025900021E0009709F420E0892B41F08AE0F8015E
:1025A000ADEFB2E001900D928A95E1F745E067E06A
:1025B00073E08DEF92E00E94E612182F0E9417043C
:1025C000812F2A96E5E00C94ED2D0895CF92DF92AD
:1025D000EF92FF921F93CF93DF936C017B01C42F87
:1025E000222349F081E080938D020E94E925909397
:1025F0008C0280938B0210918D0211110AC010E0A1
:10260000812FDF91CF911F91FF90EF90DF90CF90BE
:10261000089580918B0290918C020E94012605976B
:1026200070F3D0E0CC0FDD1FAE01B601C7010E94F0
:102630002A2E892B41F0AE01B601C7010E94372E28
:1026400010928D02DDCF10E0FBCF0E940E280E9479
:10265000230F0E941B2808950E9420280E94300FFB
:102660000E943A2808950E9482250E94F4270E9421
:10267000070F0E9425130E942C130E94170FFBCFF7
:102680008091940280FF0DC06091070170E0660F99
:10269000771F6038710570F56115710569F1862F36
:1026A000089581FF07C06091070184E0689FB00131
:1026B0001124EFCF6091070182FD0AC0809193023F
:1026C0008823A9F02091060160910701821710F07C
:1026D00088E0ECCF869FC001112433E0880F991F5A
:1026E0003A95E1F7622F70E00E94572DD2CF68E053
:1026F00070E0D5CF8FE7089581E00895809194022E
:1027000080FF0CC06091030170E075956795759529
:1027100067956115710549F1862F089581FF06C0FF
:102720006091030170E075956795F3CF60910301A7
:1027300082FD0BC0909192029923A1F06091020159
:1027400080910301961738F0682F70E060387105AA
:1027500000F38FE70895899FC001112470E00E9463
:10276000572DF4CF61E070E0D7CF81E008958D3E22
:1027700031F40E94401381958093980208958E3E13
:1027800019F40E944013F8CF8F3E31F40E94401399
:102790008195809397020895803F19F40E94401319
:1027A000F8CF893F29F40E947E13809399020895FF
:1027B0008A3F21F40E947E138195F7CF8B3F31F43D
:1027C0000E947E13819580939A0208958C3F19F49C
:1027D0000E947E13F8CF9FE0980F983070F4815FCD
:1027E000990B21E030E001C0220F8A95EAF7809131
:1027F0009602822B8093960208958D3F31F480914A
:10280000940281608093940208958E3F21F4809118
:1028100094028260F7CF8F3FB9F780919402846071
:10282000F1CF409197028D3E59F48091980287FF35
:102830000DC01092980241110BC01092930208C073
:102840008E3E81F48091980218169CF3442381F007
:102850008091990290919A02892B09F05AC01092A6
:10286000920208958F3E49F447FFF0CF10929702ED
:10287000809198028111ECCFE0CF803F19F41416BB
:10288000ACF3E4CF90919902893F29F41916F4F63C
:1028900010929902DBCF8A3F19F497FFD7CFF8CF78
:1028A00090919A028B3F29F497FFD0CF10929A0211
:1028B000CDCF8C3F19F41916CCF3C8CF9FE0980FF9
:1028C000983090F4815F990B21E030E0B90102C0AB
:1028D000660F771F8A95E2F7CB018095909196025B
:1028E000892380939602B2CF8D3F31F48091940278
:1028F0008E7F80939402AACF8E3F21F48091940220
:102900008D7FF7CF8F3F09F0A1CF809194028B7F0D
:10291000F0CF08950E94E9259C0190919702809143
:102920009802982B21F0309391022093900290917D
:10293000990280919A02982B21F030938F02209374
:102940008E0285E992E00E943D24089586E0E5E943
:10295000F2E0DF011D928A95E9F71092930210923E
:102960009202109294020895FC01828181110EC09E
:10297000838181110BC08481811108C091E0858120
:10298000811101C090E0892F8170089581E0FCCF12
:10299000A6E0B0E0EEECF4E10C94D32D86E0E5E99E
:1029A000F2E0DE01119601900D928A95E1F7109206
:1029B0009702109298021092990210929A028B81BB
:1029C0009C81892B89F080919002909191020E94C4
:1029D0000126AC01909193029923C9F180910801DD
:1029E0008417150608F440C08D819E81892B91F0D3
:1029F00080918E0290918F020E940126AC019091ED
:102A00009202992309F471C080910401841715067C
:102A100008F479C0BE016F5F7F4F85E992E00E94A4
:102A20003925811105C085E992E00E94B414811115
:102A30000E948A1486E0FE013196A5E9B2E0019079
:102A40000D928A95E1F72696E3E00C94EF2D209104
:102A500009018AE0289F900111242417350720F6E8
:102A60009F5F9093930202C09F3FD1F71B81112378
:102A700059F00E9440139FEF11160CF491E0899FCA
:102A8000802D1124809397021C81112359F00E94FC
:102A900040139FEF11160CF491E0899F802D1124B3
:102AA0008093980230919702332309F49DCF2091AF
:102AB0009802222309F498CF45EB3403C001112476
:102AC000992359F09093970245EB24039001112428
:102AD000332339F03093980287CF81E080939702B7
:102AE000F3CF81E0809398027FCF209105018AE0A7
:102AF000289F900111242417350708F08BCF9F5F82
:102B00009093920202C09F3FD1F71D81112359F08B
:102B10000E947E139FEF11160CF491E0899F802D87
:102B20001124809399021E81112359F00E947E1373
:102B30009FEF11160CF491E0899F802D1124809352
:102B40009A0230919902332309F464CF20919A02BA
:102B5000222309F45FCF45EB3403C00111249923EC
:102B600059F09093990245EB2403900111243323EB
:102B700039F030939A024ECF81E080939902F3CFDF
:102B800081E080939A0246CFEF92FF920F931F93BA
:102B9000CF93DF93EB01E82FD1110EC0442321F036
:102BA000F0E0EF54FB4FE4916E2F7E2F8E2FCDB7C8
:102BB000DEB7E6E00C94EC2D0D2F10E0282F30E06E
:102BC000442329F02F543B4FF901249130E0F6E0E3
:102BD000CF9FC0011124EFEFF0E0BF010E94432D11
:102BE000AB018C2F90E0880F991FA5E5A49FB00141
:102BF000A59F700D1124861B970B982F990F980F86
:102C0000BF01601B710B629FD001639FB00D729F6B
:102C1000B00D11248B2F9D9FB0011124672F7727B2
:102C2000EF01C61BD70BBE01629FE001639FD00D71
:102C3000729FD00D11247F01E91AF108E09EB001C6
:102C4000E19E700DF09E700D1124672F7727E61B13
:102C5000F70BE29F8001E39F100DF29F100D1124EE
:102C6000E12F722F4230510599F048F4411551057A
:102C700069F04130510581F0EB2F8D2F07C04430B2
:102C8000510569F080F046305105B1F76E2F8FCFB6
:102C9000E22F7B2F812FFACFE22F7D2FF7CFEB2F63
:102CA000822F712FF3CF7B2F822FED2FEFCF41E0BB
:102CB0000E94C415089508950E9457160895CF9351
:102CC000DF93762FE901682F842F0E945C167983A9
:102CD00068838A83DF91CF91089580911103982FA3
:102CE0009E7F29F4817082608093110308958A3455
:102CF000E8F381708864F8CF88E090E00E94482E65
:102D00000895CF92DF92EF92FF926B017C010E94B7
:102D10006D16B701A60188E090E00E94662EFF9034
:102D2000EF90DF90CF900895E1E1F3E083E08083BE
:102D300011828FEF8283838314826081718182810B
:102D400093810E94811608958091110380FF02C033
:102D50008695089580E0089590911503933018F4B6
:102D60009F5F90931503882351F060911103709138
:102D7000120380911303909114030E948116089509
:102D800081E00E94AC16089590911503992319F0E3
:102D9000915090931503882351F060911103709125
:102DA000120380911303909114030E9481160895D9
:102DB00081E00E94C416089570E00E949D1E08954F
:102DC00060910E018091110380FF0BC080910D0175
:102DD00023E0829FC00111248A5E9C4F0E94DC1672
:102DE000089580910F019091100123E0829FF001DE
:102DF0001124EA5EFC4F891748F711821082128273
:102E00008F5F3396F8CF9091110390FF0EC0909191
:102E10000F012091100133E0939FF0011124EA5E2D
:102E2000FC4F921718F00E94E0160895818360838A
:102E300042839F5F3396F5CFA3E0B0E0E2E2F7E193
:102E40000C94D42D9091110390FF0AC09E012F5F26
:102E50003F4F0E945F164B8169818A810E94031750
:102E60002396E2E00C94F02DCF93DF93EC01EC81FC
:102E7000F0E0E455FC4F4491E1E1F3E062818181AF
:102E80000E941C178C818F5F8C83DF91CF910895F6
:102E9000CF93DF93EC01E1E1F3E0438162818C8128
:102EA0000E941C178C818F5F8C83DF91CF910895D6
:102EB000A3E0B0E0EEE5F7E10C94D22D8C01809117
:102EC0009B0281110AC09E012F5F3F4F4FEF6FEFB2
:102ED0000E945F168A8180939B02F80164816130B1
:102EE00069F080919B0240E0662361F040E062302F
:102EF00011F440919B0280E060E004C060919B026D
:102F000040E080E00E940317F801848190E0019680
:102F100063E070E00E94572D84832396E4E00C94D4
:102F2000EE2DA3E0B0E0E7E9F7E10C94CD2D082FFA
:102F3000D62EE42EC22E9091110390FF29C0E92FC6
:102F4000E695AE2FB0E0A056BE4F8C918093A702BD
:102F50009E7F923009F59E012F5F3F4F802F0E9488
:102F60005F164B8169818A810E94031700931203C7
:102F7000D0921303E0921403CC2051F0609111031E
:102F80007091120380911303909114030E94811693
:102F90002396E9E00C94E92D823019F4E0901403B3
:102FA000E5CF863019F400911203E0CF8930D9F3D0
:102FB0008931E1F6E9516E2F6170B62EE695F0E0A9
:102FC000E455FB4F1491F12C60911101F61618F0A5
:102FD0000E94E016CBCFF19EC001112470E00E9448
:102FE000432D802FB11014C0860F20910F01622F46
:102FF0006F0D7727771F9B01220F331F260F371F77
:103000002A5E3C4F4E2D6D2D0E945F16F394DCCF4F
:10301000861BEBCFE1E1F3E09181282F43816281B0
:1030200088E0890F0E949117089581E00E940A1894
:103030000895E1E1F3E09181282F4381628188EFD7
:10304000890F0E949117089581E00E941918089530
:10305000E1E1F3E0628128E0620F08F46FEF282FCE
:10306000438181810E949117089581E00E94281870
:103070000895E1E1F3E0628128E0621B08F460E07A
:10308000282F438181810E949117089581E00E9439
:1030900039180895E1E1F3E0438128E0420F08F494
:1030A0004FEF282F628181810E949117089581E05E
:1030B0000E944A180895E1E1F3E0438128E0421BB1
:1030C00008F440E0282F628181810E9491170895C1
:1030D00081E00E945B18089520E00E9491170895F6
:1030E000EF92FF921F93CF93DF93EC0110E0EE2459
:1030F000EA94F12C60911101161770F00E94E0160D
:103100009A818C8190FF27C08F5F8C83DF91CF9154
:103110001F91FF90EF90089520910F01422F410FD2
:103120005527551FCA019A01220F331F280F391F37
:103130002A5E3C4F70E0C7010E94572D962F8C816C
:103140004091140360911303199F800D11240E9474
:103150005F161F5FCFCF8150D8CFB0E0A0E0E3EB88
:10316000F8E10C94CD2DFC0182810FEF80FF01E08E
:1031700010E080911101181798F00E94E0168091DC
:103180009D02013009F04CC0811102C080911101F3
:10319000815080939D02CDB7DEB7E9E00C94E92D14
:1031A000C0910F01C12ED12CCC0DDD2DD11DCE0132
:1031B000880F991FC80FD91FCA5EDC4F1982188269
:1031C0001A8234E0E32EF12CB12C80919D028B0DFC
:1031D000813104F18F70082E000C990BC816D906A6
:1031E00091F4809114038E9DA0018F9D500D1124A8
:1031F00055954795559547959E016091130380918C
:1032000012030E945F16B00EF1E0EF1AF108E9F622
:103210001F5FAFCF87FFDFCF90911101890FDBCF09
:1032200090E001966091110170E00E94572DB1CF9E
:103230000F931F93CF93DF9380910F019091100113
:1032400023E0829FF0011124EA5EFC4F891740F1D0
:10325000C0E0D3E060911101C61740F10E94E01672
:1032600020910B0180919C02820F80939C0290918F
:103270000C01920F90930C01191654F4082E000CB7
:10328000990B409111014150550B841795071CF083
:10329000219520930B01DF91CF911F910F910895FC
:1032A0001182108212828F5F3396D0CF0C2F10E0E4
:1032B00070E0C8010E94572D20910F01820F482F06
:1032C00050E020919C02022E000C330B02171307D2
:1032D000BCF020910C01022E000C330B201731079B
:1032E0007CF08D9F900111242A5E3C4F4091140385
:1032F00060911303809112030E945F16CF5FAACFE3
:10330000FA01EE0FFF1FE40FF51FEA5EFC4F11827A
:1033100010821282F3CFB0E0A0E0E1E9F9E10C9471
:10332000CA2DEC014C81042F10E09801D8010E94B5
:103330009B2D9B01AC010E94B12D4B015C01E0E291
:10334000F0E0E01BF10BA5E5B0E0AC019B010E94B1
:10335000B12D6B017C019F01DF010E94932D9B0128
:10336000AC010E94BC2D9B01AC01280D391D4A1DEA
:103370005B1DC701B6010E946B2DF22E822F90E0DB
:1033800039E23F1520F143E0249F90011124359547
:103390002795122F109500E085E5E82EEF18809113
:1033A0001101081718F10E94E0169C8181E0992311
:1033B00019F0903219F48FEF80930A0180910A017D
:1033C000890F8C83CDB7DEB7ECE00C94E62D25E5B4
:1033D00030E0B901681B790B9B01220F331F260FC8
:1033E000371F37FFD4CF2F5F3F4FD1CF8E2D01FD39
:1033F0008F2D20910F01622F600F7727771F9B0180
:10340000220F331F260F371F2A5E3C4F412F60913A
:1034100013030E945F160F5FC2CF0F931F93CF93CA
:10342000DF93EC0110E000E090911101901711067C
:1034300009F06CF40E94E0168C8190E00196817096
:1034400099278C83DF91CF911F910F91089520913F
:103450000F01A801420F511D9A01220F331F240FA3
:10346000351F2A5E3C4F4C816091130380911203FB
:1034700096959017110651F04CF0442349F0409175
:1034800014030E945F160F5F1F4FCECF4423B9F382
:1034900040E0F7CFE1E1F3E080818E7F80836081BF
:1034A0007181828193810E9481161092A8022FEF70
:1034B00080E792E0215080409040E1F700C000009A
:1034C0000E94E0160895E1E1F3E080818E7F808321
:1034D0001092A8022FEF80E792E0215080409040A8
:1034E000E1F700C000000E94E01608951092A802C3
:1034F0008091A50281110AC081E08093A50280918C
:10350000110381708093A4020E94631A0895609150
:103510001103669570E04BE050E082E191E00E947B
:103520001D2E892B19F481E08093A8020E94E925C1
:1035300090939F0280939E0208959091110390FFB3
:103540002BC09170811129C0926090931103662362
:1035500051F06091110370911203809113039091C7
:1035600014030E94811660911103669570E04BE090
:1035700050E082E191E00E941D2E892BA9F010926B
:10358000A80281E08093A10240911403609113038B
:10359000809112030E946C180895853210F098648F
:1035A000D4CF880F982BD1CF0E94871AEACF682FEB
:1035B00090911103969581E0890F853208F081E0A2
:1035C0000E949D1A089581E00E94D71A0895682FDD
:1035D0009091110396958FEF890F09F484E20E9470
:1035E0009D1A089581E00E94E71A089561E00E9403
:1035F0009D1A0895E1E1F3E08081816080838695E2
:103600000E94F61A08958091110380FF03C00E9462
:103610004A1A08950E94FA1A089560E00E949D1ABD
:1036200008958091A60281112EC00E94390E811149
:1036300004C00E94E20E0E9494160E947C166093C1
:1036400011037093120380931303909314036E7FFE
:1036500061F40E9494160E947C166093110370938B
:10366000120380931303909314030E946D1610921B
:10367000A8028091110380FF03C086950E940D1B54
:1036800081E08093A6020895E1E1F3E0808181600A
:10369000808386950E940D1B08951092A50280914B
:1036A000A40281110E94441B0E94871A08950F935F
:1036B0001F93CF93DF938091A8028823B9F1809163
:1036C000A702E0911103E695E81BE093A002823087
:1036D00091F5F0E0E855FC4FE491CE2FD0E004E303
:1036E00017E18091A102882361F01092A1020E944B
:1036F000E92590939F0280939E021092A30210925C
:10370000A2020E94E925E0919E02F0919F028E1B89
:103710009F0B8F3F9F4750F4EC0FFD1FF0939F02CC
:10372000E0939E028EE992E0F8010995DF91CF9136
:103730001F910F910895863049F4F0E0EB55FC4F4E
:10374000E491CE2FD0E008E417E1CBCF893051F4DB
:10375000E695F0E0EE55FC4FE491CE2FD0E000E787
:1037600018E1BFCF8F3051F4E695F0E0E156FC4F01
:10377000E491CE2FD0E00DEA18E1B3CF853149F4C2
:10378000F0E0E456FC4FE491CE2FD0E008E119E1DF
:10379000A8CFC8E2D0E00BE819E1883109F4A1CF45
:1037A000833239F4EAE9F3E0C591D49108E517E1F1
:1037B00098CFC4EFD1E00DE01AE1843209F491CF43
:1037C000C0EDD7E00BE516E18CCFFA01811101C005
:1037D000FB0109950895CF93DF93C82FD62F0E9440
:1037E000A4168C1748F00E94A4168D1728F40E9486
:1037F000E31ADF91CF9108958C2F0E94F61AF9CF2A
:103800001F93CF93DF93EC01FB01128111117EC056
:103810000E94520D8272CD3CFCE5DF0709F49CC08A
:1038200008F041C0C73CECE5DE0709F481C0D8F4DC
:10383000C43C9CE5D90709F471C030F4C33CDC45B5
:1038400009F469C011E062C0C53C9CE5D90709F4E0
:103850006AC044E258E165E178E1C63CDC4591F795
:103860000E94E51B53C0CA3CFCE5DF0709F46AC0AF
:1038700068F4C83CECE5DE0709F45FC045E358E1B5
:1038800066E478E1C93CDC4559F3DCCFCB3C9CE5F0
:10389000D90709F45CC048ED56E160EC76E1CC3C18
:1038A000DC45F1F2CFCFC23DFCE5DF0709F465C08E
:1038B00098F4CF3C9CE5D90709F457C008F451C0EF
:1038C000C03DFCE5DF0709F455C0C13DDC4509F00A
:1038D000B9CF6EE089E04BC0C53D9CE5D90709F43E
:1038E00052C058F4C33DFCE5DF0709F449C0C43DAC
:1038F000DC4509F0A7CF88E135C0C63D9CE5D90776
:1039000009F444C0CE35DD4509F09CCF812FDF910D
:10391000CF911F9108950E94031BF8CF42EF5AE107
:1039200063EE7AE19DCF43EE5AE162EF7AE198CF00
:1039300045E158E164E278E193CF46E458E165E37C
:1039400078E18ECF48E658E167E578E189CF47E531
:1039500058E168E678E184CF40EC56E168ED76E125
:103960007FCF81E00E94F61AD1CF65E082E00E940D
:10397000EB1BCCCF68E086E0FACF64E18FE0F7CFB5
:1039800067E185E1F4CF62E289E1F1CF83E2EACF3A
:1039900086E090E00E94402E0895682F86E090E037
:1039A0000E94542E0895E6E4F3E0808184708962D9
:1039B00080830E94CD1C08950E94390E811104C09D
:1039C0000E94E20E0E94D31C0E94C81C80934603F2
:1039D000803320F08770886280934603909146037D
:1039E000892F817090FF04C0892F869586958695D2
:1039F0000E94E51D089580914603982F969596950F
:103A00009695953040F49F5F990F990F990F8770A5
:103A1000892B8093460380914603816080934603FF
:103A20000E94CD1C809146038695869586950E94BE
:103A3000E51D089580914603982F987F79F088506E
:103A400080934603887F91E009F490E080914603DB
:103A500090FB80F9809346030E94CD1C8091460321
:103A60008695869586950E94E51D0895809146036A
:103A700080FD13C0816080934603813019F489E092
:103A800080934603809146030E94CD1C809146039B
:103A90008695869586950E94E51D0895809146033A
:103AA00080FF08C08E7F809346030E94CD1C80E07B
:103AB0000E94E51D08958091460380FF03C00E9487
:103AC0004E1D08950E94361D089590914603892F3A
:103AD0008695869586958F5F8F7197708630E0F416
:103AE000880F880F880F892B8093460380914603A7
:103AF000887F91E009F490E08091460390FB80F983
:103B0000809346030E94CD1C80914603869586953E
:103B100086950E94E51D089590934603E7CF863071
:103B200008F085E0909146039770282F220F220F0E
:103B3000220F922B90934603987F21E009F420E016
:103B40009091460320FB90F9909346030E94E51D57
:103B500008950E948F1D809146030E94CD1C0895F8
:103B60009C01FB018281882349F12E3BFCE53F0744
:103B7000C9F040F42C3BECE53E0769F02D3B3C4599
:103B800079F00895203C9CE5390791F070F0213CD4
:103B90003C4589F0089585E00E94A91D80E00895C4
:103BA00080E0FACF0E941A1DF9CF0E94FB1CF6CFCD
:103BB0000E945B1DF3CF0E94651DF0CF81E0089548
:103BC000269A2E9808952E9808958F929F92AF92DC
:103BD000BF92EF92FF920F931F93CF93DF93C82F63
:103BE0008630C0F5811137C0809180008F7D809331
:103BF00080000E94E31DA0918600B09187002C2FC9
:103C000030E00E949B2D25E030E040E050E00E9433
:103C10006B2D89019A0180918600909187006CE05C
:103C200070E00E94432D60177107D8F0C80169E069
:103C300070E00E94432D70938B0060938A00DF91A7
:103C4000CF911F910F91FF90EF90BF90AF909F90F9
:103C50008F900895C5E080918000806280938000FD
:103C6000CACF8091860090918700E0908600F09006
:103C70008700E0918600F0918700C6E0D0E0BE01A9
:103C80000E94432D060F171F211D311D48015901A8
:103C900085E0880C991CAA1CBB1C8A95D1F7C7012A
:103CA000BE010E94432D9F0150E040E0260F371FC8
:103CB000411D511DC501B4010E946B2D49015A01DE
:103CC000E0918600F0918700CA01B9010E94332D6E
:103CD0009B01AC01DF010E94B12D9B01AC01C5012C
:103CE000B4010E94332D2FE09695879577956795BF
:103CF0002A95D1F7009186001091870030E020E0EE
:103D0000061717072807390708F095CF6091860036
:103D10007091870090CF08950E94E01D82E2809309
:103D2000800089E1809381008FEF9FEF909387005F
:103D3000809386000E94DC1C08956A9A4EB14B7FE6
:103D40005EB15460EFB7F8949B01220F331F260F2A
:103D5000371F280F391F2817390741F4EFBF8FE5A8
:103D600094E00197F1F700C000000895DC016D9127
:103D7000CD0178E05EB9000000C067FF4EB9660F64
:103D8000000000C000C000C04EB900C07A9591F795
:103D9000E2CFCF93DF93EC01FB018281882309F40A
:103DA00064C1C430FDE5DF07E0F5CB3F9CE5D907F2
:103DB00030F49E0122503C4524313105D8F50E9453
:103DC0004E0E9093FC028093FB02C231ECE5DE07BD
:103DD00009F41FC108F06EC0C9308CE5D80709F49A
:103DE000F2C008F03FC0C530ECE5DE0709F4DBC0E7
:103DF00058F5C3308CE5D80709F4CDC008F0CFC022
:103E00008091FB028160C230DC4509F4AEC0809134
:103E1000FB029091FC020E945C0E0E949D0880E0D3
:103E200009C0C63AEDE5DE0751F238F4C2369DE529
:103E3000D90729F2DF91CF9108959E012E5A3D4571
:103E400023303105B8F7BBCF8091FB028062C730C9
:103E5000FCE5DF0709F489C008F4B1C08091FB02DA
:103E6000806483C0CD309CE5D90709F4BAC070F4F2
:103E70008091FB028E7FCB30FCE5DF0709F475C033
:103E800008F4A7C08091FB028D7F6FC0CF309CE506
:103E9000D90709F4B6C008F4A8C0C031FCE5DF07B3
:103EA00009F4B3C0C131DC4509F0B1CF8091FB0208
:103EB0008F7B5BC0C1159DE5D90709F4B4C098F5A7
:103EC000CB3FFCE5DF0709F472C0B8F4C4319CE5D0
:103ED000D90709F4B6C008F4A2C0C531DC4509F021
:103EE00096CF8091FB0282FB992790F921E09227DF
:103EF00090FB82F990FB83F938C0CD3F8CE5D80761
:103F000009F477C008F457C0CE3FECE5DE0709F4AA
:103F100074C08091FC028360CF3FDC4509F077CF0D
:103F20008093FC0274CFC2368DE5D80709F496C0A1
:103F300068F4C230EDE5DE0709F48CC008F477C000
:103F4000C330DD4509F063CF80E085C0CE3A9DE502
:103F5000D907E9F068F49091FB02892F8E7F90FFDA
:103F60008160C63ADD4509F052CF8093FB024FCF06
:103F7000CF3A8DE5D80789F1C03BDD4509F047CF41
:103F80009091FC02892F877F93FF8860C9CF809131
:103F9000FC028860C5CF8091FB028260E6CF8091F1
:103FA000FB028460E2CF8091FB028860DECF8091CB
:103FB000FC028160B5CF8091FC028260B1CF80911C
:103FC000FB028061D2CF0E949D088091FB02806835
:103FD000CCCF8091FB028C60C8CF8091FC02877FA0
:103FE0009FCF8091FB028B7FC0CF8091FB02877FA8
:103FF000BCCF8091FC028E7F93CF8091FC028D7F9D
:104000008FCF8091FB028F7EB0CF8091FB028F7D9E
:10401000ACCF0E949D088091FB028F77A6CF809144
:10402000FB02837FA2CF8091FC028C7F79CF8091AD
:10403000FC02982F909591708E7F892B90FB81F9CF
:104040006FCF0E949D089091FB02892F97FB87F903
:1040500080588BCF81E00E94E50ED9CE9091FB0273
:10406000892F8F7E94FF806180CF81E0E3CECF9354
:10407000DF93EB0186319C4511F50E94520D9A8128
:10408000992399F08A7A91E009F490E09093A9023B
:10409000811109C089E20E942A0D0E94930D80E0DF
:1040A000DF91CF91089585E3F6CF8091A902811128
:1040B00004C089E20E94320DF0CF85E3FBCF81E09E
:1040C000EFCFB0E0A0E0E7E6F0E20C94C62DEC0103
:1040D000E881F981CF01815095458F3F910510F41A
:1040E00085E5F827DB0112964C90442009F45AC26A
:1040F000EF3FF105A9F0A0F0EB32FD4521F0109261
:10410000AA02A42D07C08091AA0291E0892780937A
:10411000AA02A0E08A2FCDB7DEB7E0E10C94E22D31
:10412000A091AA02AA2309F4E9C01092AA02E03CD5
:10413000F105F0F5E038F10508F0AAC0E034F1052A
:1041400008F070C021E030E040E050E060E070E056
:1041500080E090E00E2F0E94FB2DB091AB022B2B44
:10416000B091AC023B2BB091AD024B2BB091AE02A3
:104170005B2BB091AF026B2BB091B0027B2BB09157
:10418000B1028B2BB091B2029B2B2093AB023093E8
:10419000AC024093AD025093AE026093AF027093B5
:1041A000B0028093B1029093B202F983E883B2CF58
:1041B000EF3FF10509F030F621E030E040E050E05B
:1041C00060E070E080E090E08F01005C11090E94E7
:1041D000FB2DB091C3022B2BB091C4023B2BB091AD
:1041E000C5024B2BB091C6025B2BB091C7026B2B63
:1041F000B091C8027B2BB091C9028B2BB091CA023F
:104200009B2B2093C3023093C4024093C50250936A
:10421000C6026093C7027093C8028093C90290934C
:10422000CA02C3CF21E030E040E050E060E070E03F
:1042300080E090E08F01005411090E94FB2DB091A5
:10424000B3022B2BB091B4023B2BB091B5024B2B98
:10425000B091B6025B2BB091B7026B2BB091B80254
:104260007B2BB091B9028B2BB091BA029B2B209380
:10427000B3023093B4024093B5025093B6026093F8
:10428000B7027093B8028093B9029093BA028DCFAF
:1042900021E030E040E050E060E070E080E090E05D
:1042A0008F01005811090E94FB2DB091BB022B2BEE
:1042B000B091BC023B2BB091BD024B2BB091BE0222
:1042C0005B2BB091BF026B2BB091C0027B2BB091E6
:1042D000C1028B2BB091C2029B2B2093BB02309367
:1042E000BC024093BD025093BE026093BF02709324
:1042F000C0028093C1029093C20257CFE034F1050F
:1043000008F067C07090AB028090AC029090AD0254
:10431000D091AE02C091AF02B091B0025090B10204
:104320006090B20221E030E040E050E060E070E0F8
:1043300080E090E00E2F0E94FB2D59016A017B0165
:104340008C0127213B2D382149215D2D5D236C23D4
:104350007F2D7B238521912F96210E94142E09F019
:10436000D0CEE03CF10508F08EC0E038F10508F051
:10437000EBC0E034F10508F0B9C021E030E040E0E6
:1043800050E060E070E080E090E00E2F0E94FB2D96
:1043900020953095409550956095709580959095B5
:1043A0002721382149215D236C237B2385219621F8
:1043B0002093AB023093AC024093AD025093AE0217
:1043C0006093AF027093B0028093B1029093B202F7
:1043D000A1CEE038F105E0F47090B3028090B40211
:1043E0009090B502D091B602C091B702B091B802D8
:1043F0005090B9026090BA0221E030E040E050E015
:1044000060E070E080E090E08F010054110993CFEC
:10441000E03CF105E0F47090BB028090BC0290900B
:10442000BD02D091BE02C091BF02B091C0025090B7
:10443000C1026090C20221E030E040E050E060E064
:1044400070E080E090E08F010058110974CF709007
:10445000C3028090C4029090C502D091C602C09160
:10446000C702B091C8025090C9026090CA0221E010
:1044700030E040E050E060E070E080E090E08F01EC
:10448000005C110958CFEF3FF10511F008F075CF2E
:104490008F01005C110921E030E040E050E060E075
:1044A00070E080E090E00E94FB2D209530954095D3
:1044B00050956095709580959095272138214921D8
:1044C0005D236C237B23852196212093C3023093A7
:1044D000C4024093C5025093C6026093C702709312
:1044E000C8028093C9029093CA0214CE8F0100546F
:1044F000110921E030E040E050E060E070E080E051
:1045000090E00E94FB2D2095309540955095609548
:104510007095809590952721382149215D236C2342
:104520007B23852196212093B3023093B4024093DC
:10453000B5025093B6026093B7027093B8028093AD
:10454000B9029093BA02E6CD8F010058110921E01B
:1045500030E040E050E060E070E080E090E00E94F9
:10456000FB2D2095309540955095609570958095E0
:1045700090952721382149215D236C237B238521B8
:1045800096212093BB023093BC024093BD0250930E
:10459000BE026093BF027093C0028093C1029093E9
:1045A000C202B8CDA1E0EF3FF10509F098F5E03483
:1045B000F10590F58090AB029090AC02D091AD02E5
:1045C000C091AE02B091AF02A091B0026090B10272
:1045D0007090B20221E030E040E050E060E070E036
:1045E00080E090E00E2F0E94FB2D59016A017B01B3
:1045F0008C0128213B2D39214D235D2D5C236B231C
:104600007F2D7A23A1E08621912F97210E94142EDD
:1046100009F4A0E0A1707ECDE038F105E0F48090CF
:10462000B3029090B402D091B502C091B602B0919D
:10463000B702A091B8026090B9027090BA028F01DF
:104640000054110921E030E040E050E060E070E00B
:1046500080E090E0C8CFE03CF105A0F48090BB0280
:104660009090BC02D091BD02C091BE02B091BF0239
:10467000A091C0026090C1027090C2028F010058E8
:104680001109E0CF8090C3029090C402D091C5027E
:10469000C091C602B091C702A091C8026090C90241
:1046A0007090CA028F01005C1109CCCF0F931F9349
:1046B000CF93DF93C42FD22FFC0182818823C9F0CE
:1046C0004093CD020E94E9259093CC028093CB02C7
:1046D00080E28C0F883040F4C77081E001C0880F01
:1046E000CA95EAF70E943F06DF91CF911F910F9183
:1046F00008951091CD02141332C08091CB02909195
:10470000CC020E9401268C32914048F5C0E2CD0FC8
:104710001D17B9F080E2810F883040F4177081E0F6
:1047200001C0880F1A95EAF70E944606C83048F47F
:1047300081E09D2F977001C0880F9A95EAF70E943B
:104740003F06802F0E943606C83070F6D77081E091
:1047500001C0880FDA95EAF70E944606C5CF80E2CD
:104760008C0F883008F6C77081E001C0880FCA95A9
:10477000EAF7F2CF0F939C01CB01243F4CE53407BD
:1047800059F1A8F4293DFCE53F0701F12A3D4CE52C
:104790003407D1F1283D3C4591F406E221EE41EE8B
:1047A00068ED7CE50E94562380E00F910895263F36
:1047B000FCE53F07E9F0B0F0273F3C45F9F0FC018C
:1047C0008281882339F11092CD02EFCF07E225EEE6
:1047D00045EE69ED7CE5E6CF06E221EE40EE64EFC2
:1047E0007CE5E0CF07E225EE44EE65EF7CE5DACF2D
:1047F00006E221EE42EE66EF7CE5D4CF07E225EE3D
:1048000046EE67EF7CE5CECF08E221E045EE6AEDAB
:104810007CE5C8CF81E0C9CF9093C7018093C601E2
:1048200008959093D3028093D2020895E091D2022A
:10483000F091D302309729F00190F081E02D099595
:10484000089580E00895E091D202F091D30230976C
:1048500099F020912901222359F02091FB0227FF92
:1048600007C0DC012C9111962C93119726E02C9314
:104870000280F381E02D09950895E091D202F09134
:10488000D302309739F022E0DC012C930480F581CB
:10489000E02D099508952091D0023091D10228177A
:1048A000390771F09093D1028093D002E091D20247
:1048B000F091D302309721F00680F781E02D099521
:1048C00008952091CE023091CF022817390771F058
:1048D0009093CF028093CE02E091D202F091D30266
:1048E000309721F00084F185E02D09950895FC01B1
:1048F000329680912901882321F08091FB029EE16C
:1049000087FF96E080E0915008F4089521912223DA
:10491000D1F38F5FF8CF662301F120912901222383
:10492000F1F02091FB0227FF1AC0462F46954695CD
:1049300046954E3190F4677021E030E002C0220FBE
:10494000331F6A95E2F7840F911DFC01828190E08C
:104950002823392381E0232B69F480E00895FC01AA
:10496000329608962191261721F0E817F907D1F71A
:10497000F4CF81E008959C01FC0132969FEF80E026
:104980004191461751F09F3F19F4411101C0982FF2
:104990008F5F8630A9F79F3F09F40895290F311DD5
:1049A00097FD3A95F90162830895FC0132960896C5
:1049B0002191261303C0DF0111971C92E817F90714
:1049C000B9F70895E62FE695E695E695EE3168F499
:1049D000E80FF92FF11D677021E030E001C0220FD0
:1049E0006A95EAF78281822B82830895E62FE69505
:1049F000E695E695EE3170F4E80FF92FF11D67703A
:104A000021E030E001C0220F6A95EAF7209582810B
:104A100028232283089520912901222339F020910F
:104A2000FB0227FF03C00E94E22408950E94BB24DA
:104A3000089520912901222339F02091FB0227FFBC
:104A400003C00E94F62408950E94D5240895FC0115
:104A5000329680912901882351F08091FB0287FFD3
:104A600006C08EE1DF011D928A95E9F7089586E080
:104A7000F9CF46E050E00E942A2E21E0892B09F46C
:104A800020E0822F089508950E9443250895811102
:104A900006C081E08093D4020E944425089582E0FC
:104AA000F9CF83E08093D4020E94442508950E94A8
:104AB0004725089581E08093D4020E9444250895FB
:104AC0000E945A250895089508950E946425089526
:104AD000089508950E9463250895CF930E94682544
:104AE0000E94AA120E946925C0E08C2F0E94DF114B
:104AF000892B31F4CF5FC530C1F780E0CF910895A5
:104B000081E0FCCF85B7806885BF85B7806885BFA9
:104B100008951F921FB61F9211248F939F93AF93F6
:104B2000BF938091D502811113C08091470390916A
:104B30004803A0914903B0914A034196A11DB11DBC
:104B40008093470390934803A0934903B0934A038B
:104B5000BF91AF919F918F911F901FBE1F9018958D
:104B600080914F03843031F10E94A5041092D50248
:104B700088E190E020E40FB6F894A8958093600057
:104B80000FBE2093600083B7817F846083BF83B7AB
:104B9000816083BF7894889583B78E7F83BF0FB67B
:104BA000F894A895809160008861809360001092CD
:104BB00060000FBE08950E949D080E94AF040895F2
:104BC00082E084BD93E095BD9AEF97BD80936E001F
:104BD00008952FB7F8948091470390914803A091CE
:104BE0004903B0914A032FBF08952FB7F8946091FD
:104BF0004703709148038091490390914A032FBF66
:104C000008959C014FB7F894809147039091480311
:104C1000A0914903B0914A034FBF821B930B0895A3
:104C200078941F921FB61F9211248F939F93AF9376
:104C3000BF938091470390914803A0914903B0919D
:104C40004A030196A11DB11D809347039093480329
:104C5000A0934903B0934A03BF91AF919F918F9165
:104C60001F901FBE1F90189581E08093E00080E2A6
:104C70008093D8001092C9008FE19EE40197F1F76C
:104C800000C0000087E090EBDC0180935803909314
:104C90005903A0935A03B0935B0388E19CE00FB6DD
:104CA000F894A895809360000FBE90936000FFCFAA
:104CB00088E19CE00FB6F894A895809360000FBE41
:104CC00090936000FFCF8091F902089508959C01B0
:104CD00082E08093E9009FEF8091E800915085FD8C
:104CE00006C085ED8A95F1F700009111F5CF80910E
:104CF000E80085FF0CC050E040E066E070E0C901CC
:104D00000E94AC288091E8008E778093E800089597
:104D1000CF93DF93EC01809129018823B1F1809139
:104D2000FB0287FF32C060E282E08093E9008FEFF0
:104D30009091E800815095FD06C095ED9A95F1F7A8
:104D400000008111F5CF8091E80085FF1BC08091A4
:104D5000290170E050E040E0811104C050E040E0E3
:104D600068E070E0CE010E94AC288091E8008E7768
:104D70008093E80080E2FE01A9EDB2E001900D927F
:104D80008A95E1F7DF91CF91089568E081E0CDCF7A
:104D90008093D6027093D8026093D70280914F031C
:104DA000843001F582E08093E9008FEF9091E80074
:104DB000815095FD06C095ED9A95F1F7000081119F
:104DC000F5CF8091E80085FF0DC050E040E063E042
:104DD00070E086ED92E00E94AC288091E8008E772A
:104DE0008093E8000895BC0184E00E94C8260895DD
:104DF000BC0183E00E94C826089580914E03811172
:104E000009C00E943C2A0E94992A8091E200846095
:104E10008093E200089510924E0308950E945A254F
:104E2000089560914B0381E0611101C080E00E9410
:104E30005125089590914F0381E0943009F080E06E
:104E400060914B030E945725089542E061EC81E098
:104E50000E94B82942E261EC82E00E94B829909158
:104E60004F0381E0943009F080E060914B030E9491
:104E70004725089580915103833009F461C030F4CF
:104E80008130D1F1823009F49EC008958A3009F44E
:104E90008AC08B3009F46FC0893009F050C080910E
:104EA0005003813209F04BC0809154039091550317
:104EB000029708F044C08091E800877F8093E80063
:104EC0008091E80082FF37C09091F3008091F2005A
:104ED000029731F48091F100813011F0863021F495
:104EE0008091F1008093F9028091E8008B778093A4
:104EF000E8000E94EC2923C080915003813AF9F424
:104F00008091E800877F8093E8008091540390911E
:104F10005503892B61F460E289ED92E070E00E9414
:104F2000FB288091E8008B778093E800089560E08B
:104F300090E080E0F3CF80914F038111C1CF0895BD
:104F400080915003813AD9F7809154039091550391
:104F5000892BA9F78091E800877F8093E8008091F2
:104F6000E80080FFFCCF809129018093F1008091BF
:104F7000E8008E77BCCF80915003813201F7809199
:104F8000540390915503892BD1F68091E800877FD7
:104F90008093E8000E94EC298091520380932901BC
:104FA0000E949D08089580915003813241F68091BE
:104FB000E800877F8093E8000E94EC2980915303EA
:104FC0008093FA02089580915003813A09F0B7CF97
:104FD0008091E800877F8093E8008091E80080FF5F
:104FE000FCCF8091FA02C1CF84B7877F84BF0FB610
:104FF000F894A89580916000886180936000109279
:1050000060000FBE80E890E00FB6F89480936100D6
:10501000909361000FBE0E94602508950E943C2A73
:105020000E94992AE2EEF0E0808184608083789487
:105030000E94182D08958DE191E00E941124089599
:1050400080914F03853031F480914F03853019F002
:105050000E94DB2508950E94B02580914D0388238E
:1050600099F30E946D25882379F30E9496280E9467
:105070009D08EACF08950E943E280895292F3327DE
:105080002330310519F168F42130310509F444C0A9
:105090002230310509F445C090E080E030E020E0A6
:1050A00025C02132310549F122323105A9F780E4CA
:1050B00090E026ED36E061157105C1F086EB90E0D9
:1050C00020E236E06130710589F0E6CF9927813022
:1050D000910581F0009729F00297F1F6E1EBF5E0F8
:1050E00002C0EFECF5E0849190E09F01FA0131837A
:1050F00020830895EDEBF5E0F6CF89E090E025EE12
:1051000035E06115710591F389E090E02EEF35E00F
:105110006130710559F3C0CF82E190E02EE036E0B6
:10512000E5CF8BE390E023ED35E0E0CF80E189BD72
:1051300082E189BD09B400FEFDCF8091D8008F7D4A
:105140008093D8008091E00082608093E00080919D
:10515000E00081FDFCCF0895AF92BF92CF92DF9225
:10516000FF920F931F93CF93DF936C01EB018A01A2
:105170000E940B2AF82E811123C00115110539F068
:10518000F80180819181C81BD90BC80ED91EB12CA2
:10519000A12C2097A9F08091E80085FD22C0809184
:1051A000E8008E778093E80001151105A1F0F80161
:1051B00080819181A80EB91EB182A08285E0F82E6F
:1051C0008F2DDF91CF911F910F91FF90DF90CF90A6
:1051D000BF90AF9008950E940B2A8823D1F2F82E39
:1051E000EFCFF60181916F018093F1002197FFEFDE
:1051F000AF1ABF0ACECFFC0180915603909157039E
:1052000086179707A0F06115710529F49091E800C1
:105210009E779093E80090E06115710551F491112B
:1052200008C08091E80082FF34C080E00895BC018E
:10523000F2CF80914F038823C1F18530C1F1809175
:10524000E80083FD30C08091E80082FDEACF8091C4
:10525000E80080FFE1CF8091F3002091F200382F29
:105260006115710519F02830310558F091E02830AA
:10527000310509F090E02091E8002E772093E800B6
:10528000CBCF81918093F100615071092F5F3F4F27
:10529000E7CF80914F03882341F0853041F0809122
:1052A000E80083FFBECF81E0089582E0089583E0A7
:1052B0000895FC0180915603909157038617970734
:1052C000A0F06115710529F48091E8008E77809334
:1052D000E80090E06115710551F4911108C08091CA
:1052E000E80082FF35C080E00895BC01F2CF8091D4
:1052F0004F038823C9F18530C9F18091E80083FD0F
:1053000031C08091E80082FDEACF8091E80080FF03
:10531000E1CF8091F3002091F200382F61157105E3
:1053200019F02830310558F091E02830310509F0A6
:1053300090E08091E8008E778093E800CBCF849155
:105340008093F1003196615071092F5F3F4FE6CF96
:1053500080914F03882341F0853041F08091E8002F
:1053600083FFBDCF81E0089582E0089583E0089532
:10537000982F973028F08F708093E90081E008958E
:105380009093E900242F762F50E0981731F0709118
:10539000EC002091ED005091F00021FD02C09F5FD4
:1053A000E8CF3091EB003E7F3093EB003091ED0081
:1053B0003D7F3093ED003091EB0031603093EB0096
:1053C0007093EC002093ED005093F0002091EE00DC
:1053D00027FDE5CF80E008958091500387FF13C03B
:1053E0008091E80082FF06C08091E8008B7780936F
:1053F000E80004C080914F038111F2CF089580919D
:105400004F038823D9F38091E80080FFF8CF809183
:10541000E8008E77ECCF2091E4003091E50095E62E
:10542000A9012091EC00822F817020FF06C080919D
:10543000E80080FF06C080E008952091E80022FD8A
:105440001AC080914F03882389F0853089F08091BC
:10545000EB0085FD0FC02091E4003091E50042177C
:105460005307F9F29150E1F684E0089582E008953F
:1054700083E0089581E008950E94AB2A0E94B32A38
:10548000E0EEF0E0808181608083E8EDF0E08081F3
:105490008F77808319BCA7EDB0E08C918E7F8C93C1
:1054A00080818F7E808310924E0308950F931F9307
:1054B000CF93DF930E94AB2A0E94B32AC8EDD0E0BD
:1054C00088818F77888388818068888388818F7DB1
:1054D000888319BC10924F0310924B0310924D0316
:1054E00010924C0300EE10E0F80180818B7F8083E6
:1054F00088818160888342E060E080E00E94B82972
:10550000E1EEF0E080818E7F8083E2EEF0E080814A
:1055100081608083808188608083F80180818E7FB4
:105520008083888180618883DF91CF911F910F9163
:105530000895E8EDF0E080818F7E8083E7EDF0E074
:1055400080818160808384E082BF81E080934E030C
:105550000E94562A0895E8EDF0E080818E7F8083D6
:105560001092E20008951092DA001092E10008957E
:105570001F920F920FB60F9211242F933F934F93C8
:105580005F936F937F938F939F93AF93BF93EF93AB
:10559000FF938091E10082FF0BC08091E20082FFC7
:1055A00007C08091E1008B7F8093E1000E94172D5E
:1055B0008091DA0080FF19C08091D80080FF15C06B
:1055C0008091DA008E7F8093DA008091D90080FF8D
:1055D00096C080E189BD82E189BD09B400FEFDCF9E
:1055E00081E080934F030E94FD268091E10080FFBF
:1055F00019C08091E20080FF15C08091E2008E7F8B
:105600008093E2008091E20080618093E2008091CB
:10561000D80080628093D80019BC85E080934F0346
:105620000E9411278091E10084FF2BC08091E2004D
:1056300084FF27C080E189BD82E189BD89B5982FAB
:10564000917080FFFBCF8091D8008F7D8093D80030
:105650008091E1008F7E8093E1008091E2008F7E57
:105660008093E2008091E20081608093E20080916B
:105670004B03882309F449C084E080934F030E94C0
:105680001A278091E10083FF29C08091E20083FF07
:1056900025C08091E100877F8093E10082E08093C4
:1056A0004F0310924B038091E1008E7F8093E100C5
:1056B0008091E2008E7F8093E2008091E200806121
:1056C0008093E20042E060E080E00E94B82980918F
:1056D000F00088608093F0000E940E27FF91EF9108
:1056E000BF91AF919F918F917F916F915F914F91FA
:1056F0003F912F910F900FBE0F901F90189519BCDE
:1057000010924F030E940B2770CF8091E30087FD1A
:1057100093E090934F03B3CF1F920F920FB60F9267
:1057200011242F933F934F935F936F937F938F93A6
:105730009F93AF93BF93CF93DF93EF93FF93D0915A
:10574000E900DF708091EC00C82FC17080FDC0E8D7
:105750001092E9008091F000877F8093F0007894A8
:105760000E94D02B1092E9008091F0008860809315
:10577000F000CD2BCF70C093E900FF91EF91DF9146
:10578000CF91BF91AF919F918F917F916F915F91D9
:105790004F913F912F910F900FBE0F901F90189532
:1057A000AAE2B0E0E6EDFBE20C94D32D80E593E0B5
:1057B0002091F100FC012193CF01F3E088359F0790
:1057C000B9F70E943A278091E80083FF1EC18091BB
:1057D0005003909151039A3008F017C1E92FF0E07F
:1057E000EA56F14D0C948D2D803899F0823809F0ED
:1057F0000CC1809154038F70873008F006C18093EC
:10580000E9008091EB0085FB882780F91092E90080
:1058100006C080914C0390914D039111826090914C
:10582000E800977F9093E8008093F1001092F100D8
:105830008091E8008E77E5C0882309F4D3C08230D8
:1058400009F0E3C0809152038111D6C080915403C6
:105850008F702FEF280F263008F0D7C08093E90013
:105860002091EB0020FFC8C0933031F48091EB0011
:1058700080628093EB00C0C09091EB0090619093A8
:10588000EB0021E030E001C0220F8A95EAF7209377
:10589000EA001092EA008091EB008860EACF811163
:1058A000B4C0109152031F778091E3008078812B60
:1058B0008093E3008091E800877F8093E8000E9456
:1058C000EC298091E80080FFFCCF8091E3008068A4
:1058D0008093E30082E0111183E080934F0395C031
:1058E0008058823008F091C0809152039091530308
:1058F0008C3D23E09207A1F583E08A838AE28983C5
:105900004FB7F894DE01139620E03EE051E2E32F1A
:10591000F0E050935700E49120FF03C0E295EF7050
:105920003F5FEF708E2F90E0EA30C0F0C7968D9306
:105930009D932F5F243159F74FBF8091E800877FF7
:105940008093E8006AE270E0CE0101960E94FB2895
:105950008091E8008B778093E80057C0C096E7CF2E
:105960006091540370915503AE014F5F5F4F0E94E9
:105970003B28BC01892B09F448C09091E800977F2F
:105980009093E80089819A810E945929E1CF80385B
:10599000E1F58091E800877F8093E80080914B03D8
:1059A0008093F10045CF811130C090915203923025
:1059B00060F58091E800877F8093E80090934B0327
:1059C0000E94EC2980914B03882311F084E005C0EC
:1059D0008091E30087FDFACF81E080934F030E941E
:1059E000252713C080915203813079F481E09330F0
:1059F00009F080E080934D031092E9008091E80067
:105A0000877F8093E8000E94EC298091E80083FF63
:105A10000AC08091E800877F8093E8008091EB00C6
:105A200080628093EB00AA96E3E00C94EF2D08953A
:105A3000CF9380914F038823A1F0C091E900CF70EC
:105A40009091EC00892F817090FD80E8C82B109216
:105A5000E9008091E80083FD0E94D02BCF70C093B5
:105A6000E900CF910895DB018F939F930E94B12DA0
:105A7000BF91AF91A29F800D911DA39F900DB29FEA
:105A8000900D11240895AA1BBB1B51E107C0AA1F4A
:105A9000BB1FA617B70710F0A61BB70B881F991FCF
:105AA0005A95A9F780959095BC01CD01089597FB73
:105AB000072E16F4009407D077FD09D00E94432DDD
:105AC00007FC05D03EF4909581959F4F0895709501
:105AD00061957F4F0895A1E21A2EAA1BBB1BFD0101
