:100000000C9463070C949B070C949B070C9484241A
:100010000C949B070C949B070C949B070C949B07D8
:100020000C949B070C949B070C94EA140C94A61454
:100030000C94AD1E0C949B070C949B070C949B078F
:100040000C949B070C949B070C949B070C949B07A8
:100050000C949B070C94C2150C949B070C949B0763
:100060000C949B070C949B070C949B070C949B0788
:100070000C949B070C949B070C949B070C949B0778
:100080000C949B070C949B070C949B070C949B0768
:100090000C949B070C949B070C949B070C949B0758
:1000A0000C949B070C949B070C949B07000000008A
:1000B0001700150008001A001400290000000000B5
:1000C0000A0009000700160004002B0003512F004E
:1000D0000500190006001B001D00E10028002A0091
:1000E000E300E2000000E00000000000000000006B
:1000F0001C0018000C00120013002A000000000071
:100100000B000D000E000F003300340005513000CD
:1001100011001000360037003800E50004512C00B3
:10012000E700E6000000650000000000000000009D
:1001300000000000000000000000000000000000BF
:1001400000000000000000000000000000000000AF
:10015000000000000000000000000000000000009F
:10016000000000000000000000000000000000008F
:10017000000000000000000000000000000000007F
:10018000000000000000000000000000000000006F
:10019000000000000000000000000000000000005F
:1001A000000000000000000000000000000000004F
:1001B000000000000000000000000000000000003F
:1001C000000000000000000000000000000000002F
:1001D000000000000000000000000000000000001F
:1001E000000000000000000000000000000000000F
:1001F00000000000000000000000000000000000FF
:1002000000000000000000000000000000000000EE
:1002100000000000000000000000000000000000DE
:1002200000000000000000000000000000000000CE
:10023000A900010001000100010001000000000010
:10024000AA00E100E000E200E30001004700010035
:100250000100010001000100010001000100010096
:10026000010001000000010000000000000000008B
:100270004B004A0001004D0001004C00000000004E
:100280004E005000520051004F0049000100010093
:100290004800AC00AE00AB00A80046000100010021
:1002A000010001000000010000000000000000004B
:1002B0002200210020001F001E0035000000000069
:1002C0002202210220021F021E02350201002F021B
:1002D0002F002D00330033023100310201000100F4
:1002E000010001000000010000000000000000000B
:1002F000230024002500260027002E000000000017
:10030000230224022502260227022E0201003002C7
:1003100030002D023600370038003802010001009D
:1003200001000100000001000000000000000000CA
:1003300001004500440043004200010000000000AD
:100340000100410040003F003E00010001000100AB
:1003500001003D003C003B003A00010001000100AB
:10036000010001000000010000000000000000008A
:100370000100010001000100010001000000000077
:100380000100010001000100010001000100010065
:100390000100010001000100010001000100010055
:1003A00001000100000001000000000000DA1281DD
:1003B000FFD9F1DB20A4A62EAF00A0C000A1C80089
:1003C000AED580A83FD300408D142000000000006F
:1003D0000000000000000000008080C0E0F07078A5
:1003E000383C1C1E0E0E0E070707070707070707F6
:1003F000070707070707070E0E0E1E1C3C3878700C
:10040000F0E0C0808000000000000000000000005C
:1004100000000000000000000000000000000000DC
:1004200000000000000000000000000000000000CC
:1004300000000000000000000000000000000000BC
:1004400000000000000000000000000000000000AC
:10045000000000C0E0F07C3E1F0F07030180C0E0F9
:10046000F078383C1C1E0E0E070787E77F1FFFFF42
:100470001F7FE78707070E0E1E1C3C3878F0E0C090
:10048000800103070F1F3E7CF0E0C0000000000069
:10049000000000000000000000000000000000005C
:1004A000000000000000000000000000000000004C
:1004B000000000000000000000000000000000003C
:1004C000000000000000000000000000000000002C
:1004D000F0FCFF1F07010000C0F0FCFEFFF7F3B1C6
:1004E000B03030303030303078FE87010000FFFF10
:1004F00000000187FE7830303030303030B0B1F35A
:10050000F7FFFEFCF0C0000001071FFFFCF0000039
:1005100000000000000000000000000000000000DB
:1005200000000000000000000000000000000000CB
:1005300000000000000000000000000000000000BB
:10054000000000000000000000000000000000FFAC
:10055000FFFF0000000000FEFFFF0101071E78E121
:1005600081838386868C8C9898B1B7FEF8E0FFFF74
:10057000E0F8FEB7B198988C8C8686838381E17809
:100580001E070101FFFFFE0000000000FFFFFF004B
:10059000000000FFFF0000C0C030300000F0F0009D
:1005A0000000000000F0F00000F0F0C0C03030307B
:1005B00030C0C000003030F3F30000000000003015
:1005C0003030303030C0C00000000000000000FFBC
:1005D000FFFF00000000007FFFFF8080E0781E87A3
:1005E00081C1C16161313119198DED7F1F07FFFF95
:1005F000071F7FED8D191931316161C1C181871EDE
:1006000078E08080FFFF7F0000000000FFFFFF0018
:100610000000003F3F03030C0C30300000000033AB
:1006200033333333330F0F00003F3F00000000002F
:10063000000000000030303F3F303000000C0C3331
:1006400033333333333F3F0000000000000000002D
:100650000F3FFFF8E0800000030F3F7FFFEFCF8DDB
:100660000D0C0C0C0C0C0C0C1E7FE1800000FFFF2D
:10067000000080E17F1E0C0C0C0C0C0C0C0D8DCFBF
:10068000EFFF7F3F0F03000080E0F8FF3F0F000007
:10069000000000000000000000000000000000005A
:1006A000000000000000000000000000000000004A
:1006B000000000000000000000000000000000003A
:1006C000000000000000000000000000000000002A
:1006D00000000003070F3E7CF8F0E0C08001030734
:1006E0000F1E1C3C38787070E0E0E1E7FEF8FFFF79
:1006F000F8FEE7E1E0E0707078383C1C1E0F07035D
:100700000180C0E0F0F87C3E0F070300000000000D
:1007100000000000000000000000000000000000D9
:1007200000000000000000000000000000000000C9
:1007300000000000000000000000000000000000B9
:1007400000000000000000000000000000000000A9
:10075000000000000000000000010103070F0E1E52
:100760001C3C3878707070E0E0E0E0E0E0E0E0E051
:10077000E0E0E0E0E0E0E070707078383C1C1E0ED5
:100780000F0703010100000000000000000000004E
:100790000000000000000000000000000000000059
:1007A0000000000000000000000000000000000049
:1007B0000000000000000000000000000000000039
:1007C00000000000000000000000000020202020A9
:1007D000202020005343524C434B20002020202057
:1007E000202020004341504C434B2000202020205B
:1007F000202020004E554D4C434B2000556E646523
:1008000066696E65640A0041646A7573740A00461D
:10081000756E6374696F6E0A0053796D0A004E61DC
:10082000760A00436F6C656D616B2D44480A004485
:10083000766F72616B0A005157455254590A004C49
:10084000617965723A2000726576320A0A004B7946
:100850007269612000808182838485868788898A85
:100860008B8C8D8E8F9091929394A0A1A2A3A4A51E
:10087000A6A7A8A9AAABACADAEAFB0B1B2B3B4C095
:10088000C1C2C3C4C5C6C7C8C9CACBCCCDCECFD0E0
:10089000D1D2D3D40000AF00AE05010980A10185FB
:1008A0000319012AB700150126B7009501751081BB
:1008B00000C0050C0901A101850419012AA0021537
:1008C0000126A002950175108100C005010906A14D
:1008D00001050719E029E715002501950875018133
:1008E000029501750881010507190029FF150026E9
:1008F000FF00950675088100050819012905950571
:1009000075019102950175039101C009023B000236
:100910000100A0FA090400000103010100092111EE
:1009200001000122400007058103080001090401BC
:10093000000103000000092111010001223200071B
:1009400005820320000112010002000000081D8D35
:100950009D9D02000102000116034B007900720008
:10096000690061002000720065007600320000001E
:100970001003730070006C00690074006B0062006B
:1009800000000403090407087F0807003E5B4F5B73
:100990003E003E6B4F6B3E001C3E7C3E1C00183CF4
:1009A0007E3C18001C577D571C001C5E7F5E1C009F
:1009B00000183C180000FFE7C3E7FF0000182418E8
:1009C0000000FFE7DBE7FF0030483A060E0026296B
:1009D00079292600407F05050700407F05253F0057
:1009E0005A3CE73C5A007F3E1C1C0800081C1C3E79
:1009F0007F0014227F2214005F5F005F5F00060902
:100A00007F017F00006689956A0060606060600019
:100A100094A2FFA2940008047E04080010207E2007
:100A2000100008082A1C0800081C2A0808001E10CC
:100A3000101010000C1E0C1E0C0030383E38300018
:100A4000060E3E0E060000000000000000005F00E1
:100A50000000000700070000147F147F1400242A00
:100A60007F2A120023130864620036495620500082
:100A7000000807030000001C224100000041221C66
:100A800000002A1C7F1C2A0008083E08080000807D
:100A900070300000080808080800000060600000CE
:100AA0002010080402003E5149453E0000427F40AC
:100AB00000007249494946002141494D330018144C
:100AC000127F10002745454539003C4A494931000D
:100AD000412111090700364949493600464949294B
:100AE0001E00000014000000004034000000000858
:100AF000142241001414141414000041221408009C
:100B00000201590906003E415D594E007C12111246
:100B10007C007F49494936003E41414122007F41E6
:100B200041413E007F49494941007F0909090100CF
:100B30003E41415173007F0808087F0000417F411A
:100B400000002040413F01007F08142241007F4007
:100B5000404040007F021C027F007F0408107F009D
:100B60003E4141413E007F09090906003E415121B5
:100B70005E007F09192946002649494932000301D0
:100B80007F0103003F4040403F001F2040201F00E6
:100B90003F4038403F0063140814630003047804A6
:100BA00003006159494D4300007F41414100020467
:100BB00008102000004141417F00040201020400AE
:100BC0004040404040000003070800002054547893
:100BD00040007F28444438003844444428003844C6
:100BE00044287F0038545454180000087E0902003D
:100BF00018A4A49C78007F080404780000447D4079
:100C000000002040403D00007F10284400000041CB
:100C10007F4000007C04780478007C08040478009D
:100C2000384444443800FC1824241800182424189C
:100C3000FC007C08040408004854545424000404B4
:100C40003F4424003C4040207C001C2040201C00ED
:100C50003C4030403C004428102844004C90909088
:100C60007C004464544C44000008364100000000FD
:100C70007700000000413608000002010204020073
:100C80003C2623263C00000000000000404040F0CD
:100C9000F8F8FF38FFF8F83FF8F8FF38FFF8F8F0F9
:100CA00040404000000000000080C0C0C080000044
:100CB000C0C08000000080C0C000C0C0000080C074
:100CC000C00000000000C0C0C0C0C000C0C0000024
:100CD0000000000000000000000000000000000014
:100CE0000000000000000000000000000000000004
:100CF00000000000000000000000000000000000F4
:100D00000000000000C0F0F8FC3E1E0601000000DC
:100D10007F4141417F007F4141417F000080C0E031
:100D20007E5B4F5BFEC00000C000DCD7DEDEDED79E
:100D3000DC00C00000000000000000000000000017
:100D4000000000000000000000000000494949FFC9
:100D5000FFFFFFE0DFBFBF00BFBFDFE0FFFFFFFF20
:100D600049494900000000001F3F6060E0BF1F00CC
:100D70007F7F071E381E077F7F007F7F0E1F3B711E
:100D80006000000000007F7F0C0C0C007E7E007F66
:100D90007E0303007F7E03037E7E03037F7E000FBE
:100DA0003E703C063C703E0F00327B49493F7E005E
:100DB0007F7E0303001E3F69696F2600000000006C
:100DC0000000000000030F1F3F3C7870600000002F
:100DD0007F4141417F007F4141417F00307B7F78EF
:100DE00030202030787F3B0003000F7F0F0F0F7FF4
:100DF0000F000300000000000000000000000000E1
:100E000000000000000000000000000001010107D8
:100E10000F0F7F0F7F0F0F7E0F0F7F0F7F0F0F07BB
:100E200001010100000000000000000000010100BD
:100E300000000000000000000000000000000000B2
:100E400000000000000000000000000000000000A2
:100E50000000000000000000000000000000000092
:100E60000000000000000000000000000000000082
:100E70000000000000000000000000000000000072
:100E80000000000000000000000000000000000062
:100E90000000000000000000000000000000000052
:100EA0000000000000000000000000000000000042
:100EB0000000000000000000000000000000000032
:100EC00000000000000011241FBECFEFDAE0DEBFFB
:100ED000CDBF04B603FE18C08091CC069091CD061C
:100EE000A091CE06B091CF068730904BA740B04B73
:100EF00059F41092CC061092CD061092CE061092A4
:100F0000CF06E0E0F8E3099511E0A0E0B1E0EAE106
:100F1000FDE402C005900D92A239B107D9F726E091
:100F2000A2E9B1E001C01D92AC3CB207E1F70E941A
:100F3000D41E0C945F260C940000FC01AC014C5FA5
:100F40005F4F8FEF91E32191822728E030E087FF08
:100F500009C0880F892721503109C9F7E417F5071F
:100F600091F70895880FF7CFE8EDF0E080818E7F4C
:100F700080831092E2001092DA001092E100A0EE5D
:100F8000B0E08C9181608C9380818F77808319BCD5
:100F9000A7EDB0E08C918E7F8C9380818F7E8083D3
:100FA0001092A70208952091E4003091E50095E6A3
:100FB000A9012091EC00822F817020FF06C0809152
:100FC000E80080FF06C080E008952091E80022FD3F
:100FD0001AC08091B402882389F0853089F080910D
:100FE000EB0085FD0FC02091E4003091E500421731
:100FF0005307F9F29150E1F684E0089582E00895F4
:1010000083E0089581E00895EF92FF920F931F937C
:10101000CF937C018B010E94D307C82F811117C089
:101020008091E80085FD0BC08091E8008E77809369
:10103000E8000E94D307882399F3C82F08C0F7015E
:1010400081917F018093F1000150110949F78C2FA4
:10105000CF911F910F91FF90EF9008958091B6026C
:1010600087FF13C08091E80082FF06C08091E800EE
:101070008B778093E80004C08091B4028111F2CF95
:1010800008958091B4028823D9F38091E80080FF0D
:10109000F8CF8091E8008E77ECCF982F9093E900FD
:1010A000242F762F50E0891731F07091EC002091B9
:1010B000ED005091F00021FD07C09F5F973071F760
:1010C0008093E90081E008953091EB003E7F3093FA
:1010D000EB003091ED003D7F3093ED003091EB005F
:1010E00031603093EB007093EC002093ED0050934F
:1010F000F0002091EE0027FDE0CF80E00895B0E001
:10110000A0E0E5E8F8E00C94BF25C8EDD0E08881C8
:101110008F7E8883E7EDF0E080818160808384E0CA
:1011200082BF81E08093A70288818E7F888302EE50
:1011300010E0F80110821092DA0081EEC82ED12C56
:10114000F601108288818F77888388818068888300
:1011500088818F7D888319BC1092B4021092B502E9
:101160001092B3021092B20290EEE92EF12CF70128
:1011700080818B7F808388818160888342E060E00A
:1011800080E00E944D08F60180818E7F8083F80107
:10119000808181608083808188608083F701808185
:1011A0008E7F8083888180618883CDB7DEB7E8E059
:1011B0000C94DB25FC01CB012091BC023091BD02D7
:1011C0002617370790F0009729F42091E8002E7732
:1011D0002093E80040E0009751F4411108C080914D
:1011E000E80082FF31C080E00895C901F3CF20916B
:1011F000B4022223A9F12530A9F12091E80023FDB2
:101200002DC02091E80022FDEACF2091E80020FFC8
:10121000E2CF3091F3002091F200009719F02830CE
:10122000310558F041E02830310509F040E02091C7
:10123000E8002E772093E800CECF41914093F10053
:1012400001972F5F3F4FE9CF8091B402882341F08F
:10125000853041F08091E80083FFC1CF81E008959F
:1012600082E0089583E00895089508958091A90289
:101270000895A4E0B0E0EFE3F9E00C94C5258FB742
:10128000F8942091A0023091A1024091A2025091C5
:10129000A30229833A834B835C838FBF69817A8160
:1012A0008B819C812496E2E00C94E1259C01FC0159
:1012B00032968FEF90E04191461751F08F3F19F42D
:1012C000411101C0892F9F5F9630A9F78F3F09F424
:1012D0000895280F311D87FD3A95F901628308951D
:1012E00020919D0230919E022817390771F090934A
:1012F0009E0280939D02E0919B02F0919C023097A8
:1013000021F00084F185E02D09950895209199023E
:1013100030919A022817390771F090939A028093BE
:101320009902E0919B02F0919C02309721F0068097
:10133000F781E02D0995089580E00895F894E82F4D
:10134000E295EF70F0E041A18F7021E030E0B9014B
:1013500002C0660F771F8A95E2F7CB01962F909512
:10136000942391A392A1892B82A3789408959091BC
:10137000350292FF06C0282F28712830F9F4877FA4
:10138000846093FF06C0282F28712831F1F4877EEE
:1013900084612091360220FF06C0382F3871383022
:1013A000D9F4877F816021FF06C0282F287128315A
:1013B000D1F4877E816194FD877E0895282F247162
:1013C0002430F9F68B7F8860DCCF282F24712431FC
:1013D00001F78B7E8861DDCF382F3171313019F7FD
:1013E0008E7F8860E0CF282F2171213121F78E7EFA
:1013F0008861E1CFE62F672F7830C0F4E830B0F491
:1014000028E0829FC0011124680F792F711D83E0AD
:10141000660F771F8A95E1F7E60FF72FF11DEE0FA4
:10142000FF1FE455FF4F85919491089580E090E06F
:101430000895CF93DF93EC01803E910509F467C0D6
:1014400058F58133910509F4AFC090F489329105C4
:1014500009F49FC08A9709F4AEC0C130D10509F4E0
:1014600069C0CE010497813A910508F463C05BC05E
:101470008933910509F43FC082389105E1F1C597A0
:1014800009F482C0C83AD10508F09CC0C53AD1051C
:1014900020F3A497D0644EC0843E910509F459C04E
:1014A00070F4823E910509F441C0833E910509F430
:1014B00045C0CE01815E91090797A8F53BC0863EE5
:1014C000910509F451C0873E910509F452C0811578
:1014D00023E5920708F09CC0811532E5930708F0D8
:1014E000F9C0811540E2940708F07BC08F3F910559
:1014F00049F240F21FC080913502837009F018C193
:101500008091360283FF16C0C9E2D0E013C08091FB
:10151000350280FD46C09091360290FF0BC0C3EEAD
:10152000D0E084FF07C0D0E0C0E004C08091350265
:1015300082FDF5CFCE01DF91CF91089580913502E4
:1015400082FDF3C09091360290FDF2C084FFF2CF8D
:10155000EACF8091360281FFEDCF80913502C7EE50
:10156000D0E084FDE0CFE6CF8091350283FDF7CF58
:10157000E1CF8091350283FDDEC09091360291FF6C
:10158000E5CFC4EED0E0D6CF8091350285FFD2CF33
:10159000BBCF8091350285FDD1C08091360283FF9B
:1015A000C9CFC9E3D0E0C6CF8091350286FFC2CF54
:1015B000CAE2D0E0BFCF8091350286FFBBCFC1E346
:1015C000D0E0B8CFCF3BD10508F073CFC85AD0E0F8
:1015D000CC0FDD1FC65BDE4F0990D881C02DD464CF
:1015E000A9CFC11581E5D80770F4CE01C11520E55A
:1015F000D20708F05CC090548115904108F093CF59
:10160000DF70D06A97CFDC2FCC27C16FD06A92CF22
:1016100081159945A0F5C11588E5D80708F072C075
:10162000C11525E5D207C8F4C11534E5D30708F084
:1016300064C0CE018370992721E030E002C0220F00
:10164000331F8A95E2F7C695C69540E2C49FE00134
:101650001124C22BD32BDA686DCFCE0195558F3F65
:10166000910511F008F05FCF8C2F0E94B709C82FA9
:10167000D0E0DC2FCC27CC27DF71D0625BCFC11547
:101680008AE5D80708F443C0CE01905681159042F0
:1016900008F049CF8D2F8F710E94B70990E0982FE5
:1016A000882788279F719C012C2BE901E6CF837046
:1016B000992721E030E002C0220F331F8A95E2F71C
:1016C000C695C69540E2C49FE0011124C22BD32BDE
:1016D000DD6830CF8370992721E030E002C0220F0F
:1016E000331F8A95E2F7C695C69580E2C89FE00150
:1016F0001124C22BD32BDC681DCFDC2FCC27C46F69
:10170000D06A18CFDC2FCC27C06FD06A13CF8C2FB4
:101710008F700E94B70934E0D695C7953A95E1F7E6
:10172000CF70DC2FC82FD06905CFC2EED0E002CF3A
:10173000C0EED0E0FFCEC6EED0E0FCCEC5E3D0E0F8
:10174000F9CE809100028111109200020895982F25
:1017500090958091FF0189238093FF0108958091E6
:10176000F4019091C301981301C008958F5F8770B1
:10177000FACFB0E0A0E0EFEBFBE00C94BE258C01CB
:10178000E0904C02F0904D0280914A0290914B0201
:10179000E82AF92ACFE0D0E0CC24C394D12CBC2E87
:1017A000C6010C2E02C0880F991F0A94E2F78E2101
:1017B0009F21892B49F4219790F7B12C8B2DCDB720
:1017C000DEB7E9E00C94DA25B8018C2F0E94FA0903
:1017D0000E94190A019779F3F1CFCF93DF93D82FA5
:1017E000C92F0E94B90B6D2F7C2F0E94FA090E940D
:1017F000190ADF91CF910895983070F5883060F51F
:1018000028E0929FF0011124E80FF11D982F9770A6
:1018100083E0F695E7958A95E1F7EE0FFF1FEE0F4F
:10182000FF1FE356FE4F50E040E080E0219130E0A2
:10183000092E02C0369527950A94E2F721703327C6
:10184000042E01C0220F0A94EAF7822B4F5F5F4FEC
:101850004430510559F7089580E00895983088F58F
:10186000883078F528E0929FF0011124E80FF11DEF
:10187000877041E001C0440F8A95EAF783E0F6954E
:10188000E7958A95E1F7EE0FFF1FEE0FFF1FE35676
:10189000FE4F30E020E070E05191DF011197CB0165
:1018A000022E02C0969587950A94E2F78170819581
:1018B0008527842385278C932F5F3F4F2430310564
:1018C00059F70895FC0183819481892B29F0808147
:1018D000918189238F3F69F480E00895243FE1F7E7
:1018E0001CC081E0283E20F0213FB1F716C00895CA
:1018F0000895808191810E94ED0B282F92959F7011
:10190000963079F358F4925F9F70923028F781E017
:10191000203F69F318F7283EF8F608959A5FF4CF50
:10192000CF93DF93682F8091CA069091CB066A30DF
:10193000B9F42091C102845C9240622F70E00E9451
:10194000A125281B822F66E00E94EC25C82FC150DC
:1019500018F4DF91CF91089580E20E94900CF7CFA8
:101960006D30F9F49C01245C32404091C102642F37
:1019700070E0C9010E94A125481B842FA901480FCE
:10198000511D4115544018F080E030E020E0820FF6
:10199000932F911D8C539D4F9093CB068093CA0635
:1019A000D8CF26E0FC01A4ECB6E001900D922A9578
:1019B000E1F7603E08F458C026E0FC0111922A9538
:1019C000E9F7C091CA06D091CB0646E050E0BE01CF
:1019D00084EC96E00E9407269E01245C3240892B0D
:1019E00041F1C90146E0969587954A95E1F741E0B6
:1019F00050E0BA0102C0660F771F8A95E2F7CB016B
:101A00006091C2027091C302862B972BB9016B5F64
:101A10007F4FE6E076956795EA95E1F702C0440FBF
:101A2000551F6A95E2F7842B952B9093C302809300
:101A3000C2022A5F3F4F4091C102642F70E0C9018A
:101A40000E94A125481B463010F4240F311D21159A
:101A500074E0370710F030E020E02C533D4F309316
:101A6000CB062093CA0675CFF6E06F9FB001112414
:101A70006A57764F46E050E00E94FE25A2CFCF93F2
:101A8000DF93EC01FE018491811103C0DF91CF91BE
:101A900008950E94900C2196F5CF8091FF019091BE
:101AA000FE01892B8093940190910002992391F07B
:101AB000892B8093940120E086E991E0FC0130813C
:101AC000019631112F5F31E08C399307B9F721115D
:101AD0000E94A10B48E050E066EF71E084E991E0DC
:101AE0000E940726892BA9F088E0E4E9F1E0A6EF3F
:101AF000B1E001900D928A95E1F7E0919B02F0919F
:101B00009C02309731F00280F381E02D84E991E06E
:101B10000995089590E080E00E94860990E080E0B9
:101B20000E9470091092FE010E944D0D089590933D
:101B30004D0280934C020E948A0D089521E030E00E
:101B400002C0220F331F8A95E2F7209530958091CD
:101B50004C0290914D02822393230E94970D089589
:101B60009091F501809589238093F501282F2770A6
:101B700091F4282F082E000C330B9217130659F0FE
:101B80009091360292FF07C08595859585950E94B4
:101B90009E0D1092F501089521E030E002C0220F61
:101BA000331F8A95E2F780914C0290914D02822B6F
:101BB000932B0E94970D089590934B0280934A02B5
:101BC0000E948A0D08951092FF01E6E9F1E086E097
:101BD000DF011D928A95E9F70E948A0D0895AAE215
:101BE000B0E0E5EFFDE00C94C42586EB92E0FC014B
:101BF00001962091F100208322E08E3B9207B9F7F5
:101C00008091B702893009F456C0C8F4823009F4D3
:101C1000B2C0833009F481C0813071F18091E80055
:101C200083FF7CC28091B6029091B7029A3008F08F
:101C300075C2E92FF0E0EF59F94D0C94F8258A3080
:101C400009F488C08B3051F78091B602813231F7A8
:101C50008091BA029091BB02892B01F78091E80034
:101C6000877F8093E8000E942E088091B8028093BD
:101C700040010E94E30DD2CF8091B602813A71F605
:101C80008091E800877F8093E8008091BA0290916C
:101C9000BB02892B61F468E08AEA92E070E00E945E
:101CA000DA088091E8008B778093E800B7CF60E096
:101CB00090E080E0F3CF8091B602813209F0AECFA0
:101CC0008091BA029091BB02029708F0A7CF809151
:101CD000E800877F8093E8008091E80082FF18C0C9
:101CE0009091F3008091F200029731F48091F1001D
:101CF000813011F0863021F48091F1008093A902A7
:101D00008091E8008B778093E8000E942E0886CFB0
:101D10008091B4028111E0CF81CF8091B602813AE7
:101D200009F07CCF8091BA029091BB02892B09F017
:101D300075CF8091E800877F8093E8008091E8006C
:101D400080FFFCCF809140018093F1008091E800FA
:101D50008E77D9CF8091B602813209F05FCF809122
:101D6000E800877F8093E8000E942E088091B902E6
:101D70008093A80253CF8091B602813A09F04ECFEA
:101D80008091E800877F8093E8008091E80080FFE1
:101D9000FCCF8091A802D8CF803899F0823809F022
:101DA000BDC18091BA028F70873008F0B7C18093AF
:101DB000E9008091EB0085FB882780F91092E9000B
:101DC00006C08091B2029091B3029111826090910D
:101DD000E800977F9093E8008093F1001092F10063
:101DE0008091E8008E7796C1882309F484C18230FF
:101DF00009F094C18091B802811187C18091BA0223
:101E00008F702FEF280F263008F088C18093E900EB
:101E10002091EB0020FF79C1933031F48091EB00E9
:101E200080628093EB0071C19091EB009061909380
:101E3000EB0021E030E001C0220F8A95EAF7209301
:101E4000EA001092EA008091EB008860EACF8111ED
:101E500065C11091B8021F778091E3008078812BD3
:101E60008093E3008091E800877F8093E8000E94E0
:101E70002E088091E80080FFFCCF8091E30080680D
:101E80008093E30082E0111183E08093B40246C1A5
:101E90008058823008F042C14091B8025091B90296
:101EA0004C3D83E05807A1F583E08A838AE2898369
:101EB0004FB7F894DE01139620E03EE051E2E32FA5
:101EC000F0E050935700E49120FF03C0E295EF70DB
:101ED0003F5FEF708E2F90E0EA30C0F0C7968D9391
:101EE0009D932F5F243159F74FBF8091E800877F82
:101EF0008093E8006AE270E0CE0101960E94DA0861
:101F00008091E8008B778093E80008C1C096E7CF06
:101F10002091BA023091BB02852F99278330910519
:101F200009F160F48130910509F472C0029709F05B
:101F3000F5C08BE390E0EBE0F9E029C08132910538
:101F400009F45AC0829709F0E9C02115310509F456
:101F500069C02130310509F0E1C082E390E0E9E990
:101F6000F8E015C0CA0199274130B1F182309105DE
:101F700009F43AC0892B09F0D1C0E2E8F9E0E49114
:101F80008E2F90E0E2E8F9E0009709F4C7C02091B5
:101F9000E800277F2093E8002091BC023091BD0229
:101FA0008217930708F49C0140E02115310509F0E0
:101FB0003EC041113CC08091E80082FDA1CF8091DC
:101FC000B402882309F49CCF853009F499CF80911D
:101FD000E80083FFF0CF94CFE0E7F9E0E4918E2FA3
:101FE00090E0E0E7F9E0D0CFE8E5F9E0E4918E2F6A
:101FF00090E0E8E5F9E0C8CF2115310571F0213016
:10200000310509F08BC089E090E0E6E3F9E0BFCF4D
:1020100082E190E0E6E4F9E0BACF89E090E0EDE11A
:10202000F9E0B5CF80E490E0EBECF8E0B0CF809140
:10203000B402882309F464CF853009F461CF80911C
:10204000E80083FD5DCF8091E80082FDB4CF8091F0
:10205000E80080FFAACF9091F3008091F200211553
:10206000310519F08830910550F041E0089709F0EA
:1020700040E08091E8008E778093E80096CF44910D
:102080004093F1003196215031090196E8CF803814
:1020900009F044C08091E800877F8093E800809138
:1020A000B5028093F1009CCE811138C01091B80226
:1020B0001230A0F58091E800877F8093E8001093AC
:1020C000B5020E942E08112311F084E005C0809112
:1020D000E30087FDFACF81E08093B40242E061EC37
:1020E00081E00E944D0842E261EC82E00E944D08CE
:1020F0008091B40213C08091B802813079F481E0FC
:10210000933009F080E08093B3021092E90080914F
:10211000E800877F8093E8000E942E088091E80005
:1021200083FF0AC08091E800877F8093E800809158
:10213000EB0080628093EB00AA96E3E00C94E0252C
:10214000882321F00E94A70B0E944D0D089588233B
:1021500039F09091FF01892B8093FF010E944D0D72
:102160000895882391F19CEF980F913A80F4E6E965
:10217000F1E02CE931E09191891303C0DF0111975F
:102180001C922E173F07B9F70E944D0D089590E25B
:10219000980F983050F4877091E001C0990F8A959C
:1021A000EAF7892F0E94A70BEFCF9BE5980F93309A
:1021B00028F490E080E00E9486090895885A8731CB
:1021C00020F490E080E00E9470090895CF93C82F1A
:1021D0008823B1F08CEF8C0F813A00F5E6E9F1E04D
:1021E0008CE991E0DF012D91C21761F08A179B07FE
:1021F000D1F76C2F84E991E00E9456090E944D0DA1
:10220000CF9108952191C21303C0DF0111971C9251
:102210008E179F07B9F70E944D0DEBCF80E28C0F10
:10222000883068F4C77021E030E001C0220FCA9501
:10223000EAF78091FF01822B8093FF01DFCF8BE5CE
:102240008C0F833038F42C2F2452330BC9010E9499
:102250008609D6CFC85AC73198F6EC2FF0E0EE0FBA
:10226000FF1FE65BFE4F808191810E947009C8CFFD
:102270008093A4027093A6026093A5028091B40299
:10228000843001F582E08093E9008FEF9091E800BF
:10229000815095FD06C095ED9A95F1F700008111EA
:1022A000F5CF8091E80085FF0DC050E040E063E08D
:1022B00070E084EA92E00E9404088091E8008E7742
:1022C0008093E8000895BC0184E00E9438110895CD
:1022D000BC0183E00E9438110895CF93DF93D82F7B
:1022E000C92F81E08093E9008FEF9091E800815041
:1022F00095FD06C095ED9A95F1F700008111F5CF97
:102300008091E80085FF16C050E040E068E070E092
:102310008D2F9C2F0E9404088091E8008E77809377
:10232000E80088E0ED2FFC2FAAEAB2E001900D92C0
:102330008A95E1F7DF91CF910895B0E0A0E0E3EA5C
:10234000F1E10C94BD25F82EE92ED62EC72E8A0178
:1023500080912602AA24A394B12C8A3018F48AE032
:10236000A82EB12CC1E0D0E06D2D7C2D8F2D9E2D9F
:10237000F8010995811104C02196AC16BD062CF414
:10238000CDB7DEB7EAE00C94D925CC9F9001CD9F64
:10239000300D300D112490E080E045E34A95F1F7CF
:1023A0000000019682179307C1F7DECF80910B02E0
:1023B000811110C08091D80080618093D8008AE19B
:1023C0008A95F1F700C08091D90080FF0AC081E0B2
:1023D00080930B0281E090910B02913009F080E034
:1023E000089582E080930B020E94B4071092B40219
:1023F000F1CF0E94D611882359F0E0919B02F09111
:102400009C02309729F00190F081E02D0995089504
:1024100080E008950E94E30D2FEF84E39CE02150BB
:1024200080409040E1F700C0000088E19CE00FB6DA
:10243000F894A895809360000FBE90936000FFCF42
:10244000B0E0A0E0E6E2F2E10C94BF256C017B0174
:1024500064E670E088E70E94EE22EC0197FD12C06E
:1024600010E000E0F601E00FF11F849164E670E0F7
:102470000E945E23EC01892B29F40F5F1F4F0E157C
:102480001F0581F70E94E023CE01CDB7DEB7E8E05B
:102490000C94DB258091970290919802911103C0D2
:1024A00091E089270895882369F062E070E087E968
:1024B00098E00E942012892B19F0809197020895CC
:1024C0001092970280919702EBCFA5E0B0E0EBE687
:1024D000F2E10C94C525809197028D83809198023A
:1024E0008823F1F00E943909DC01CB01805A954123
:1024F000AF4FBF4F8093930290939402A0939502A5
:10250000B09396028D81811108C062E070E085E988
:1025100098E00E942012892B41F0809197028D83D0
:102520008D812596E2E00C94E12581E0809397026D
:10253000F4CFCF9384E090E00E941D26C82F82E262
:1025400090E00E941D26982F8C2FCF910895A8E02F
:10255000B0E0EDEAF2E10C94C425409114025091F0
:10256000150260911602709117022FB7F8948091AE
:10257000A0029091A102A091A202B091A3022FBF4C
:10258000841B950BA60BB70B11E084369105A105B2
:10259000B105A8F10E94D6118823B1F10E94390932
:1025A000462F572FBC014E5F5F4F6F4F7F4F4983C0
:1025B0005A836B837C838091110190911201885E14
:1025C0009D4F20911001422F50E0253010F044E043
:1025D00050E0BE016F5F7F4F0E94142682E090E0C2
:1025E0000E942B25182F882351F00E9439096093EF
:1025F0001402709315028093160290931702812F94
:102600002896E3E00C94E0250E9439096D837E83CF
:102610008F83988740912702509128026091290268
:1026200070912A028D819E81AF81B885480F591F14
:102630006A1F7B1FB8CFCF92DF92EF92FF921F935A
:10264000CF93DF930F92CDB7DEB720919702298306
:1026500080912102C0902202D0902302E0902402B7
:10266000F09025029FB7F8944091A0025091A102EA
:102670006091A2027091A3029FBF4C195D096E097F
:102680007F09443651056105710528F490E011E099
:102690002817190621F18091190190911A01885E7D
:1026A0009D4F20911801422F50E0222311F041E06C
:1026B00050E0BE016F5F7F4F0E94142683E090E0E0
:1026C0000E942B25182F882351F00E94390960930E
:1026D0002202709323028093240290932502812F7B
:1026E0000F90DF91CF911F91FF90EF90DF90CF90EF
:1026F0000895EF92FF921F93CF93DF9300D000D005
:102700000F92CDB7DEB77B0190E080E00E942B25D1
:10271000182F882309F487C080910301482F50E0C7
:10272000882311F041E050E06091040170910501AF
:10273000685E7D4FCE0105960E94142640911002DE
:102740005091110260911202709113022FB7F89408
:102750008091A0029091A102A091A202B091A30247
:102760002FBF841B950BA60BB70B84369105A105D3
:10277000B10540F489E192E00E949D079D8189178F
:1027800009F451C081E090E00E942B2581111AC00C
:1027900010E080910C0290910D02A0910E02B09178
:1027A0000F02F70180839183A283B383812F0F905F
:1027B0000F900F900F900F90DF91CF911F91FF908E
:1027C000EF90089580910B01482F50E0853010F074
:1027D00044E050E060910C0170910D01685E7D4F06
:1027E000CE0101960E94142689E192E00E949D0785
:1027F0009D818913CDCF0E94390960931002709397
:102800001102809312029093130289819A81AB8105
:10281000BC8180930C0290930D02A0930E02B093A2
:102820000F0211E0B6CF8091190290911A02A09187
:102830001B02B0911C0289839A83AB83BC83111164
:10284000E4CFA7CF68EE7EEF90E080E00E944926BB
:1028500060E082E090E00E942B2660E083E090E060
:102860000E942B2610924B0210924A0260E084E0F4
:1028700090E00E942B2664E082E290E00E942B26EA
:1028800060E085E090E00E942B2660E086E090E02A
:102890000E942B266FEF87E090E00E942B2640E0FD
:1028A00050E0BA0188E090E00E943D2660E08DE0B3
:1028B00090E00E942B2640E050E0BA0188E190E0D1
:1028C0000E943D2660E087E190E00E942B2640E0D8
:1028D00050E0BA018CE190E00E943D2670E060E09B
:1028E00080E290E00E94492640E050E0BA0188E191
:1028F00090E00E943D2640E050E0BA018FE090E079
:102900000E943D2640E050E0BA0183E190E00E9441
:102910003D260895CF93C0913602C2FB992790F9C6
:10292000981791F080FBC2F9C0933602609135028E
:1029300084E090E00E942B266C2F82E290E00E94BF
:102940002B2682E00E94B00DCF9108951F920F9226
:102950000FB60F9211242F933F934F935F936F9372
:102960007F938F939F93AF93BF93CF93DF93EF9317
:10297000FF93D091E900DF708091EC00C82FC17007
:1029800080FDC0E81092E9008091F000877F80937D
:10299000F00078940E94EF0D1092E9008091F00011
:1029A00088608093F000CD2BCF70C093E900FF9139
:1029B000EF91DF91CF91BF91AF919F918F917F91D7
:1029C0006F915F914F913F912F910F900FBE0F909C
:1029D0001F9018951F920F920FB60F9211242F93EC
:1029E0003F934F935F936F937F938F939F93AF9397
:1029F000BF93EF93FF938091E10082FF09C0809124
:102A0000E20082FF05C08091E1008B7F8093E100AE
:102A10008091DA0080FF24C08091D80080FF20C020
:102A20008091DA008E7F8093DA008091D90080FF58
:102A30009BC080E189BD82E189BD09B400FEFDCF64
:102A400081E08093B4028091A702811109C00E94A5
:102A5000B4070E947F088091E20084608093E200C6
:102A60008091E10080FF17C08091E20080FF13C0D9
:102A70008091E2008E7F8093E2008091E20080618D
:102A80008093E2008091D80080628093D80019BCC6
:102A900085E08093B4028091E10084FF29C0809199
:102AA000E20084FF25C080E189BD82E189BD09B4CF
:102AB00000FEFDCF8091D8008F7D8093D80080915B
:102AC000E1008F7E8093E1008091E2008F7E809311
:102AD000E2008091E20081608093E2008091B50283
:102AE000882309F447C084E08093B4028091B40243
:102AF0008091E10083FF27C08091E20083FF23C023
:102B00008091E100877F8093E10082E08093B402AE
:102B10001092B5028091E1008E7F8093E100809158
:102B2000E2008E7F8093E2008091E20080618093DA
:102B3000E20042E060E080E00E944D088091F000F9
:102B400088608093F000FF91EF91BF91AF919F91CA
:102B50008F917F916F915F914F913F912F910F9046
:102B60000FBE0F901F90189519BC1092B4021092CE
:102B7000A70276CF8091E30087FD02C081E0B4CF49
:102B800083E0B2CF78941F921FB61F9211248F93C7
:102B90009F93AF93BF938091A0029091A102A091C7
:102BA000A202B091A3020196A11DB11D8093A002C3
:102BB0009093A102A093A202B093A302BF91AF9100
:102BC0009F918F911F901FBE1F9018959C014FB72A
:102BD000F8948091A0029091A102A091A202B091DC
:102BE000A3024FBF821B930B08952FB7F8948091D7
:102BF000A0029091A102A091A202B091A3022FBFC6
:102C00000895FF920F931F93CF93DF93C62FD42F76
:102C1000122FFC0182818823A9F06093C0020E94D8
:102C2000F5159093BF028093BE02C77081E001C08A
:102C3000880FCA95EAF70E94A710CDB7DEB7E5E086
:102C40000C94DE258091C002681333C08091BE02CF
:102C50009091BF020E94E615883C910550F500E274
:102C60000D0FCD17A9F0C770FF24F3948F2D01C06D
:102C7000880FCA95EAF70E94A010083048F48D2FFB
:102C8000877001C0FF0C8A95EAF78F2D0E94A7106C
:102C9000812F0E94E610812F0E94B110083068F643
:102CA000D77081E001C0880FDA95EAF70E94A01082
:102CB000C4CFC77081E001C0880FCA95EAF7F6CF8C
:102CC000A5E0B0E0E6E6F6E10C94BC257C01FC0151
:102CD00083819481892B31F08081918189238F3F79
:102CE00009F0E7C32596EBE00C94D8250E94B90BB8
:102CF000182F682F89819A810E942E0C69817A8110
:102D0000812F0E94FA098C01843FFCE59F0709F49A
:102D100063C008F04AC0893D9C4509F459C028E2C7
:102D200041E00A3D8CE5180709F454C026E241EE63
:102D300061EE083D9CE5190709F451C0F701828155
:102D4000882309F4C7C31092C0020236FDE51F07AD
:102D500061F008F07AC006313CE5130708F058C06E
:102D600002308CE5180708F4DFC30E949912909393
:102D70003602809335020631ECE51E0708F083C069
:102D80000230FCE51F0708F071C060913502109118
:102D9000360284E090E00E942B26612F82E290E0D0
:102DA0000E942B260E94E30D1DC0863FECE59E0786
:102DB00059F127E245EE66EE873FFCE59F0779F083
:102DC000853F9C4509F0BACF27E245EE64EE07C087
:102DD00027E245EE65EE03C026E241EE60EEC70154
:102DE0000E9401168091F501877009F47BCFF701ED
:102DF0008281882309F476CF8091360282FF72CFD8
:102E000082E00E94B00D6ECF26E241EE62EEE7CF87
:102E1000C8018B5F9C45099708F4A7CF0631FCE5F4
:102E20001F0709F06EC38091FF018A7A91E009F4CF
:102E300090E090939C0169E2811165E384E991E05F
:102E40000E9456090E944D0DCDCF063A9DE5190707
:102E500009F48BCFC8018E5A9D45039708F485CF9E
:102E6000083A1D4509F064C30E940A12F801E350B4
:102E7000FC45809135028160E331F10568F5E55943
:102E8000F94D0C94F82504302DE5120780F40B3F22
:102E90003CE5130708F479CFF801EC5FFC45E83016
:102EA000F10508F03FC0E258F94D0C94F8250E3AB0
:102EB0008DE5180729F198F40236EDE51E0709F4AF
:102EC000B0C090913502892F8E7F90FF8160063AC5
:102ED000FDE51F0709F059CF8093350256CF0F3A11
:102EE0002DE5120709F444C0003B3DE5130709F046
:102EF0004CCF90913602892F877F93FF886003C063
:102F0000809136028860809336023FCF80913502EF
:102F10008260E2CF809135028460DECF80913502FD
:102F20008860DACF809136028160EDCF80913602E1
:102F30008260E9CF809135028061CECF80913502E9
:102F40008062CACF809135028064C6CF0E94E30DB3
:102F5000809135028068C0CF809135028C60BCCFF3
:102F6000809136028360CFCF809135028E7FB4CFBF
:102F700080913602877FC7CF809135028D7FACCF9D
:102F8000809135028B7FA8CF80913502877FA4CFB7
:102F9000809136028E7FB7CF809136028D7FB3CF7E
:102FA000809135028F7E98CF809135028F7D94CFAE
:102FB000809135028F7B90CF0E94E30D8091350286
:102FC0008F778ACF80913502837F86CF80913602BA
:102FD0008C7F99CF8091350282FB992790F921E06F
:102FE000922790FB82F990FB83F976CF809136028D
:102FF000982F909591708E7F892B90FB81F983CFCC
:103000000E94E30D90913502892F97FB87F9805834
:1030100063CF61E08EE090E00E942B26B6CE60E0A8
:10302000F9CF90913502892F8F7E94FF806154CF24
:1030300085E359C20D35100709F012CF8091360291
:1030400082FB882780F991E089270E948A1470C248
:103050000E94E30D8FEF94E3ECE081509040E0405C
:10306000E1F700C0000081E08093E00080E28093FF
:10307000D8001092C9008FE19EE40197F1F700C0DB
:10308000000087E090EBDC018093CC069093CD06A6
:10309000A093CE06B093CF0688E19CE00FB6F894DB
:1030A000A895809360000FBE90936000FFCF0E94B0
:1030B0002214DACEC6010E94FC0B182F48C284E00D
:1030C000C81609F4D3C0EC2DE850FF0B349710F468
:1030D0000E94F911DD20A9F08091F50180FD11C059
:1030E000F70112828595859585950E94CC0DC701C3
:1030F0000E9460168091F5018595859585950E94C1
:103100009E0D85E0F701DE01119601900D928A95E2
:10311000E1F709811A81C8010E94FC0BB8010E94E5
:10312000FA09E0CD99E0C91609F444C186E08C0D96
:103130008F70823040F6802FE2EF9E124AC1812FBD
:103140008F71B11043C10E94CC0DBDCF882311F007
:103150001295107F802FBB20B9F0112369F090E207
:10316000900F983010F0011109C08091FF01182BC9
:103170001093FF010E944D0D802F2DC08091FE0104
:10318000182B1093FE01F6CF0E94B110112309F401
:103190009ACF005E083010F0911004C0812F0E9479
:1031A000A70B06C010958091FE0118231093FE0115
:1031B0000E944D0D88CF2091360222FD16C0BB2003
:1031C00069F0112339F08091FF01182B1093FF0152
:1031D0000E944D0D80E00E94E61075CF80E00E94B5
:1031E000B110112309F46FCFD9CFBB20A1F090917A
:1031F0000002812F892BA11003C00E94A71063CF6A
:1032000031E0A312FACF22FF5ECF891709F45BCF1A
:103210008093000258CFA11006C00E94A10B812FFD
:103220000E94A01050CF81E0A81609F44CCFF5CF32
:10323000BB2031F095E09A1508F445CF812FDDCF02
:10324000E4E0EA1508F43FCFEACFAA2041F30933BE
:1032500049F4FFEF27EE33E0F15020403040E1F732
:1032600000C00000802F0E94B1102DCF812F8695C5
:103270008695837061F0813009F025CFC801937085
:10328000B11002C090E080E00E9470091CCFC8011C
:103290009370B11002C090E080E00E94860913CFC5
:1032A000912F937009F040C0B1100DCF402F42957F
:1032B00046954770440F440F802F8F7090E0042E86
:1032C00002C0880F991F0A94E2F730E020E004FF63
:1032D00009C02FE030E002C0220F331F4A95E2F709
:1032E000209530951695169513701230A1F0133075
:1032F00079F040914A0250914B02113039F0822B03
:10330000932B842395230E94DC0DDDCE842B952BFB
:10331000822B932BF8CF822B932B20914A02309152
:103320004B0282279327EFCF9695BB2011F0912F68
:103330009170992309F4C7CE402F42954695477066
:10334000440F440F802F8F7090E0042E02C0880F2E
:10335000991F0A94E2F730E020E004FF09C02FE053
:1033600030E002C0220F331F4A95E2F720953095D6
:103370001695169513701230A1F0133079F0409124
:103380004C0250914D02113039F0822B932B842343
:1033900095230E94970D97CE842B952B822B932BF0
:1033A000F8CF822B932B20914C0230914D02822733
:1033B0009327EFCF1F70BB2029F0812F0E94CC0DE7
:1033C000802F1BCF802F0E94A010812F0E949E0D66
:1033D0007ACE92EF991570F0E0EF9E16D1F0F1EFF2
:1033E0009F1691F0BB2009F454C0A110C5CE812FC7
:1033F0008F71A9CE23EF921601F134EF9312F2CF21
:103400008091360282FD27C0812F8F71BB20F1F29F
:103410009ACEBB2069F084E08A1508F454CE1F715F
:1034200081E090E002C0880F991F1A95E2F7BBCFA8
:1034300095E09A1508F447CEF2CF90E080E0BB20EB
:1034400009F4A7CF1F7181E090E002C0880F991F97
:103450001A95E2F79ECFBB2089F01F71812F0E9441
:10346000CC0D8091360282FF07C0E8E01E9FC001AC
:10347000112483608093F501812F65CE81E00E9445
:10348000B00DF1E0FA1508F01ECE82E00E94B00DFA
:103490001ACEAA2059F0893309F0E4CE2FEF37EE87
:1034A00083E0215030408040E1F7DACE812F8F71E8
:1034B0008DCF85E0DE01119601900D928A95E1F79E
:1034C000F701228189819A81211110CC0E94FC0B85
:1034D000182F14CC06312CE5120751F580919C0170
:1034E0008111A6CD89E2E6E9F1E02CE931E0919184
:1034F000891303C0DF0111971C922E173F07B9F7FC
:10350000A1CC80E00C353DE5130709F49ECD08F011
:1035100091CD0F3D9CE5190709F4C9CD81E00B352C
:10352000EDE51E0709F491CD01151C4509F490CD78
:10353000F7018281C080D180882309F4BBCDC60108
:103540000E94B90B182F682FC6010E942E0CB601DD
:10355000812F0E94FA090E94190A8C01982EF70106
:10356000B280A580A2949FE0A9228091F501877086
:10357000C1F0DB2CBB20B1F0812F807F803421F0A3
:1035800080E2800F883068F08091360282FF09C0A7
:1035900082E00E94B00D8091F5018770DD24D39404
:1035A0008111D12CC12EC2948FE0C822F8E0CF1631
:1035B00009F476CEFC1508F4B5CD23E02C1508F4FB
:1035C0007ECD812F807F1F7031E03C1508F0BECD8D
:1035D000803211F01295107F992009F4ECCDF1E0C2
:1035E0009F1609F425CEBB2009F42FCEAA2009F49A
:1035F00025CEC2CD1F93CF93DF938091C201807FF0
:1036000009F049C08091BF01882309F444C080912A
:10361000F401D091C3016091BD017091BE01A091F0
:10362000C001B091C101C62FC72316E0D81799F188
:1036300090E0109711F0CF3F19F401968770F6CF04
:10364000189F9001199F300D1124F901EC53FE4F82
:1036500041814713F2CF40814613EFCF42814111A0
:10366000ECCF438154814A1B5B0B483C510528F742
:103670008091C2018F7080618093C201F901E7538C
:10368000FE4F80818F70806180838DEB91E00E947E
:1036900060160E94AF0BDF91CF911F910895ABE0B0
:1036A000B0E0E5E5FBE10C94BD258C0185E0F80177
:1036B000DE01179601900D928A95E1F7F801E280FC
:1036C0008DEBA82E81E0B82E6091C0017091C101F0
:1036D0006115710509F40EC19091BD014091BE01C3
:1036E000842F89238F3F09F405C120813181C38054
:1036F000D480F090BF01F601E61BF70BFF2009F420
:10370000C4C08091C201582F507FE83CF10508F0F9
:103710009FC051116BC0FE2C431314C0921312C0F2
:10372000E11010C08F7080618093C201C5010E94BA
:1037300060168091C201F80185838F2D2B96EAE0F7
:103740000C94D925C114D10429F0822F83238F3FF3
:1037500009F0EBC080E0F82FF170DF2EE091F4016A
:103760004091C30156E080FD1CC0EE2031F38091F2
:10377000C20181608093C201F12CDFCF8E2F90E0D7
:103780005E9FF0011124EC53FE4F6181361306C099
:103790006081261303C06281E612E7CFFC013196F7
:1037A000E770E413EBCF2F8338878F8198850E94D1
:1037B000ED0B292F22952F70903260F0225F2F7031
:1037C000223078F49F7051F0F8019581907F31F4A8
:1037D000D12C0AC09F7011F08823D1F3805E88300D
:1037E000B8F3C8010E946016FD2CA7CF431306C092
:1037F000921304C0F801EE2009F461C0C8010E94D0
:10380000620C882309F1EE20F9F08091C201803228
:1038100070F02091BD013091BE013A8329831B8253
:10382000DD82CC828E83CE0101960E94601686E0F6
:10383000F801ADEBB1E001900D928A95E1F70E949D
:10384000FA1AFF24F39479CFC8010E946016F9CFC9
:1038500051110AC08DEB91E00E94601686E0F501DF
:1038600011928A95E9F788CF4313C8CF9213C6CF38
:10387000E110C4CFF8018583C8010E94601686E07C
:10388000F50111928A95E9F758CFE83CF105B8F7B0
:10389000FE2CEE20C9F243131FC092131DC080916D
:1038A000C20180FD10C0982F907F69F0F8018583D8
:1038B000903F31F0982F907F905F8F70892B858398
:1038C000C8010E94601686E0F801ADEBB1E00190FE
:1038D0000D928A95E1F731CFC8010E94620C8111E7
:1038E000A6CF8091C20181608093C201C8010E946D
:1038F000601623CFEE2009F4A7CFC8010E94620C06
:10390000F82E882309F4A0CF86E0F801ADEBB1E0F2
:1039100001900D928A95E1F78091BD019091BE01D1
:103920000E94ED0B0E94FA1A08CF81E08E2513CF7A
:10393000A7E1B0E0EEE9FCE10C94C4254B8B5C8B75
:103940006D8B7E8B8F8B61111092FE011A8A2C89F0
:103950008E899F893B893D872E876F87998B888BBE
:1039600086E0FE013D96DE01179601900D928A9544
:10397000E1F7CE0107960E944F1B882359F016E00D
:103980008091F4019091C301891349C06796E3E0E7
:103990000C94E02586E0FE013796DE011196019039
:1039A0000D928A95E1F74A855B854115510539F3FA
:1039B0007F816885862F87238F3F09F32091C3017C
:1039C00030E0C901019687709927E091F401E8176A
:1039D000190671F40E94E30D1092C3011092F401D4
:1039E00086E0EDEBF1E0DF011D928A95E9F7C7CFA4
:1039F00079836A835D834C8396E0929FD001939F85
:103A0000B00D1124AC53BE4FFE01319601900D92C2
:103A10009A95E1F78093C3010E94AF0BB0CF819FCD
:103A2000C00111248C539E4F0E944F1B882309F420
:103A3000ADCF8091F40190E0019687709927809333
:103A4000F4019ECFA0E1B0E0E8E2FDE10C94BB25DB
:103A50001A821982FE01339686E0DF011D928A9553
:103A6000E9F788E2E82E81E0F82E10E000E0CC24AF
:103A7000C394D12C28E2A22E21E0B22EF70181912D
:103A80007F018F3F09F445C0F894E82FE295EF706D
:103A9000F0E021A18F70A60102C0440F551F8A9546
:103AA000E2F7CA01922F982B91A392A180958923C6
:103AB00082A3789400C0E0E2F1E031E0912C219102
:103AC0002F3F09F470C0A22FA295AF70B0E090967E
:103AD0008C9190E02F7002C0959587952A95E2F71A
:103AE00080FD61C0832F982A330FAE16BF0639F7C9
:103AF000F701319780818F3F11F00E949E0950EAB3
:103B00005A95F1F7E1E0F0E0EC0FFD1FE00FF11F37
:103B100090820F5F1F4F0430110509F0AFCF48E0CE
:103B200050E0BE016F5F7F4F8BE292E00E9407265C
:103B30009C01892B49F088E0FE013196ABE2B2E0AE
:103B400001900D928A95E1F700913402232B69F1DF
:103B500081E0809303020E94F51590930202809306
:103B6000010280910102909102020E94E6150597E0
:103B700000F110E0075C1D4F44E050E06BE272E0A2
:103B8000C8010E940726E12C892B51F084E0EBE26A
:103B9000F2E0D80101900D928A95E1F7EE24E394CA
:103BA0001092030207C080E09ECF80910302811132
:103BB000D8CFE12C0E94D611F82EE0913402882350
:103BC00009F47DC01A8619861C861B860E2F10E00C
:103BD000075C1D4F809126028A30D8F549E753E1F2
:103BE000BE01675F7F4FC8010E949D11882309F4C1
:103BF00055C047EA52E1BE01675F7F4FC8010E948E
:103C00009D11882309F44AC04BE153E1BE01675F6F
:103C10007F4FC8010E949D11882309F43FC0109274
:103C200026028091330290E044E050E0BE01675FDD
:103C30007F4F875C9D4F0E94072621E020930A0258
:103C4000892BF1F4F12C8F2D8E296096ECE00C94E9
:103C5000D72580910402909105020E94E615843FC9
:103C6000914008F0BBCF80910A02882359F3FE01EE
:103C7000399684E0DF011D928A95E9F710920A02D5
:103C8000E0913302F0E0E75CFD4F89859A85AB85D2
:103C9000BC8580839183A283B383D5CF8091260294
:103CA0008F3F31F08F5F809326028A3008F4B9CFBE
:103CB0000E94F5159093050280930402D4CFF0E0A2
:103CC000E75CFD4F80819181A281B38180931902CD
:103CD00090931A02A0931B02B0931C0289E192E018
:103CE0000E949D078093180280901D0290901E02F2
:103CF000A0901F02B09020028091060290910702CE
:103D0000A0910802B091090288169906AA06BB067E
:103D1000D1F08092060290920702A0920802B0921F
:103D200009020E94D61181110EC00E943909861A1B
:103D3000970AA80AB90A8092270290922802A092B4
:103D40002902B0922A0280912102882319F00E9450
:103D5000651279CF0E944A1276CF1F921FB61F922A
:103D600011248F939F93AF93BF9380919F028111F2
:103D700013C08091A0029091A102A091A202B091E3
:103D8000A3024196A11DB11D8093A0029093A102B0
:103D9000A093A202B093A302BF91AF919F918F9184
:103DA0001F901FBE1F901895CDB7DEB72C970FB68A
:103DB000F894DEBF0FBECDBF85B7806885BF85B7DD
:103DC000806885BF84B7877F84BF0FB6F894A895B5
:103DD00080916000886180936000109260000FBE47
:103DE00080E890E00FB6F8948093610090936100B2
:103DF0000FBE8CE999E090939301809392010E9409
:103E0000B4070E947F088091E20084608093E20002
:103E100078948091B4028823A1F01091E9001F707A
:103E20009091EC00892F817090FD80E8182B109202
:103E3000E9008091E80083FD0E94EF0D1F70109350
:103E4000E90082E084BD93E095BD9AEF97BD809331
:103E50006E001092270210922802109229021092EE
:103E60002A0223982B9A6E9A769825E02A95F1F7E4
:103E7000000083B183FB882780F96E98769A30EA38
:103E80003A95F1F780932C010E94D61181110E947E
:103E90003E2480912C01811120C084E98093280167
:103EA00086E68093290187E980932A0186EC809336
:103EB0002B0188E0E1E4F1E0DE01119601900D9222
:103EC0008A95E1F7FE013196A0E2B1E0CE010996B4
:103ED00021912D93E817F907D9F780912C0194E0EF
:103EE000811190E09093340284E0891B8093330227
:103EF00008E211E0ECE2EE2EE1E0FE2ED8018D9119
:103F00008D018F3F11F00E949E09E016F106B1F776
:103F100000E211E0F80181918F018F3F11F00E94C2
:103F20009E09F1E008321F07A9F788E0E9E3F2E013
:103F3000DF01282F1D922A95E9F7EBE2F2E0DF017D
:103F40001D928A95E9F790E080E00E942526883E40
:103F50009E4F11F00E94221482E090E00E941D26E4
:103F6000809341020E949912909336028093350209
:103F700083E090E00E941D2690E00E94DC0D82E02C
:103F800080938E0280E88093C1020E94E8226DE057
:103F900070E08FEB93E00E942012892B09F043C060
:103FA00080918E0263E070E081FDB2C08CEB93E003
:103FB0000E942012892BB9F56DE070E08CEA93E045
:103FC0000E942012892B79F50E94390969877A8726
:103FD0008B879C87DC01CB01805A9541AF4FBF4F47
:103FE0008093930290939402A0939502B0939602CB
:103FF000E4ECF2E080E094E0DF019C011D922150AE
:104000003040E1F7F093CB06E093CA068FEF9FEFC5
:104010009093C3028093C20281E0809398028093C0
:10402000970210928F020E94D611811102C00E9445
:1040300041248DE291E090939C0280939B0260E486
:10404000C62E44244394512C8091B40200E112E125
:10405000853009F49DC00E94221D32E4E32E32E037
:10406000F32E49E3842E42E0942E5AE7A52E51E028
:10407000B52E9501B401F7019191DB018D91BD0140
:10408000D9014D919D018423B2E0EA34FB0709F484
:1040900089C0981789F30E94D611382E00E0F401E8
:1040A00011914F01D5018D915D011823F7016190A8
:1040B0007F01611629F16126D12C77247394862D16
:1040C0008721B1F03320A1F0D9820A8391E0812FBA
:1040D000872109F490E09B830E94F5158160782F79
:1040E0009D838C8349815A816B818D810E94981CAC
:1040F000D394770CF8E0DF12E2CFF7013197108309
:104100000F5F083061F60E943909DD24D3946BC03B
:1041100089EB93E04DCF8091B402843029F10E9465
:104120004A1210929F0248E150E00FB6F894A89509
:10413000409360000FBEC092600083B7817F8460AF
:1041400083BF83B7816083BF7894889583B78E7F60
:1041500083BF0FB6F894A895809160008861809322
:104160006000109260000FBE8091B302882381F03E
:104170000E94221DE9E3F2E0AAE7B1E081919D915E
:10418000892309F00FC281E492E08E179F07B1F7EF
:104190008091B402853009F4BECF0E94E30D0E94E5
:1041A000F91159CF981377CF0E94F5158C018091A2
:1041B00037029091380208171907A1F08FEF898311
:1041C0008A831B820E94F5158160782F9D838C83E2
:1041D00049815A816B818D810E94981C109338020D
:1041E00000933702D12C0E94D61180919802882327
:1041F00099F180919002909191020E94E615C297E8
:10420000D0F52091C2023091C3022115310509F089
:10421000FCC0809197028823F9F00E9439096987D0
:104220007A878B879C878091930290919402A091CA
:104230009502B091960229853A854B855C85281BAD
:10424000390B4A0B5B0BDA01C9018F3F9F4FAF4F10
:10425000BF4710F40E944A12D1100E9465120E94BA
:10426000F91190919202891709F4EECE809392028F
:104270000E943909E9CE0E94F5159093910280932E
:10428000900284EC92E09093CB068093CA060E9441
:10429000D611882309F47CC085E598E00E943F0D83
:1042A0008EE498E00E943F0D87E498E00E943F0D65
:1042B0008FE398E00E943F0D80914C0290914D0257
:1042C00020914A0230914B02822B932B292F3327C6
:1042D000E0E02115310511F0C901E8E09C0104E09E
:1042E000369527950A95E1F72115310511F0EC5F18
:1042F000C9019C01369527953695279521153105DD
:1043000011F0EE5FC90196958795892B09F0EF5F53
:104310008CEF97E0E73038F4F0E0EA57F94D0C9471
:10432000F82587E398E00E943F0D0E94F911182FAD
:104330008CEE97E010FF02C084EF97E00E943F0DE3
:104340008CED97E011FF02C084EE97E00E943F0DD4
:104350008CEC97E012FF02C084ED97E00E943F0DC5
:1043600080919802882309F454CF4BCF8FE298E0D4
:10437000DACF83E298E0D7CF8EE198E0D4CF89E11D
:1043800098E0D1CF8FE098E0CECF87E098E0CBCF18
:104390002091CA063091CB06C901845C9240245C0E
:1043A0003E4F21303440A0F020E034E0281B390B90
:1043B0004091C2025091C302ECECF3E0280F391F88
:1043C0008217930740F05093C3024093C202C8CFB4
:1043D00020E034E0EDCF6491DC01AC53BD4F7C9123
:1043E000671781F06C93BC01A6E076956795AA9556
:1043F000E1F7D20102C0AA0FBB1F6A95E2F7BD0127
:104400004A2B572B01963196DBCF80918F02811179
:1044100000CF082F10E07201082E02C0EE0CFF1C26
:104420000A94E2F7A9014E215F21452B09F446C009
:1044300090918E0290FD44C08295880F880F807401
:1044400080933B0198013695279520933E01815C2E
:1044500080933C0110923F0124E630E047E050E0B9
:1044600069E371E088E70E948E23892B09F0D1CEA1
:10447000A80196E0440F551F9A95E1F780918E02AE
:1044800080FD2CC04C535D4F04E610E020E430E08A
:1044900060E488E70E94B523892B09F0BACE0E9418
:1044A0006512E094F0948091C2029091C302E822D8
:1044B000F922F092C302E092C202ABCE8F5FA9CF85
:1044C000880F880F880F80933B0110923E01895F0F
:1044D00080933C0187E080933F01BECFEEE4F2E0A1
:1044E000DF012C2D1D922A95E9F78AE891E09A8741
:1044F000898762E871E087E0882EA985BA852D91C9
:10450000BA87A987FB012190BF01240E352E311CEB
:10451000C1018C539D4F1C01E22FF0E0E25BFD4F87
:1045200090E080E0682C681A942C082E01C0990C49
:104530000A94EAF78101A12CD801BD908D01B92020
:10454000262D2A192770722E022E000C330BBB2D3C
:1045500001C0BB0F7A94EAF77B2E31952195310982
:104560002770332701C0B6942A95EAF77B28B080DC
:104570007B287082A39428E0A212DECF01963196A8
:104580008830910579F682E991E0A985BA858A1784
:104590009B0709F0B2CF04E610E020E430E04EE4DF
:1045A00052E076CF09BD19BD09B400FEFDCF809160
:1045B000D8008F7D8093D8008091E0008260809346
:1045C000E0008091E00081FDFCCF0E94E30DE0CD92
:1045D0001092B9008CE08093B8000895B0E0A0E09C
:1045E000E4EFF2E20C94BC25B82EEB010E94F51525
:1045F0006C01EE24E394F12CC431D10560F025E088
:10460000E22EF12CCF3FDC0731F0CE0164E170E007
:104610000E94A1257B0184EAA82E94E8992E10928D
:10462000BC00A092BC000E94F515182F092F8091A4
:10463000BC0087FF0DC08091B900887F883001F1F0
:104640008091B900887F8031D9F00FEF1FEF09C04A
:10465000812F902F0E94E615E816F90640F70EEF1D
:104660001FEFCF3FDC07D9F2C6010E94E615C8173D
:10467000D907A8F6C801CDB7DEB7EBE00C94D82572
:10468000B092BB009092BC000E94F515182F092F24
:104690008091BC0087FF0AC02091B900287F283193
:1046A00011F0203491F610E000E0E4CF812F902F3C
:1046B0000E94E615E816F90658F7D1CF0F931F931D
:1046C000CF93DF93EB018093BB0084E88093BC0021
:1046D0000E94F515182F092F8091BC0087FF11C08B
:1046E0002091B900287F81E090E0283211F490E019
:1046F00080E0919581959109DF91CF911F910F9164
:104700000895CF3FDC0741F3812F902F0E94E615DB
:10471000C817D90708F78EEF9FEFEECFB0E0A0E003
:10472000E4E9F3E20C94BF256B018A01F22EE32E3B
:10473000622F732F0E94EE22AC01E6010C0D1D1DAD
:10474000C017D10711F057FF09C084E98093BC005E
:10475000CA01CDB7DEB7E8E00C94DB256F2D7E2DC6
:1047600089910E945E23AC01EBCFB0E0A0E0EBEBBF
:10477000F3E20C94BF25C62F6A017901B8010E94AB
:10478000EE229C0197FD0DC0B8018C2F0E945E2384
:104790009C01E601EC0CFD1CCE15DF0511F037FF86
:1047A00009C084E98093BC00C901CDB7DEB7E8E059
:1047B0000C94DB25B80189910E945E239C01ECCF0B
:1047C00084E98093BC0008958EE14A9B02C0815029
:1047D000E1F74A9BFECF08955A9880E28A95F1F757
:1047E0005A9A0895FC013BE03A95F1F798E020E0F1
:1047F00080E031E040E14A95F1F7880F4A9B02C022
:104800008160232742E04A95F1F7000040E14A9594
:10481000F1F7915079F790E19A95F1F799B132E07B
:104820003A95F1F7000040E14A95F1F792FB99279C
:1048300090F992272081920F90830895A1E0B0E033
:10484000E4E2F4E20C94C12519828C017C01E60EAD
:10485000F11C0E151F0541F481E09981911180E052
:104860002196E6E00C94DD250E94E423CE0101961A
:104870000E94F223F80181938F01EBCF529A5A9A4A
:10488000089552985A9AEA9AE9E6F0E080818F7C7E
:10489000808308956150770B91E001C0990F6A956C
:1048A000EAF720E031E0911108C0222391F05A9AF2
:1048B00080E28A95F1F75A980895492F482339F0F4
:1048C0005A9A232740E24A95F1F79695ECCF5A98E9
:1048D000F9CF5A98EDCFFF920F931F93CF93DF93A9
:1048E000EC018C01060F111DC017D10729F4CDB7BB
:1048F000DEB7E5E00C94DE25F9900E94EC2368E039
:104900008F2D0E944A24F0CF1F920F920FB60F9264
:1049100011240F931F932F933F934F935F936F93A4
:104920007F938F939F93AF93BF93EF93FF93CF9317
:10493000DF930F92CDB7DEB719820E94E423CE0138
:1049400001960E94F223282F082F069506950695BA
:10495000982F92959570802F8570980F892F83706E
:1049600096959695890F822787709981892B09F0F2
:104970005CC0053008F059C080E18A95F1F75A9A79
:10498000529A82E08A95F1F700C05A9888E0089F11
:1049900080011124D801A050BF4F1696ED91FC91D3
:1049A00017973097A9F0609178017091790114966A
:1049B0002D913C911597260F371F11968D919C9143
:1049C0001297680F791F13964C9113978C91099544
:1049D000F801E050FF4F6381662351F02091780188
:1049E0003091790184819581820F931F0E946B24FD
:1049F0000E94EC2380E18A95F1F75A9852985A9ACE
:104A000080E18A95F1F7F801E050FF4F608166235D
:104A100051F0209178013091790181819281820F4A
:104A2000931F0E941E240E94E4230F90DF91CF91D8
:104A3000FF91EF91BF91AF919F918F917F916F9176
:104A40005F914F913F912F911F910F910F900FBE4A
:104A50000F901F9018950F931F93CF93DF93EC0146
:104A600005970CF04CC0F894529A5A9885E08A95B4
:104A7000F1F700008C2F869585709C2F9570890F1B
:104A8000982F93708695869523E0CC0FDD1F2A958D
:104A9000E1F7890F8E01082B0E94EC2300C068E02B
:104AA000802F0E944A2480E18A95F1F752985A9A01
:104AB0004A9B1EC087E090E04A991CC0FE01E0506E
:104AC000FF4F63816623F9F02091780130917901DD
:104AD00084819581820F931F0E941E24811113C02F
:104AE000529A5A9A7894DF91CF911F910F9108951D
:104AF00000C0DECF019729F4529A5A9A789480E048
:104B0000F2CF00C0D9CF0E94E42380E28A95F1F76A
:104B10005A98529A80E18A95F1F7C050DF4F688128
:104B2000662351F0209178013091790189819A8131
:104B3000820F931F0E946B240E94EC23789481E0E3
:104B4000D2CFAA1BBB1B51E107C0AA1FBB1FA617D0
:104B5000B70710F0A61BB70B881F991F5A95A9F726
:104B600080959095BC01CD0108952F923F924F9270
:104B70005F926F927F928F929F92AF92BF92CF92ED
:104B8000DF92EF92FF920F931F93CF93DF93CDB7F6
:104B9000DEB7CA1BDB0B0FB6F894DEBF0FBECDBF6E
:104BA00009942A88398848885F846E847D848C843F
:104BB0009B84AA84B984C884DF80EE80FD800C8148
:104BC0001B81AA81B981CE0FD11D0FB6F894DEBF2B
:104BD0000FBECDBFED010895991B79E004C0991F68
:104BE000961708F0961B881F7A95C9F78095089547
:104BF000EE0FFF1F0590F491E02D0994FB01DC01FD
:104C000002C005900D9241505040D8F70895FB0125
:104C1000DC0104C08D910190801921F44150504075
:104C2000C8F7881B990B0895FB01DC0102C00190B5
:104C30000D9241505040D8F70895F999FECF92BD9A
:104C400081BDF89A992780B50895A8E1B0E042E0C7
:104C500050E00C945126262FF999FECF92BD81BDCC
:104C6000F89A019700B4021639F01FBA20BD0FB6AA
:104C7000F894FA9AF99A0FBE08950396272F0E9486
:104C80002C260E942B26252F0E942C26242F0C94A4
:104C90002C260196272F0E942C260C942B26DC0113
:104CA000CB01FC01F999FECF06C0F2BDE1BDF89A37
:104CB000319600B40D9241505040B8F70895F894E1
:104CC000FFCFCC0EF40E8E10F40E8E10270F480F6F
:104CD0008E104710541086178A178E179A179E1732
:104CE000A217A617AC17B417BC17C017C417D01754
:104CF000D417D817DC17E2170018EA179617C81749
:104D0000CC17B017E617F61709180F189121B6211E
:0A4D1000B921BC21BF21C221C52139
:104D1A000000000100000000000000040100000083
:104D2A000405000000000000010900000000000066
:104D3A0032363534C6976694F6F731330136096D43
:104D4A001135096811631134090021007F22000717
:104D5A0001343536323331F7F600E200E900EA0071
:104D6A00B500B600B700CD008301CC008A019201DC
:104D7A0094012102230224022502260227022A0282
:104D8A00B300B4006F0070001802FCFCFF2FFCFC9B
:104D9A00FF2F000810182028303838302820181023
:024DAA000800FF
:00000001FF
