:100000000C9437020C946F020C946F020C946F02E4
:100010000C946F020C946F020C946F020C946F029C
:100020000C946F020C946F020C94F0210C94C42277
:100030000C94F41C0C946F020C946F020C946F02DD
:100040000C946F020C946F020C946F020C946F026C
:100050000C946F020C947B1D0C946F020C946F0235
:100060000C946F020C946F020C946F020C946F024C
:100070000C946F020C946F020C946F020C946F023C
:100080000C946F020C946F020C946F020C946F022C
:100090000C946F020C946F020C946F020C946F021C
:1000A0000C946F020C946F020C946F023A003B00A8
:1000B0003C422A4301505400550056005F00600046
:1000C000610057005C005D005E00570059005A0057
:1000D0005B005800620062006300580001000100EC
:1000E0000100010000500100010001004A0052001F
:1000F0004B000100500001004F0001004D00510075
:100100004E000100490049004C00010001000100BF
:100110000100010001000100010001000100BC5CC0
:100120000100BF5C0100C05C0100BF5C0100BD5C60
:100130000100BE5CC25C01000100BE5C005C01000D
:100140000100010001000100010001000100C45C88
:100150000100CA5C0100C35C0100CA5C0100C55C0F
:100160000100CB5CD05C01000100CB5C00047F3F50
:100170001F643214643214783C1E1E140A052223B4
:10018000252628292A2C2D2F3032333536383A3B74
:100190003D3E4042434547494A4C4E5051535557C6
:1001A000595A5C5E6062646668696B6D6F717375E5
:1001B00077797B7D7F81838587898A8C8E909294E5
:1001C00096989A9C9E9FA1A3A5A7A8AAACAEAFB1F2
:1001D000B3B4B6B8B9BBBCBEBFC1C2C3C5C6C7C93C
:1001E000CACBCCCDCED0D1D2D2D3D4D5D6D7D7D8F6
:1001F000D9D9DADADBDBDBDCDCDCDCDCDDDDDDDD48
:10020000DCDCDCDCDCDBDBDBDADAD9D9D8D7D7D64F
:10021000D5D4D3D2D2D1D0CECDCCCBCAC9C7C6C506
:10022000C3C2C1BFBEBCBBB9B8B6B4B3B1AFAEAC4C
:10023000AAA8A7A5A3A19F9E9C9A98969492908EF7
:100240008C8A89878583817F7D7B79777573716FD0
:100250006D6B6968666462605E5C5A5957555351AC
:10026000504E4C4A4947454342403E3D3B3A383662
:10027000353332302F2D2C2A292826252322FFAA78
:100280007F5540000101010101010101010202024B
:100290000202020202020303030303030303040432
:1002A00004040404040505050505060606060607FC
:1002B0000707070708080808090909090A0A0A0BB5
:1002C0000B0B0C0C0C0D0D0D0E0E0E0F0F0F101056
:1002D00011111112121313141415151616171718DD
:1002E0001819191A1A1B1B1C1D1D1E1E1F20202148
:1002F0002222232424252626272829292A2B2C2D8F
:100300002D2E2F30313232333435363738393A3BAF
:100310003C3D3E3F404142434445464748494A4CA4
:100320004D4E4F50515354555658595A5B5D5E5F70
:10033000616264656668696B6C6D6F707273757706
:10034000787A7B7D7E8082838587888A8C8E8F9168
:10035000939596989A9C9EA0A2A3A5A7A9ABADAF92
:10036000B1B3B5B7BABCBEC0C2C4C6C9CBCDCFD17C
:10037000D4D6D8DBDDDFE2E4E7E9EBEEF0F3F5F825
:10038000FAFDFF1A034E00500032003400200055E1
:100390000034002000520047004200360000000AEE
:1003A0000359004D0044004B0000000403090409F8
:1003B000023B00020100A0FA090400000103010150
:1003C00000092111010001224000070581030800F6
:1003D00001090401000103000000092111010001CD
:1003E00022320007058203200001120100020000F2
:1003F00000084D592450060401020001050109803E
:10040000A101850319012AB700150126B70095013E
:1004100075108100C0050C0901A101850419012A8C
:10042000A002150126A002950175108100C00501EA
:100430000906A101050719E029E71500250195081E
:10044000750181029501750881010507190029FFD1
:10045000150026FF00950675088100050819012979
:1004600005950575019102950175039101C011244F
:100470001FBECFEFDAE0DEBFCDBF04B603FE18C06B
:100480008091880290918902A0918A02B0918B029A
:100490008730904BA740B04B59F4109288021092CD
:1004A000890210928A0210928B02E0E0F8E309952B
:1004B00011E0A0E0B1E0E0EAFBE402C005900D929B
:1004C000A43BB107D9F722E0A4EBB1E001C01D9233
:1004D000A838B207E1F70E94FD100C94B8250C94DF
:1004E000000081E0089581E008950E94730208955C
:1004F00008950E9478020895A5E0B0E0E2E8F2E0F5
:100500000C94192549835A833091BB0189819A81C2
:10051000311119C0662399F0222389F00E94000846
:10052000182F682F89819A810E94DD0769817A815D
:10053000812F0E946C0E2596E3E00C9435250E94D5
:10054000EE07182FF3CF0E94000869817A81F1CF5E
:10055000FC01262F408151816281738184810E9438
:100560007C02089581E00895CF93DF93EC0160E071
:100570000E94A802BE010E947902DF91CF910895E6
:100580000E94AC0F08950E94B00F089508950E9434
:10059000A8060E94C6022FEF84E39CE02150804011
:1005A0009040E1F700C0000008950E94C7020E9439
:1005B0009F1D08950E94C7020E94C31D08950F93B6
:1005C0001F93CF93DF938C0161E00E94A802EC019E
:1005D000B8010E947502811106C080E0DF91CF91C1
:1005E0001F910F910895B801CE010E94A51888238C
:1005F000A1F3B801CE010E94BA1B882371F3B801A0
:10060000CE010E94BE19882341F3B801CE010E9499
:100610002C1B882311F3B801CE010E9414178823E4
:10062000E1F2F8018281882361F0CB35FDE5DF0737
:1006300001F158F4C115ECE5DE0791F0CF3DDC4542
:1006400091F0C8010E947102C9CFCD358DE5D80760
:1006500069F090F0C83ADD45A1F70E94DA02BDCFFB
:100660000E94D502BACF0E94BA0CF7CF0E94F80BB5
:10067000E8CF0E94020CE5CF0E94060CE2CF0E9458
:10068000D11C80E00E94DA180E946D0308950E9438
:10069000F0170E9471030E94D61C089508950E94CD
:1006A0004E03089581E00895CF93C82F0E9452030E
:1006B000882319F0C0FD03C0469ACF91089546984B
:1006C000FCCF3E9A469A0895CF93C82F0E944F03BD
:1006D0008C2F0E945403CF91089580E00E94640300
:1006E00008950E94161C0E9464030895CF930E94EF
:1006F000161CC82F8091B6018C1779F0C093B601F3
:100700000E94601D6093B7017093B8018093B90196
:100710009093BA018C2F0E946403CF910895ABE0AF
:10072000B0E0E5E9F3E00C941A254F835887698718
:100730007A878B8761110E94430B1E821D8285E0A0
:10074000FE013796DE01119601900D928A95E1F730
:100750008C819D81892B61F449815A816B817C81D7
:100760008D819E810E946C0A2B96E2E00C943625C6
:1007700089819A8189238F3F79F3CE0101960E9466
:10078000B2028111E9CFF0CFFC01808191810E94FA
:1007900032080895CF93C82F8823B9F08CEF8C0FBF
:1007A000813AA8F46C2F80910001909101010E9480
:1007B0006C1C882329F08C2F0E94030B0E94640B71
:1007C0008C2F0E94FB0A0E94640BCF91089580E257
:1007D0008C0F883048F4C77081E001C0880FCA953B
:1007E000EAF70E94260BEFCFEBE5EC0FE33040F485
:1007F000F0E0E05BFE4F808190E00E942E1CE5CF90
:10080000C85AC73110F7EC2FF0E0EE0FFF1FEE5D76
:10081000FE4F808191810E94441CD7CF882339F1FB
:100820009CEF980F913A28F40E94030B0E94640BEE
:10083000089590E2980F983050F4877091E001C0CD
:10084000990F8A95EAF7892F0E942C0BEFCF9BE531
:10085000980F933028F490E080E00E942E1C0895B9
:10086000885A873120F490E080E00E94441C08956B
:100870001F93CF93DF93182FEB010E94CA03209799
:1008800039F4812F0E940E04DF91CF911F910895BA
:100890008FE99FE00197F1F700C000002197EFCFAB
:1008A00070E060E0893311F460E570E00E94380484
:1008B0000895882321F00E94260B0E94640B08955E
:1008C000882321F00E942C0B0E94640B0895B0E055
:1008D000A0E0EDE6F4E00C9413256C01D62FC72FB1
:1008E000FC011281F580F2949FE0F9220E941C0B1A
:1008F000E82E8823B9F0E12E1123A1F08C2F807F00
:10090000803421F080E28D0F8830D0F08091520247
:1009100082FF16C082E00E94C70B0E941C0B91E070
:10092000E82EE926BC2EB2948FE0B822FBE0FB153E
:1009300008F468C0EB2DF0E0E654FA4D0C94D32493
:10094000E12CF0CF0C2F0F70C07F11F00295007FCB
:10095000112399F0002359F080E28D0F883010F0B8
:10096000D11107C0802F0E94260B0E94640B8D2F8F
:1009700041C0802F0E94360BF8CF8D2F0E940E04AD
:10098000002309F43FC080E28D0F883010F0D111B0
:1009900004C0802F0E942C0B03C0802F0E943C0BB0
:1009A0000E94640B2FC00C2F0F70C07FC03211F05B
:1009B0000295007FDD2381F0D13009F463C011235B
:1009C00009F46DC0FF2009F463C0F601858180FF42
:1009D000CECF8F7085835CC08091520282FD33C080
:1009E000112359F0002329F0802F0E94260B0E942A
:1009F000640B80E00E94CA0305C080E00E940E04E0
:100A00000111C7CFEB2DE850FF0B349720F40E9463
:100A1000161C0E946403EE2089F00E94180B80FDD2
:100A20000DC0F60112820E94120B0E943B07C60104
:100A30000E946C060E94120B0E944B07CDB7DEB7D6
:100A4000E9E00C942F25112389F0F11006C00E94D3
:100A5000460B802B0E945904D5CF21E0F212F7CF2C
:100A60000E94460B802B0E944D0BCCCFF11006C08C
:100A70000E945A0B802F0E946004C4CF31E0F3160D
:100A800009F2F6CF112331F085E08F1508F4BACFC3
:100A9000802FE0CF94E09F1508F4B4CFEBCFFF2078
:100AA00049F3D93349F4FFEF27EE33E0F15020400A
:100AB0003040E1F700C000008D2F0E940E04A2CF4D
:100AC0008C2F86958695837069F0813009F09ACFD6
:100AD0008D2F9C2F9370111102C090E080E00E9436
:100AE000441C90CF8D2F9C2F9370111102C090E069
:100AF00080E00E942E1C86CF8C2F8370A1F51111EF
:100B000081CF4D2F429546954770440F440F2D2FAE
:100B10002F7030E0042E02C0220F331F0A94E2F738
:100B200090E080E0D4FF09C08FE090E002C0880F21
:100B3000991F4A95E2F780959095C695C695C37022
:100B4000822B932BC23049F058F4C13019F00E9427
:100B5000090758CF0E94000755CF0E94120752CFB5
:100B60000E94FD064FCF8695112311F08C2F8170C6
:100B7000882309F447CF4D2F429546954770440F7F
:100B8000440F2D2F2F7030E0042E02C0220F331F90
:100B90000A94E2F790E080E0D4FF09C08FE090E093
:100BA00002C0880F991F4A95E2F780959095C695E7
:100BB000C695C370822B932BC23049F058F4C130D4
:100BC00019F00E9476071ECF0E946D071BCF0E946E
:100BD0007F0718CF0E94210715CFCF70112329F06E
:100BE0008C2F0E943B078D2F35CF8D2F0E946004E4
:100BF0008C2F0E944B0706CFD23F51F160F4D03FBB
:100C0000B9F0D13F81F0112309F449C0F110AFCE02
:100C10008C2F8F7121C0D33F11F1D43FA1F7809168
:100C2000520282FD26C08C2F8F71112311F314C044
:100C3000112349F084E08F1508F4E4CE8C2F8F71D6
:100C40000E945D07DFCE95E09F1508F4DBCEF6CF5E
:100C50008C2F8F711111CDCF0E943B07D3CE112362
:100C600029F08C2F8F710E942F07CCCE0E942A076B
:100C7000C9CE112349F0CF718C2F0E943B0763E04E
:100C80008C2F0E94A90BBECE81E00E94C70BE1E031
:100C9000EF1508F0B7CE82E00E94C70BB3CEF1107B
:100CA00000CF8C2F8F71A5CF0F931F93CF93DF931E
:100CB000EC01688179818A810E943D088C010E9443
:100CC00088070E94FC06B801CE010E946704DF91EC
:100CD000CF911F910F910895CF93DF93EC018B81FA
:100CE0009C81892B29F08881998189238F3F51F438
:100CF000DF91CF910895CE010E945406CE010E944B
:100D0000B402F6CFCE010E94DF028111F4CF0E941F
:100D10001C0B882369F38A81882351F38091520246
:100D200082FFE6CF82E00E94C70BE2CF90E080E036
:100D30000E942E1C90E080E00E94441C0E94430B05
:100D40000E94640B08950E940B0B0E949606089562
:100D50000E94330B0E94A306089592959F709630CF
:100D600091F058F4925F9F70923058F4803F19F0E0
:100D700030F4883E30F481E008959A5FF4CF843FE8
:100D8000D1F380E00895883EB0F3813FD1F7F3CFEF
:100D9000FC0183819481892B29F0808191818923B1
:100DA0008F3F11F480E00895808191810E94320884
:100DB0000E94AD060895A5E0B0E0E1EEF6E00C94E7
:100DC0001A252596E2E00C943625A6E0B0E0EBEE7D
:100DD000F6E00C941A252696E2E00C943625089548
:100DE0000E94EF0608950E94F0069093CB01809335
:100DF000CA010E949606089508950E94F306089578
:100E00002091CA013091CB01822B932B0E94F306D3
:100E100008952091CA013091CB01822393230E942F
:100E2000F30608952091CA013091CB0182279327C0
:100E30000E94F30608950E94EF0608950E941B0782
:100E400008950E941E079093C9018093C8010E94D3
:100E50009606089590E080E00E942107089521E021
:100E600030E0A90102C0440F551F8A95E2F7CA017C
:100E70000E942107089521E030E002C0220F331FB5
:100E80008A95E2F78091C8019091C901822B932B3A
:100E90000E942107089521E030E002C0220F331F95
:100EA0008A95E2F7209530958091C8019091C9010B
:100EB000822393230E942107089521E030E002C09D
:100EC000220F331F8A95E2F78091C8019091C901E2
:100ED000822793270E94210708952091C80130910D
:100EE000C901822B932B0E94210708952091C801EC
:100EF0003091C901822393230E94210708952091F4
:100F0000C8013091C901822793270E9421070895C3
:100F10000895262F277091E001C0990F2A95EAF7CE
:100F200023E0769567952A95E1F7660F771F660FA0
:100F3000771FFA01E60FF71F50E040E0682F70E0DE
:100F40008191DF0111979B01042E02C036952795F0
:100F50000A94E2F7217021952827292328272C932A
:100F60004F5F5F4F4430510559F70895A82FA77080
:100F700023E0969587952A95E1F7880F991F880FAA
:100F8000991FFB01E80FF91F50E040E080E021913C
:100F900030E00A2E02C0369527950A94E2F72170B8
:100FA0003327042E01C0220F0A94EAF7822B4F5FE9
:100FB0005F4F4430510559F70895262F963068F455
:100FC000843058F434E0939FB0011124680F711DF0
:100FD0004CEB51E0822F0E9489070895963070F4FF
:100FE000843060F444E0949F900111246CEB71E034
:100FF000820F932F911D0E94B607089580E00895F7
:10100000B0E0A0E0E6E0F8E00C9413257C0100914C
:10101000C8011091C9018091CA019091CB01082BA0
:10102000192BCFE0D0E0CC24C394D12CBC2EC60128
:101030000C2E02C0880F991F0A94E2F78023912397
:10104000892B49F4219790F7B12C8B2DCDB7DEB7C2
:10105000E9E00C942F25B7018C2F0E94870E019791
:1010600089F3F3CFCF93DF93EC010E940008BE0118
:101070000E94870EDF91CF9108951F93CF93DF9346
:10108000EB019091BB01992339F0CB010E9432080A
:10109000DF91CF911F910895882369F0CB010E94C1
:1010A0000008182F682FCE010E94DD07BE01812F96
:1010B0000E94870EEDCFCB010E94EE07182FF6CFCE
:1010C0001F93CF93DF93C091CC0116E08091CD01A7
:1010D0008C1304C0DF91CF911F910895D0E01C9F25
:1010E000F0011D9FF00D1124E253FE4F408151810C
:1010F00062817381848195810E94E5062196C77083
:10110000E5CF4091FE015091FF0160910002709186
:10111000010280910202909103020E94E506089567
:101120001F93CF93DF9380910302807F09F049C022
:1011300080910002882309F444C08091CC01C091C1
:10114000CD016091FE017091FF01A0910102B0916B
:101150000202D62FD72316E0C81799F190E0109716
:1011600011F0DF3F19F401968770F6CF189F9001B8
:10117000199F300D1124F901E253FE4F41814713AD
:10118000F2CF40814613EFCF42814111ECCF438132
:1011900054814A1B5B0B483C510528F780910302A0
:1011A0008F70806180930302F901ED52FE4F8081C0
:1011B0008F70806180838EEF91E00E946C060E94A8
:1011C0006008DF91CF911F910895A1E1B0E0EBEEAF
:1011D000F8E00C9412258C0185E0F801DE011D96E3
:1011E00001900D928A95E1F7F801E2808EEFC82E0A
:1011F00081E0D82E609101027091020261157105A3
:1012000009F44EC19091FE012091FF01892F8223A4
:101210008F3F09F445C140815181A380B480F09093
:101220000002F501E61BF70BFF2009F4EAC08091EC
:101230000302382F307FE83CF10508F0A3C03111DC
:101240006DC0FE2C251316C0941314C0E11012C0FB
:101250008F708061809303020E948108C6010E9402
:101260006C0680910302F80185838F2D6196EAE078
:101270000C942E25A114B10429F0842F85238F3FCF
:1012800009F027C180E0F82FF170DF2E80FF3CC00D
:101290008091CC012091CD0136E0821315C04D879D
:1012A0005E878D859E850E943208292F22952F709A
:1012B0002230F0F0243018F59F70F1F0F80195819C
:1012C000907FD1F4D12C1EC090E0389FF001399F5F
:1012D000F00D1124E253FE4F6181651306C0608159
:1012E000641303C06281E6120FC001968770D5CFE8
:1012F0009F7011F0882331F3805E883018F3C801A5
:101300000E946C06FD2CB1CFEE2009F4AECF809187
:101310000302816080930302F12CA7CF251306C03E
:10132000941304C0F801EE2009F487C0C8010E949C
:10133000C806882319F1EE2009F18091030280325A
:1013400070F02091FE013091FF0138872F831986BC
:10135000BB86AA868C87CE0107960E946C0686E023
:10136000F801AEEFB1E001900D928A95E1F70E948D
:1013700090080E948108FF24F39477CFC8010E944F
:101380006C06F9CF311113C07A2DB98AA88A6E2D57
:1013900089890E94DB068EEF91E00E946C0686E050
:1013A000F60111928A95E9F70E948108B5CF2513BD
:1013B0000FC094130DC0E1100BC0F8018583C80164
:1013C0000E946C0686E0F60111928A95E9F74DCFEE
:1013D000C8010E94C806882389F2EE2079F2809124
:1013E0000302803208F4BBCF2091FE013091FF014F
:1013F0003A8329831B82BD82AC828E83CE01019603
:10140000ACCFE83CF10508F03EC0FE2CEE2009F41C
:10141000B5CF25132AC0941328C08091030280FD04
:101420001BC0982F907FC1F0F8018583903F31F069
:10143000982F907F905F8F70892B8583C8010E94C1
:101440006C0686E0F801AEEFB1E001900D928A954E
:10145000E1F70E94810809CF86E0F801AEEFB1E024
:1014600001900D928A95E1F700CFC8010E94C8064D
:10147000811175CF80910302816080930302C801BE
:101480000E946C06F2CE7A2DB98AA88A6E2D8989BF
:101490000E94DB0686E0F60111928A95E9F7D9CF22
:1014A000EE2009F46BCFC8010E94C806F82E8823ED
:1014B00009F464CF86E0F801AEEFB1E001900D923F
:1014C0008A95E1F78EEF91E00E94C4030E94900894
:1014D000C0CF81E08E25D7CEACE0B0E0E2E7FAE005
:1014E0000C9419254F83588769877A878B879C8747
:1014F000CE0107960E94E508882369F08A859B85BE
:10150000892B39F04F815885842F85238F3F09F02F
:101510006BC016E05FC086E0FE013796DE011196D3
:1015200001900D928A95E1F78A859B85892B89F335
:101530008F81988589238F3F61F32091CD0130E021
:10154000C9010196877099274091CC014817190667
:1015500071F40E94A8061092CD011092CC0186E091
:10156000EEEFF1E0DF011D928A95E9F7D2CF96E028
:10157000929FD001939FB00D1124A253BE4FFE0144
:10158000319601900D929A95E1F78093CD010E94DA
:101590006008BFCF819FC001112482539E4F0E94DB
:1015A000E5088823E9F0E091CC011E9FF0011124A9
:1015B000E253FE4F40815181628173818481958124
:1015C0000E94E5068091CC0190E0019687709927F2
:1015D0008093CC018091CC019091CD018913DACF19
:1015E0002C96E3E00C94352569857A858B859C855E
:1015F0000E94E5068ECF682F809100019091010135
:101600000E94A21C0895682F809100019091010111
:101610000E94A51C089580910001909101010E94F3
:10162000A81C089580910C0285958595859508954F
:1016300080910C028770089590910C02977081E060
:1016400009F480E00895809117020895909117029F
:10165000892B809317020895809590911702982303
:101660009093170208951092170208959091160210
:10167000892B8093160208958095909116029823E5
:1016800090931602089510921602089580910D020B
:10169000089508950E94490B08959091520292FF77
:1016A00008C090910D02981721F080930D020E94BE
:1016B0004A0B089580910D02882329F010920D02A3
:1016C00080E00E944A0B0895CF93DF93E0910001E0
:1016D000F0910101809117028083E0910001F09167
:1016E0000101808190911602892B808390910D02D7
:1016F000992381F0E0910001F09101018081892B13
:10170000808380910001909101010E945A1C8111F7
:101710000E945A0BC0910001D091010148E050E0B5
:1017200064E072E0CE010E945A25892B59F088E0CE
:10173000FE01A4E0B2E001900D928A95E1F7CE019E
:101740000E94231CDF91CF91089508950E94A50B5C
:1017500008959091520292FF11C098E0899F9001E4
:101760001124622B60930C020E943B0780910C02B3
:101770008595859585950E94A60B08950E943B0747
:10178000089510920C0280E00E94A60B089590919B
:101790000C028095892380930C02282F277091F4E6
:1017A000282F082E000C330B9217130659F0909136
:1017B000520292FF07C08595859585950E944B073B
:1017C0000E94C10B08959091520292FB222720F9AA
:1017D000281769F080FB92F9909352028091510290
:1017E000909152020E94340C82E00E94C70B08952F
:1017F0008091520282FB882780F991E089270E941C
:10180000E30B089581E00E94E30B089580E00E94BD
:10181000E30B08956FEF7FEF90E080E00E94A22538
:10182000089590E080E00E947E2521E0883E9E4F52
:1018300009F020E0822F089582E090E00E94702558
:10184000089583E090E00E9470250895CF9384E08E
:1018500090E00E947025C82F82E290E00E947025DF
:10186000982F8C2FCF910895CF93C92F682F84E0A4
:1018700090E00E9484256C2F82E290E00E948425F3
:10188000CF910895AB01BC018FE090E00E949625B6
:101890000895AB01BC0183E190E00E949625089574
:1018A00060E070E0CB010E94490C089560E070E0B8
:1018B000CB010E94420C0E94500C089568EE7EEF0E
:1018C00090E080E00E94A22560E082E090E00E942B
:1018D000842560E083E090E00E9484251092CB0193
:1018E0001092CA0160E084E090E00E94842564E0E8
:1018F00082E290E00E94842560E085E090E00E9412
:10190000842560E086E090E00E9484256FEF87E008
:1019100090E00E94842540E050E0BA0188E090E029
:101920000E94962560E08DE090E00E94842540E0D2
:1019300050E0BA0188E190E00E94962560E087E1DE
:1019400090E00E94842540E050E0BA018CE190E0F4
:101950000E94962570E060E080E290E00E94A2255F
:1019600040E050E0BA0188E190E00E9496250E9494
:10197000560C08950E945E0C0895682F8EE090E04A
:101980000E94842508950E94601D60932402709334
:101990002502809326029093270260932002709381
:1019A00021028093220290932302089508950895BE
:1019B0000E94D70C089508950E94DB0C089581E7DA
:1019C0009FE00E940C1C0E94D60C0E94D80C089527
:1019D00081E008950E94E80C0895089508950E94FA
:1019E000ED0C0E94EE0C08950E948D0F0E94610381
:1019F0000E94811908950E944B1D0E945C100E9454
:101A0000F40C0E94F0170E9438160E94DC0C089516
:101A1000AAE0B0E0EEE0FDE00C9412250E94721006
:101A20008AE1A82E82E0B82E750110E0F70101913D
:101A30007F01812F0E94B30F1F5F163009F440C051
:101A40000817A1F38091280281FD0E94B90F0E941E
:101A5000EA0CC82E10E0812F0E94B30F082FF50169
:101A600081915F01081731F1D02ED826F12CEE2498
:101A7000E3948D2D8E21B1F0CC20A1F0FE821F8346
:101A800091E0802F8E2109F490E098870E94541DE8
:101A90008160782F9A8789874E815F8168858A85E2
:101AA0000E948F03F394EE0CF4E0FF12E2CFF501F5
:101AB000319700831F5F163071F60E94C30C20C05F
:101AC0000813C0CF0E94541D8C0180911802909180
:101AD000190208171907A1F08FEF89838A831B82E7
:101AE0000E94541D8160782F9D838C8349815A8187
:101AF0006B818D810E948F0310931902009318024D
:101B00000E946B160E9480190E9476032A96EAE0D2
:101B10000C942E25CF93DF930E948C0EEC0181153F
:101B200022E59207E8F5811531E5930708F0A3C097
:101B3000883E910510F5803E910570F5883A910533
:101B400070F4853A910508F078C08130910521F153
:101B5000009711F1049700F5D0E0C0E01DC08F3B65
:101B60009105D0F7C85AD0E0CC0FDD1FCD5ADE4F1B
:101B70000990D881C02DD4640FC0811540E5940729
:101B800008F066C0C11580E4D80708F05EC0CE0139
:101B90009A9581159F4100F7CE01DF91CF9108956D
:101BA000811536E5930718F5811545E5940708F08A
:101BB0007BC0C11584E5D80708F071C09E01237071
:101BC00033279C2F96959695C115D34508F458C098
:101BD000C1E0D0E002C0CC0FDD1F2A95E2F730E271
:101BE000939FC0011124C82BD92BDA68D5CFC1151A
:101BF0008AE5D80778F4C11529E5D20708F05EC058
:101C0000C11538E5D30708F4A7CFDC2FCC27C06F68
:101C1000D06AC2CFCE0190568115904208F09CCF79
:101C20008D2F8F710E942E0F90E0982F8827882784
:101C30009F719C012C2BE9013FC0C55AD0E0CF57C2
:101C4000DE4FC881D0E0D064A7CFDF70D06AA4CFC8
:101C50008370992721E030E002C0220F331F8A955C
:101C6000E2F7C695C69580E2C89FE0011124C22B19
:101C7000D32BDD6891CFD82FCC27C16FD06A8CCF02
:101C8000C1E0D0E002C0CC0FDD1F2A95E2F720E2D0
:101C9000929FC0011124C82BD92BDC687DCFDC2F8B
:101CA000CC27C46FD06A78CF0E942E0FC82FD0E007
:101CB000DC2FCC27CC27DF71D0626ECF8C2F8F70BA
:101CC0000E942E0F34E0D695C7953A95E1F7CF7074
:101CD0009C2FEC01D06960CF7630B0F46430A0F472
:101CE000E72FF0E096E0899FE00DF11D1124EE0F43
:101CF000FF1FEE0FFF1FE60FF11DEE0FFF1FE45554
:101D0000FF4F85919491089580E090E008950E949E
:101D10006C0E0E948A0D089582389105B9F1B0F4D5
:101D20008133910509F47DC048F48932910509F4A5
:101D30006DC08A32910509F47BC008958533910501
:101D400009F45FC08933910509F10895833E910537
:101D5000D9F138F4803E910529F1823E910579F15F
:101D60000895863E9105D9F1873E910509F43EC05C
:101D7000843E910541F52091520221FF24C08091BB
:101D8000510284FD19C087EE90E008952091510220
:101D9000237009F05AC02091520223FF14C089E237
:101DA00090E008952091510220FD38C030915202F8
:101DB00030FF09C024FF43C090E080E008952091E7
:101DC000510222FDF7CF08952091510222FD3AC021
:101DD0003091520230FD39C024FFF5CFEDCF209174
:101DE000510223FFF0CF24FDE7CFCDCF2091510248
:101DF00023FD2EC03091520231FFEECF84EE90E0F1
:101E000008952091510225FFDECFC9CF20915102C4
:101E100025FD21C02091520223FFD5CF89E390E018
:101E2000D2CF2091510226FFCECF8AE290E00895D2
:101E30002091510226FFC7CF81E390E0089583EE01
:101E400090E0089582EE90E0089580EE90E008958D
:101E500086EE90E0089585E390E008959091510218
:101E600092FF06C0282F28712830F9F4877F8460FC
:101E700093FF06C0282F28712831F1F4877E8461F2
:101E80002091520220FF06C0382F38713830D9F423
:101E9000877F816021FF06C0282F28712831D1F467
:101EA000877E816194FD877E0895282F24712430D8
:101EB000F9F68B7F8860DCCF282F2471243101F75D
:101EC0008B7E8861DDCF382F3171313019F78E7FED
:101ED0008860E0CF282F2171213121F78E7E886123
:101EE000E1CF80E008950E940A0C08950E947210CC
:101EF0008FE39CE90197F1F700C000000E94721087
:101F000080E00E94B30F80FF04C00E94730F0E9404
:101F10009F1D08950E94760F08950E94110C811153
:101F200002C00E94BA0C0E941C0C809328020E94DE
:101F3000260C90935202809351020E948A0F0E94B5
:101F4000210C90E00E94FD068091C8019091C9018A
:101F50000E941E07089508950E94AB0F08950895EA
:101F60000E94AF0F0895E82FF0E0E75AFD4F8081FF
:101F70000895089580EA8A95F1F7089500C00895BC
:101F80000E94BA0F0895F894E82FE295EF70F0E000
:101F900031A1282F2F7081E090E001C0880F2A9591
:101FA000EAF7982F9095932391A392A1892B82A36E
:101FB00078940895CF93DF9385EF0E94C30F84EF49
:101FC0000E94C30F83E90E94C30F82E90E94C30FDE
:101FD000C8E8D1E089918F3F11F00E94C30F81E0E2
:101FE000CE38D807B9F7DF91CF910895B0E0A0E0DF
:101FF000ECEFFFE00C9414257C01162F042FC62F64
:10200000D0E0CC57DE4F28812F3F09F44CC0F89424
:10201000E22FE295EF70F0E031A12F7081E090E0C7
:1020200001C0880F2A95EAF7932F982B91A392A1CC
:102030008095892382A378940E94BE0F88E8C82ED9
:1020400081E0D82EF701A7014A5F5F4FF12CE02E07
:10205000E094D6019D916D0181919F01215031093C
:102060009F3F31F1692F62956F7070E0DB019096B0
:102070006C9170E09F7002C0759567959A95E2F734
:1020800060FD16C0802BD9018C93FF24F394E417D4
:10209000F507F9F688818F3F11F00E94C30F6F2D6D
:1020A000812F0E94C00FCDB7DEB7E8E00C94302539
:1020B0008E21D9018C93EBCF0E94DA0F86E0E9E5FF
:1020C000F2E0DF01982F1D929A95E9F7E3E5F2E03F
:1020D000DF011D928A95E9F786E00E94B1100E9407
:1020E000C0020895A6E0B0E0E8E7F0E10C94162500
:1020F0008E010F5F1F4F86E0F80111928A95E9F774
:10210000F12CEE24E3944E2D6F2DC8010E94F60FA2
:10211000F394EE0CF4E0FF12F6CF46E050E0B80185
:1021200083E592E00E945A2521E0009709F420E01F
:10213000892B41F086E0F801A3E5B2E001900D9211
:102140008A95E1F746E069E572E083E592E00E9456
:10215000B210182F0E94C302812F2696E6E00C943D
:1021600032250895CF92DF92EF92FF920F931F9343
:10217000CF936C017B01042F222349F081E08093EF
:102180002B020E94541D90932A0280932902C09131
:102190002B02C1110AC0C0E08C2FCF911F910F916B
:1021A000FF90EF90DF90CF90089580912902909159
:1021B0002A020E946C1D059770F310E0A801B60179
:1021C000C7010E945A25892B41F0A801B601C70119
:1021D0000E94672510922B02DFCFC0E0FBCF0E9448
:1021E000461F0E94FB0C0E94531F08950E94581F17
:1021F0000E94080D0E94721F08950E94ED1C0E940B
:102200002C1F0E94DF0C0E94EF100E94F6100E940B
:10221000EF0CFBCFEF92FF920F931F93CF93DF93BF
:10222000EB01E82FD1110EC0442321F0F0E0ED576F
:10223000FD4FE4916E2F7E2F8E2FCDB7DEB7E6E0F7
:102240000C9432250D2F10E0282F30E0442329F084
:102250002D573D4FF901249130E0F6E0CF9FC001AA
:102260001124EFEFF0E0BF010E948924AB018C2F15
:1022700090E0880F991FA5E5A49FB001A59F700D60
:102280001124861B970B982F990F980FBF01601B85
:10229000710B629FD001639FB00D729FB00D11242E
:1022A0008B2F9D9FB0011124672F7727EF01C61B4D
:1022B000D70BBE01629FE001639FD00D729FD00DCE
:1022C00011247F01E91AF108E09EB001E19E700D32
:1022D000F09E700D1124672F7727E61BF70BE29F06
:1022E0008001E39F100DF29F100D1124E12F722F3A
:1022F0004230510599F048F44115510569F04130DB
:10230000510581F0EB2F8D2F07C04430510569F046
:1023100080F046305105B1F76E2F8FCFE22F7B2F23
:10232000812FFACFE22F7D2FF7CFEB2F822F712F46
:10233000F3CF7B2F822FED2FEFCF41E00E940A11C8
:10234000089508950E949D110895CF93DF93762FED
:10235000E901682F842F0E94A211798368838A8300
:10236000DF91CF91089580915F02982F9E7F29F48D
:102370008170826080935F0208958A34E8F38170EF
:102380008864F8CF88E090E00E9478250895CF9285
:10239000DF92EF92FF926B017C010E94B311B701B3
:1023A000A60188E090E00E949625FF90EF90DF90D4
:1023B000CF900895EFE5F2E083E0808311828FEF04
:1023C00082838383148260817181828193810E94E0
:1023D000C711089580915F0280FF02C0869508951D
:1023E00080E0089590916302933018F49F5F90937A
:1023F0006302882351F060915F02709160028091C6
:102400006102909162020E94C711089581E00E94CA
:10241000F211089590916302992319F091509093CD
:102420006302882351F060915F0270916002809195
:102430006102909162020E94C711089581E00E949A
:102440000A12089570E00E949219089560910601A1
:1024500080915F0280FF0BC08091050123E0829F85
:10246000C00111248C599D4F0E9422120895809121
:1024700007019091080123E0829FF0011124EC599B
:10248000FD4F891748F71182108212828F5F3396B1
:10249000F8CF90915F0290FF0EC0909107012091BC
:1024A000080133E0939FF0011124EC59FD4F92177E
:1024B00018F00E94261208958183608342839F5FF3
:1024C0003396F5CFA3E0B0E0E8E6F2E10C941A25EC
:1024D00090915F0290FF0AC09E012F5F3F4F0E94C4
:1024E000A5114B8169818A810E9449122396E2E0FD
:1024F0000C943625CF93DF93EC01EC81F0E0E258A9
:10250000FE4F4491EFE5F2E0628181810E94621208
:102510008C818F5F8C83DF91CF910895CF93DF9370
:10252000EC01EFE5F2E0438162818C810E9462124E
:102530008C818F5F8C83DF91CF910895A3E0B0E011
:10254000E4EAF2E10C9418258C0180912C028111AF
:102550000AC09E012F5F3F4F4FEF6FEF0E94A51102
:102560008A8180932C02F8016481613069F0809146
:102570002C0240E0662361F040E0623011F44091AB
:102580002C0280E060E004C060912C0240E080E01A
:102590000E944912F801848190E0019663E070E0A6
:1025A0000E949D2484832396E4E00C943425A3E0C8
:1025B000B0E0EDEDF2E10C941325082FD62EE42EB9
:1025C000C22E90915F0290FF29C0E92FE695AE2FB1
:1025D000B0E0A257BE4F8C91809336029E7F92301E
:1025E00009F59E012F5F3F4F802F0E94A5114B815F
:1025F00069818A810E94491200936002D09261022F
:10260000E0926202CC2051F060915F027091600212
:1026100080916102909162020E94C7112396E9E0C5
:102620000C942F25823019F4E0906202E5CF8630B9
:1026300019F400916002E0CF8930D9F38931E1F6D5
:10264000E9516E2F6170B62EE695F0E0E258FD4F2D
:102650001491F12C60910901F61618F00E942612CF
:10266000CBCFF19EC001112470E00E948924802FFD
:10267000B11014C0860F20910701622F6F0D7727CC
:10268000771F9B01220F331F260F371F2C593D4FF9
:102690004E2D6D2D0E94A511F394DCCF861BEBCF40
:1026A000EFE5F2E09181282F4381628188E0890F74
:1026B0000E94D712089581E00E9450130895EFE51B
:1026C000F2E09181282F4381628188EF890F0E9477
:1026D000D712089581E00E945F130895EFE5F2E0BC
:1026E000628121E1620F08F46FEF282F438181811D
:1026F0000E94D712089581E00E946E130895EFE5BD
:10270000F2E0628121E1621B08F460E0282F43813E
:1027100081810E94D712089581E00E947F1308955D
:10272000EFE5F2E0438121E1420F08F44FEF282F5B
:10273000628181810E94D712089581E00E949013E6
:102740000895EFE5F2E0438121E1421B08F440E007
:10275000282F628181810E94D712089581E00E9412
:10276000A113089520E00E94D7120895EF92FF92DE
:102770001F93CF93DF93EC0110E0EE24EA94F12C49
:1027800060910901161770F00E9426129A818C81BF
:1027900090FF27C08F5F8C83DF91CF911F91FF90B7
:1027A000EF90089520910701422F410F5527551FA3
:1027B000CA019A01220F331F280F391F2C593D4F90
:1027C00070E0C7010E949D24962F8C814091620287
:1027D00060916102199F800D11240E94A5111F5F55
:1027E000CFCF8150D8CFB0E0A0E0E9EFF3E10C9477
:1027F0001225FC0182810FEF80FF01E010E046E02E
:10280000A42E80910901181798F00E942612809139
:102810002E02013009F04FC0811102C080910901E0
:10282000815080932E02CDB7DEB7EAE00C942E25BE
:10283000C0910701C12ED12CCC0DDD2DD11DCE01B3
:10284000880F991FC80FD91FCC59DD4F19821882E4
:102850001A8234E0E32EF12CB12C80912E028B0DE4
:1028600087301CF16A2D0E947B24892F082E000CD2
:10287000990BC816D90691F4809162028E9DA00131
:102880008F9D500D112455954795559547959E015F
:1028900060916102809160020E94A511B00EF1E08A
:1028A000EF1AF108D1F61F5FACCF87FFDFCF909111
:1028B0000901890FDBCF90E001966091090170E07A
:1028C0000E949D24AECF0F931F93CF93DF938091EF
:1028D00007019091080123E0829FF0011124EC5937
:1028E000FD4F891740F1C0E0D3E060910901C617A0
:1028F00040F10E9426122091030180912D02820F47
:1029000080932D0290910401920F90930401191667
:1029100054F4082E000C990B409109014150550BBD
:10292000841795071CF0219520930301DF91CF9127
:102930001F910F9108951182108212828F5F33963A
:10294000D0CF0C2F10E070E0C8010E949D24209190
:102950000701820F482F50E020912D02022E000C1B
:10296000330B02171307BCF020910401022E000C58
:10297000330B201731077CF08D9F900111242C59C7
:102980003D4F4091620260916102809160020E941D
:10299000A511CF5FAACFFA01EE0FFF1FE40FF51FBD
:1029A000EC59FD4F118210821282F3CFB0E0A0E00B
:1029B000ECEDF4E10C941025EC014C81042F10E0B7
:1029C0009801D8010E94E1249B01AC010E94F724E8
:1029D0004B015C01E0E2F0E0E01BF10BA5E5B0E0AB
:1029E000AC019B010E94F7246B017C019F01DF0178
:1029F0000E94D9249B01AC010E9402259B01AC01DD
:102A0000280D391D4A1D5B1DC701B6010E94B12466
:102A1000F22E822F90E039E23F1520F143E0249F0F
:102A20009001112435952795122F109500E085E52A
:102A3000E82EEF1880910901081718F10E9426125C
:102A40009C8181E0992319F0903219F48FEF8093E3
:102A5000020180910201890F8C83CDB7DEB7ECE0D3
:102A60000C942C2525E530E0B901681B790B9B01FE
:102A7000220F331F260F371F37FFD4CF2F5F3F4F53
:102A8000D1CF8E2D01FD8F2D20910701622F600F78
:102A90007727771F9B01220F331F260F371F2C59D3
:102AA0003D4F412F609161020E94A5110F5FC2CF7F
:102AB0000F931F93CF93DF93EC0110E000E0909110
:102AC00009019017110609F06CF40E9426128C81FE
:102AD00090E00196817099278C83DF91CF911F91AF
:102AE0000F91089520910701A801420F511D9A01ED
:102AF000220F331F240F351F2C593D4F4C816091FD
:102B000061028091600296959017110651F04CF089
:102B1000442349F0409162020E94A5110F5F1F4FAC
:102B2000CECF4423B9F340E0F7CFEFE5F2E0808168
:102B30008E7F808360817181828193810E94C71121
:102B4000109237022FEF80E792E0215080409040B2
:102B5000E1F700C000000E942612089560915F0214
:102B6000669570E04BE050E08AE091E00E944D25D0
:102B7000892B19F481E0809337020E94541D9093B1
:102B8000300280932F02089590915F0290FF2BC036
:102B90009170811129C0926090935F02662351F079
:102BA00060915F0270916002809161029091620277
:102BB0000E94C71160915F02669570E04BE050E0A3
:102BC0008AE091E00E944D25892BA9F010923702EE
:102BD00081E08093320240916202609161028091B3
:102BE00060020E94B2130895853210F09864D4CF29
:102BF000880F982BD1CF0E94AE15EACF682F909105
:102C00005F02969581E0890F853208F081E00E948D
:102C1000C415089581E00E94FE150895682F9091D3
:102C20005F0296958FEF890F09F484E20E94C41524
:102C3000089581E00E940E16089561E00E94C41577
:102C40000895EFE5F2E080818160808386950E949F
:102C50001D16089580915F0280FF03C00E949515A4
:102C600008950E942116089560E00E94C4150895F9
:102C70008091350281112EC00E94110C811104C077
:102C80000E94BA0C0E94DA110E94C21160935F0286
:102C90007093600280936102909362026E7F61F490
:102CA0000E94DA110E94C21160935F027093600269
:102CB00080936102909362020E94B31110923702D6
:102CC00080915F0280FF03C086950E94341681E0E8
:102CD0008093350208950F931F93CF93DF938091D4
:102CE00037028823B9F180913602E0915F02E695C0
:102CF000E81BE0933102823091F5F0E0E658FE4F98
:102D0000E491CE2FD0E00AE712E1809132028823CD
:102D100061F0109232020E94541D90933002809311
:102D20002F0210923402109233020E94541DE0913F
:102D30002F02F09130028E1B9F0B8F3F9F4750F464
:102D4000EC0FFD1FF0933002E0932F028FE292E030
:102D5000F8010995DF91CF911F910F910895863069
:102D600049F4F0E0E958FE4FE491CE2FD0E00EE8B0
:102D700012E1CBCF893051F4E695F0E0EC58FE4FEC
:102D8000E491CE2FD0E006EB13E1BFCF8F3051F4AA
:102D9000E695F0E0EF58FE4FE491CE2FD0E003EF40
:102DA00013E1B3CF853149F4F0E0E259FE4FE491ED
:102DB000CE2FD0E003E614E1A8CFC8E2D0E006EDC4
:102DC00014E1883109F4A1CF833239F4ECE6F1E063
:102DD000C591D4910EE912E198CFC4EFD1E008E596
:102DE00015E1843209F491CFC0EDD7E001EA11E199
:102DF0008CCFFA01811101C0FB0109950895CF9391
:102E0000DF93C82FD62F0E94EA118C1748F00E943A
:102E1000EA118D1728F40E940A16DF91CF910895C8
:102E20008C2F0E941D16F9CF1F93CF93DF93EC01D7
:102E3000FB01128111117EC00E94230B8272CD3CD6
:102E4000FCE5DF0709F49CC008F041C0C73CECE595
:102E5000DE0709F481C0D8F4C43C9CE5D90709F425
:102E600071C030F4C33CDC4509F469C011E062C0B4
:102E7000C53C9CE5D90709F46AC04AE653E16BE515
:102E800073E1C63CDC4591F70E94F91653C0CA3C79
:102E9000FCE5DF0709F46AC068F4C83CECE5DE072E
:102EA00009F45FC04BE753E16CE873E1C93CDC45D2
:102EB00059F3DCCFCB3C9CE5D90709F45CC04EE16B
:102EC00052E166E072E1CC3CDC45F1F2CFCFC23D8D
:102ED000FCE5DF0709F465C098F4CF3C9CE5D90711
:102EE00009F457C008F451C0C03DFCE5DF0709F400
:102EF00055C0C13DDC4509F0B9CF6EE089E04BC05B
:102F0000C53D9CE5D90709F452C058F4C33DFCE522
:102F1000DF0709F449C0C43DDC4509F0A7CF88E1CB
:102F200035C0C63D9CE5D90709F444C0CE35DD4522
:102F300009F09CCF812FDF91CF911F9108950E94BE
:102F40002A16F8CF49E156E16AE076E19DCF4AE0E2
:102F500056E169E176E198CF4BE553E16AE673E12A
:102F600093CF4CE853E16BE773E18ECF4EEA53E128
:102F70006DE973E189CF4DE953E16EEA73E184CFE6
:102F800046E052E16EE172E17FCF81E00E941D16C2
:102F9000D1CF65E082E00E94FF16CCCF68E086E0EA
:102FA000FACF64E18FE0F7CF67E185E1F4CF62E229
:102FB00089E1F1CF83E2EACF86E090E00E947025BC
:102FC0000895682F86E090E00E9484250895E6E742
:102FD000F2E080818470896F80830E94E1170895F8
:102FE0000E94110C811104C00E94BA0C0E94E717C4
:102FF0000E94DC1780937602982F917080FF04C0A6
:10300000982F969596959695892F0E94DA1808958F
:1030100080917602982F987F983F19F0885F80936F
:103020007602809176028160809376020E94E11799
:10303000809176028695869586950E94DA18089585
:1030400080917602982F987F79F08850809376024D
:10305000887F91E009F490E08091760290FB80F9FE
:10306000809376020E94E11780917602869586957C
:1030700086950E94DA1808958091760280FD13C02B
:10308000816080937602813019F489E08093760222
:10309000809176020E94E11780917602869586954E
:1030A00086950E94DA1808958091760280FF08C004
:1030B0008E7F809376020E94E11780E00E94DA18EA
:1030C00008958091760280FF03C00E9454180895ED
:1030D0000E943C18089580917602885F8093760262
:1030E000887F91E009F490E08091760290FB80F96E
:1030F000809376020E94E1178091760286958695EC
:1031000086950E94DA180895803208F08FE1909138
:1031100076029770282F220F220F220F922B909366
:103120007602987F21E009F420E09091760220FB5E
:1031300090F9909376020E94DA1808950E948418FC
:10314000809176020E94E11708959C01FB01828123
:10315000882349F12E3BFCE53F07C9F040F42C3BA6
:10316000ECE53E0769F02D3B3C4579F00895203CA5
:103170009CE5390791F070F0213C3C4589F00895B9
:103180008FE10E949E1880E0089580E0FACF0E94AF
:103190002018F9CF0E940818F6CF0E946118F3CFCB
:1031A0000E946B18F0CF81E00895279A2F98089518
:1031B0002F9808958F929F92AF92BF92EF92FF92B5
:1031C0000F931F93CF93DF93C82F8032C0F58111E7
:1031D00037C080918000877F809380000E94D8183C
:1031E000A0918600B09187002C2F30E00E94E1244E
:1031F0002FE130E040E050E00E94B12489019A01C3
:1032000080918600909187006CE070E00E94892494
:1032100060177107D8F0C80169E070E00E94892446
:1032200070938D0060938C00DF91CF911F910F916F
:10323000FF90EF90BF90AF909F908F900895CFE157
:1032400080918000886080938000CACF8091860042
:1032500090918700E0908600F0908700E0918600D2
:10326000F0918700C6E0D0E0BE010E948924060FDD
:10327000171F211D311D4801590185E0880C991C3B
:10328000AA1CBB1C8A95D1F7C701BE010E948924E4
:103290009F0150E040E0260F371F411D511DC50121
:1032A000B4010E94B12449015A01E0918600F091D5
:1032B0008700CA01B9010E946B249B01AC01DF01A8
:1032C0000E94F7249B01AC01C501B4010E946B244C
:1032D0002FE096958795779567952A95D1F7009178
:1032E00086001091870030E020E0061717072807B6
:1032F000390708F095CF609186007091870090CFD4
:1033000008950E94D5188AE08093800089E1809317
:1033100081008FEF9FEF90938700809386000E943B
:10332000F01708956A9A4EB14B7F5EB15460EFB7C3
:10333000F8949B01220F331F260F371F280F391FC8
:103340002817390741F4EFBF8FE594E00197F1F7B3
:1033500000C000000895DC016D91CD0178E05EB9F8
:10336000000000C067FF4EB9660F000000C000C03B
:1033700000C04EB900C07A9591F7E2CFCF93DF93AA
:10338000EC01FB018281882309F464C1C430FDE5AE
:10339000DF07E0F5CB3F9CE5D90730F49E012250D2
:1033A0003C4524313105D8F50E94260C90935202F9
:1033B00080935102C231ECE5DE0709F41FC108F029
:1033C0006EC0C9308CE5D80709F4F2C008F03FC0E0
:1033D000C530ECE5DE0709F4DBC058F5C3308CE5F9
:1033E000D80709F4CDC008F0CFC0809151028160A8
:1033F000C230DC4509F4AEC0809151029091520276
:103400000E94340C0E94A80680E009C0C63AEDE58F
:10341000DE0751F238F4C2369DE5D90729F2DF9173
:10342000CF9108959E012E5A3D4523303105B8F7BE
:10343000BBCF809151028062C730FCE5DF0709F401
:1034400089C008F4B1C080915102806483C0CD303E
:103450009CE5D90709F4BAC070F4809151028E7FBF
:10346000CB30FCE5DF0709F475C008F4A7C08091F4
:1034700051028D7F6FC0CF309CE5D90709F4B6C0EB
:1034800008F4A8C0C031FCE5DF0709F4B3C0C131BE
:10349000DC4509F0B1CF809151028F7B5BC0C11533
:1034A0009DE5D90709F4B4C098F5CB3FFCE5DF07EB
:1034B00009F472C0B8F4C4319CE5D90709F4B6C068
:1034C00008F4A2C0C531DC4509F096CF80915102C5
:1034D00082FB992790F921E0922790FB82F990FBDB
:1034E00083F938C0CD3F8CE5D80709F477C008F4DC
:1034F00057C0CE3FECE5DE0709F474C0809152025C
:103500008360CF3FDC4509F077CF8093520274CFC0
:10351000C2368DE5D80709F496C068F4C230EDE5EF
:10352000DE0709F48CC008F477C0C330DD4509F02C
:1035300063CF80E085C0CE3A9DE5D907E9F068F415
:1035400090915102892F8E7F90FF8160C63ADD45B0
:1035500009F052CF809351024FCFCF3A8DE5D80773
:1035600089F1C03BDD4509F047CF90915202892F88
:10357000877F93FF8860C9CF809152028860C5CF52
:10358000809151028260E6CF809151028460E2CF47
:10359000809151028860DECF809152028160B5CF68
:1035A000809152028260B1CF809151028061D2CF6E
:1035B0000E94A806809151028068CCCF8091510270
:1035C0008C60C8CF80915202877F9FCF809151023B
:1035D0008B7FC0CF80915102877FBCCF80915202F8
:1035E0008E7F93CF809152028D7F8FCF8091510239
:1035F0008F7EB0CF809151028F7DACCF0E94A80604
:10360000809151028F77A6CF80915102837FA2CF04
:10361000809152028C7F79CF80915202982F9095A1
:1036200091708E7F892B90FB81F96FCF0E94A80645
:1036300090915102892F97FB87F980588BCF81E0B9
:103640000E94BD0CD9CE90915102892F8F7E94FF9C
:10365000806180CF81E0E3CECF93DF93EB018631B1
:103660009C4511F50E94230B9A81992399F08A7A3F
:1036700091E009F490E090933802811109C089E249
:103680000E94FB0A0E94640B80E0DF91CF910895B5
:1036900085E3F6CF80913802811104C089E20E944F
:1036A000030BF0CF85E3FBCF81E0EFCF0F931F93A8
:1036B000CF93DF93C42FD22FFC0182818823C9F0DE
:1036C00040933B020E94541D90933A02809339022A
:1036D00080E28C0F883040F4C77081E001C0880F11
:1036E000CA95EAF70E945904DF91CF911F910F917B
:1036F000089510913B02141332C0809139029091C9
:103700003A020E946C1D883C910548F5C0E2CD0F3D
:103710001D17B9F080E2810F883040F4177081E006
:1037200001C0880F1A95EAF70E946004C83048F477
:1037300081E09D2F977001C0880F9A95EAF70E944B
:103740005904802F0E945004C83070F6D77081E071
:1037500001C0880FDA95EAF70E946004C5CF80E2C5
:103760008C0F883008F6C77081E001C0880FCA95B9
:10377000EAF7F2CF0F939C01CB01243F4CE53407CD
:1037800059F1A8F4293DFCE53F0701F12A3D4CE53C
:103790003407D1F1283D3C4591F406E221EE41EE9B
:1037A00068ED7CE50E94561B80E00F910895263F4E
:1037B000FCE53F07E9F0B0F0273F3C45F9F0FC019C
:1037C0008281882339F110923B02EFCF07E225EE88
:1037D00045EE69ED7CE5E6CF06E221EE40EE64EFD2
:1037E0007CE5E0CF07E225EE44EE65EF7CE5DACF3D
:1037F00006E221EE42EE66EF7CE5D4CF07E225EE4D
:1038000046EE67EF7CE5CECF08E221E045EE6AEDBB
:103810007CE5C8CF81E0C9CF9093B5018093B40116
:10382000089590934102809340020895E0914002F0
:10383000F0914102309729F00190F081E02D099537
:10384000089580E00895E0914002F09141023097A0
:1038500021F00280F381E02D0995089520913E0228
:1038600030913F022817390771F090933F028093FF
:103870003E02E0914002F0914102309721F0068033
:10388000F781E02D0995089520913C0230913D0289
:103890002817390771F090933D0280933C02E09124
:1038A0004002F0914102309721F00084F185E02D33
:1038B000099508959C012E5F3F4FAC01485F5F4F13
:1038C00080E02417350709F40895F90191919F01CB
:1038D0009923B9F38F5FF5CF662349F0FC01329647
:1038E00008962191261729F0E817F907D1F780E00B
:1038F000089581E008959C01FC0132969FEF80E0DD
:103900004191461751F09F3F19F4411101C0982F82
:103910008F5F8630A9F79F3F09F40895290F311D65
:1039200097FD3A95F90162830895FC013296089655
:103930002191261303C0DF0111971C92E817F907A4
:10394000B9F708950E947B1C08950E94951C089564
:10395000029626E0FC0111922A95E9F70895089550
:103960000E94AF1C0895811106C081E0809342023D
:103970000E94B01C089582E0F9CF83E08093420258
:103980000E94B01C08950E94B31C089581E08093AA
:1039900042020E94B01C08950E94C61C089508951A
:1039A00008950E94D01C0895089508950E94CF1C88
:1039B0000895CF930E94D41C0E9472100E94D51CBF
:1039C000C0E08C2F0E94B30F811105C0CF5FC630BD
:1039D000C1F7CF91089581E0FCCF85B7806885BF9E
:1039E00085B7806885BF08951F921FB61F92112466
:1039F0008F939F93AF93BF9380914302811113C024
:103A00008091770290917802A0917902B0917A0228
:103A10004196A11DB11D8093770290937802A093E7
:103A20007902B0937A02BF91AF919F918F911F90CD
:103A30001FBE1F90189580917F02843031F10E9443
:103A40003F031092430288E190E020E40FB6F8941F
:103A5000A895809360000FBE2093600083B7817F9C
:103A6000846083BF83B7816083BF7894889583B770
:103A70008E7F83BF0FB6F894A8958091600088610F
:103A800080936000109260000FBE08950E94A80607
:103A90000E944703089582E084BD93E095BD9AEFAC
:103AA00097BD80936E0008952FB7F89480917702A8
:103AB00090917802A0917902B0917A022FBF089577
:103AC0002FB7F89460917702709178028091790213
:103AD00090917A022FBF08959C014FB7F89480917E
:103AE000770290917802A0917902B0917A024FBF4B
:103AF000821B930B089578941F921FB61F92112476
:103B00008F939F93AF93BF938091770290917802A8
:103B1000A0917902B0917A020196A11DB11D809306
:103B2000770290937802A0937902B0937A02BF91C2
:103B3000AF919F918F911F901FBE1F90189581E0AC
:103B40008093E00080E28093D8001092C9008FE15A
:103B50009EE40197F1F700C0000087E090EBDC01E4
:103B60008093880290938902A0938A02B0938B027B
:103B700088E19CE00FB6F894A895809360000FBE92
:103B800090936000FFCF88E19CE00FB6F894A89571
:103B9000809360000FBE90936000FFCF80914F0232
:103BA00008950895CF93DF93EC0181E08093E900BD
:103BB0008FEF9091E800815095FD06C095ED9A95A4
:103BC000F1F700008111F5CF8091E80085FF14C066
:103BD00050E040E068E070E0CE010E94E41F809178
:103BE000E8008E778093E80088E0FE01A7E4B2E069
:103BF00001900D928A95E1F7DF91CF91089580931E
:103C00004402709346026093450280917F028430A3
:103C100001F582E08093E9008FEF9091E8008150F8
:103C200095FD06C095ED9A95F1F700008111F5CF4D
:103C30008091E80085FF0DC050E040E063E070E057
:103C400084E492E00E94E41F8091E8008E778093E4
:103C5000E8000895BC0184E00E94FF1D0895BC01A6
:103C600083E00E94FF1D0895089580917E028111D6
:103C700009C00E9474210E94D1218091E2008460D9
:103C80008093E200089510927E0208950E94C61C5F
:103C9000089560917B0281E0611101C080E00E9483
:103CA000BD1C089590917F0281E0943009F080E07E
:103CB00060917B020E94C31C089542E061EC81E0A8
:103CC0000E94F02042E261EC82E00E94F02090919C
:103CD0007F0281E0943009F080E060917B020E94D5
:103CE000B31C089580918102833009F461C030F4DF
:103CF0008130D1F1823009F49EC008958A3009F4F0
:103D00008AC08B3009F46FC0893009F050C08091AF
:103D10008002813209F04BC080918402909185022B
:103D2000029708F044C08091E800877F8093E80004
:103D30008091E80082FF37C09091F3008091F200FB
:103D4000029731F48091F100813011F0863021F436
:103D50008091F10080934F028091E8008B778093EF
:103D6000E8000E94242123C080918002813AF9F466
:103D70008091E800877F8093E80080918402909191
:103D80008502892B61F468E087E492E070E00E948C
:103D900033208091E8008B778093E800089560E0FD
:103DA00090E080E0F3CF80917F028111C1CF089530
:103DB00080918002813AD9F78091840290918502A6
:103DC000892BA9F78091E800877F8093E800809194
:103DD000E80080FFFCCF809121018093F100809169
:103DE000E8008E77BCCF80918002813201F780910C
:103DF000840290918502892BD1F68091E800877F1B
:103E00008093E8000E942421809182028093210106
:103E10000E94A806089580918002813241F6809127
:103E2000E800877F8093E8000E942421809183022C
:103E300080935002089580918002813A09F0B7CFB3
:103E40008091E800877F8093E8008091E80080FF00
:103E5000FCCF80915002C1CF84B7877F84BF0FB65B
:103E6000F894A8958091600088618093600010921A
:103E700060000FBE80E890E00FB6F8948093610078
:103E8000909361000FBE0E94CC1C08950E94742183
:103E90000E94D121E2EEF0E08081846080837894FA
:103EA0000E945024089585E191E00E94111C08951C
:103EB00080917F02853031F480917F02853019F046
:103EC0000E94461D08950E941B1D80917D0288233B
:103ED00099F30E94D91C882379F30E94CE1F0E9477
:103EE000A806EACF08950E94761F0895292F332748
:103EF0002330310519F168F42130310509F444C04B
:103F00002230310509F445C090E080E030E020E047
:103F100025C02132310549F122323105A9F780E46B
:103F200090E02EE234E061157105C1F082E390E08B
:103F30002CEF33E06130710589F0E6CF99278130AD
:103F4000910581F0009729F00297F1F6E3E8F3E09C
:103F500002C0EBEAF3E0849190E09F01FA01318323
:103F600020830895EFE9F3E0F6CF89E090E021ECBB
:103F700033E06115710591F389E090E02AED33E0BB
:103F80006130710559F3C0CF82E190E02AEE33E051
:103F9000E5CF8BE390E02FEA33E0E0CF80E189BD0D
:103FA00082E189BD09B400FEFDCF8091D8008F7DEC
:103FB0008093D8008091E00082608093E00080913F
:103FC000E00081FDFCCF0895AF92BF92CF92DF92C7
:103FD000FF920F931F93CF93DF936C01EB018A0144
:103FE0000E944321F82E811123C00115110539F0DB
:103FF000F80180819181C81BD90BC80ED91EB12C44
:10400000A12C2097A9F08091E80085FD22C0809125
:10401000E8008E778093E80001151105A1F0F80102
:1040200080819181A80EB91EB182A08285E0F82E10
:104030008F2DDF91CF911F910F91FF90DF90CF9047
:10404000BF90AF9008950E9443218823D1F2F82EAB
:10405000EFCFF60181916F018093F1002197FFEF7F
:10406000AF1ABF0ACECFFC018091860290918702E1
:1040700086179707A0F06115710529F49091E80063
:104080009E779093E80090E06115710551F49111CD
:1040900008C08091E80082FF34C080E00895BC0130
:1040A000F2CF80917F028823C1F18530C1F18091E8
:1040B000E80083FD30C08091E80082FDEACF809166
:1040C000E80080FFE1CF8091F3002091F200382FCB
:1040D0006115710519F02830310558F091E028304C
:1040E000310509F090E02091E8002E772093E80058
:1040F000CBCF81918093F100615071092F5F3F4FC9
:10410000E7CF80917F02882341F0853041F0809194
:10411000E80083FFBECF81E0089582E0089583E048
:104120000895FC0180918602909187028617970777
:10413000A0F06115710529F48091E8008E778093D5
:10414000E80090E06115710551F4911108C080916B
:10415000E80082FF35C080E00895BC01F2CF809175
:104160007F028823C9F18530C9F18091E80083FD81
:1041700031C08091E80082FDEACF8091E80080FFA5
:10418000E1CF8091F3002091F200382F6115710585
:1041900019F02830310558F091E02830310509F048
:1041A00090E08091E8008E778093E800CBCF8491F7
:1041B0008093F1003196615071092F5F3F4FE6CF38
:1041C00080917F02882341F0853041F08091E800A2
:1041D00083FFBDCF81E0089582E0089583E00895D4
:1041E000982F973028F08F708093E90081E0089530
:1041F0009093E900242F762F50E0981731F07091BA
:10420000EC002091ED005091F00021FD02C09F5F75
:10421000E8CF3091EB003E7F3093EB003091ED0022
:104220003D7F3093ED003091EB0031603093EB0037
:104230007093EC002093ED005093F0002091EE007D
:1042400027FDE5CF80E008958091800287FF13C0AD
:104250008091E80082FF06C08091E8008B77809310
:10426000E80004C080917F028111F2CF089580910F
:104270007F028823D9F38091E80080FFF8CF8091F6
:10428000E8008E77ECCF2091E4003091E50095E6D0
:10429000A9012091EC00822F817020FF06C080913F
:1042A000E80080FF06C080E008952091E80022FD2C
:1042B0001AC080917F02882389F0853089F080912F
:1042C000EB0085FD0FC02091E4003091E50042171E
:1042D0005307F9F29150E1F684E0089582E00895E1
:1042E00083E0089581E008950E94E3210E94EB217C
:1042F000E0EEF0E0808181608083E8EDF0E0808195
:104300008F77808319BCA7EDB0E08C918E7F8C9362
:1043100080818F7E808310927E0208950F931F9379
:10432000CF93DF930E94E3210E94EB21C8EDD0E000
:1043300088818F77888388818068888388818F7D52
:10434000888319BC10927F0210927B0210927D022A
:1043500010927C0200EE10E0F80180818B7F808358
:1043600088818160888342E060E080E00E94F020E4
:10437000E1EEF0E080818E7F8083E2EEF0E08081EC
:1043800081608083808188608083F80180818E7F56
:104390008083888180618883DF91CF911F910F9105
:1043A0000895E8EDF0E080818F7E8083E7EDF0E016
:1043B00080818160808384E082BF81E080937E027F
:1043C0000E948E210895E8EDF0E080818E7F808349
:1043D0001092E20008951092DA001092E100089520
:1043E0001F920F920FB60F9211242F933F934F936A
:1043F0005F936F937F938F939F93AF93BF93EF934D
:10440000FF938091E10082FF0BC08091E20082FF68
:1044100007C08091E1008B7F8093E1000E944F24D0
:104420008091DA0080FF19C08091D80080FF15C00C
:104430008091DA008E7F8093DA008091D90080FF2E
:1044400096C080E189BD82E189BD09B400FEFDCF3F
:1044500081E080937F020E94351E8091E10080FF01
:1044600019C08091E20080FF15C08091E2008E7F2C
:104470008093E2008091E20080618093E20080916D
:10448000D80080628093D80019BC85E080937F02B9
:104490000E94491E8091E10084FF2BC08091E200C0
:1044A00084FF27C080E189BD82E189BD89B5982F4D
:1044B000917080FFFBCF8091D8008F7D8093D800D2
:1044C0008091E1008F7E8093E1008091E2008F7EF9
:1044D0008093E2008091E20081608093E20080910D
:1044E0007B02882309F449C084E080937F020E9404
:1044F000521E8091E10083FF29C08091E20083FF7A
:1045000025C08091E100877F8093E10082E0809365
:104510007F0210927B028091E1008E7F8093E10008
:104520008091E2008E7F8093E2008091E2008061C2
:104530008093E20042E060E080E00E94F020809101
:10454000F00088608093F0000E94461EFF91EF917A
:10455000BF91AF919F918F917F916F915F914F919B
:104560003F912F910F900FBE0F901F90189519BC7F
:1045700010927F020E94431E70CF8091E30087FD5E
:1045800093E090937F02B3CF1F920F920FB60F92DA
:1045900011242F933F934F935F936F937F938F9348
:1045A0009F93AF93BF93CF93DF93EF93FF93D091FC
:1045B000E900DF708091EC00C82FC17080FDC0E879
:1045C0001092E9008091F000877F8093F00078944A
:1045D0000E9408231092E9008091F0008860809387
:1045E000F000CD2BCF70C093E900FF91EF91DF91E8
:1045F000CF91BF91AF919F918F917F916F915F917B
:104600004F913F912F910F900FBE0F901F901895D3
:10461000AAE2B0E0EEE0F3E20C94192580E892E023
:104620002091F100FC012193CF01F2E088389F072F
:10463000B9F70E94721E8091E80083FF1EC180912D
:104640008002909181029A3008F017C1E92FF0E0C2
:10465000EA53FA4D0C94D324803899F0823809F04B
:104660000CC1809184028F70873008F006C180935E
:10467000E9008091EB0085FB882780F91092E90022
:1046800006C080917C0290917D0291118260909190
:10469000E800977F9093E8008093F1001092F1007A
:1046A0008091E8008E77E5C0882309F4D3C082307A
:1046B00009F0E3C0809182028111D6C0809184020A
:1046C0008F702FEF280F263008F0D7C08093E900B5
:1046D0002091EB0020FFC8C0933031F48091EB00B3
:1046E00080628093EB00C0C09091EB00906190934A
:1046F000EB0021E030E001C0220F8A95EAF7209319
:10470000EA001092EA008091EB008860EACF811104
:10471000B4C0109182021F778091E3008078812BD2
:104720008093E3008091E800877F8093E8000E94F7
:1047300024218091E80080FFFCCF8091E300806815
:104740008093E30082E0111183E080937F0295C0A3
:104750008058823008F091C080918202909183024B
:104760008C3D23E09207A1F583E08A838AE2898366
:104770004FB7F894DE01139620E03EE051E2E32FBC
:10478000F0E050935700E49120FF03C0E295EF70F2
:104790003F5FEF708E2F90E0EA30C0F0C7968D93A8
:1047A0009D932F5F243159F74FBF8091E800877F99
:1047B0008093E8006AE270E0CE0101960E94332007
:1047C0008091E8008B778093E80057C0C096E7CFD0
:1047D0006091840270918502AE014F5F5F4F0E942D
:1047E000731FBC01892B09F448C09091E800977FA2
:1047F0009093E80089819A810E949120E1CF8038CE
:10480000E1F58091E800877F8093E80080917B024A
:104810008093F10045CF811130C090918202923097
:1048200060F58091E800877F8093E80090937B0299
:104830000E94242180917B02882311F084E005C02E
:104840008091E30087FDFACF81E080937F020E9490
:104850005D1E13C080918202813079F481E0933033
:1048600009F080E080937D021092E9008091E800D9
:10487000877F8093E8000E9424218091E80083FFD5
:104880000AC08091E800877F8093E8008091EB0068
:1048900080628093EB00AA96E3E00C94352508959E
:1048A000CF9380917F028823A1F0C091E900CF705F
:1048B0009091EC00892F817090FD80E8C82B1092B8
:1048C000E9008091E80083FD0E940823CF70C09327
:1048D000E900CF910895DB018F939F930E94F72405
:1048E000BF91AF91A29F800D911DA39F900DB29F8C
:1048F000900D1124089587FB082E062687FD8195CB
:1049000067FD61950E9441250EF4919507FC819504
:104910000895AA1BBB1B51E107C0AA1FBB1FA61706
:10492000B70710F0A61BB70B881F991F5A95A9F758
:1049300080959095BC01CD01089597FB072E16F444
:10494000009407D077FD09D00E94892407FC05D088
:104950003EF4909581959F4F0895709561957F4F96
:104960000895A1E21A2EAA1BBB1BFD010DC0AA1FB0
:10497000BB1FEE1FFF1FA217B307E407F50720F0C8
:10498000A21BB30BE40BF50B661F771F881F991F43
:104990001A9469F760957095809590959B01AC018C
:1049A000BD01CF010895EE0FFF1F0590F491E02D9A
:1049B00009940E94E124332312F48A1B9B0B0C946C
:1049C000F224A29FB001B39FC001A39F700D811D6F
:1049D0001124911DB29F700D811D1124911D089508
:1049E0000E94E124B7FF0895821B930B08950E9453
:1049F000E124A59F900DB49F900DA49F800D911D63
:104A000011240895B7FF0C94F7240E94F724821B09
:104A1000930B08952F923F924F925F926F927F92E5
:104A20008F929F92AF92BF92CF92DF92EF92FF92BE
:104A30000F931F93CF93DF93CDB7DEB7CA1BDB0B6A
:104A40000FB6F894DEBF0FBECDBF09942A8839880F
:104A500048885F846E847D848C849B84AA84B98416
:104A6000C884DF80EE80FD800C811B81AA81B98122
:104A7000CE0FD11D0FB6F894DEBF0FBECDBFED0136
:104A80000895991B79E004C0991F961708F0961BAA
:104A9000881F7A95C9F780950895FC0141505040D0
:104AA00030F001900616D1F73197CF01089588278D
:104AB00099270895FB01DC0104C08D9101908019B4
:104AC00021F441505040C8F7881B990B0895FB0111
:104AD000DC0102C001900D9241505040D8F708957A
:104AE000F999FECF92BD81BDF89A992780B50895B6
:104AF000A6E1B0E044E050E00C94AA25A8E1B0E0C3
:104B000042E050E00C94AA25262FF999FECF92BDE1
:104B100081BDF89A019700B4021639F01FBA20BD82
:104B20000FB6F894FA9AF99A0FBE08950396272FB4
:104B30000E9485250E948425252F0E948525242FEB
:104B40000C9485250196272F0E9485250C94842599
:104B5000DC01CB01FC01F999FECF06C0F2BDE1BD3D
:104B6000F89A319600B40D9241505040B8F708952C
:104B7000F894FFCFA204A204D304D3046005020575
:104B8000020502057C05ED05FC05FC052C235423DC
:104B90003D2454233D248723A8233D24FF230B24B5
:104BA0000E02010102000600060601191A1B1C1D57
:104BB0001E1F202122CE1DD21D341E2F1E2A1ED1C3
:104BC0001D01E200E900EA00B500B600B700CD0023
:104BD0008301CC008A019201940121022302240264
:104BE0002502260227022A02B300B4006F007000DB
:104BF000818283E200E900EA00B500B600B700CD8B
:104C0000008301CC008A0192019401210223022435
:104C1000022502260227022A02B300B4006F0070A8
:104C200000818283F5F49392333632319734000158
:104C3000020202020606060909090909090F0F0FF7
:104C40000F0F0F15151518191919191919191919FF
:044C50001923240000
:00000001FF
