:100000000C943D080C9484080C9484080C94840887
:100010000C9484080C9484080C9484080C94840830
:100020000C9484080C9484080C947E2B0C94502C13
:100030000C94531D0C9484080C9484080C9484082C
:100040000C9484080C9484080C9484080C94840800
:100050000C9484080C94AC1D0C9484080C948408B3
:100060000C9484080C9484080C9484080C948408E0
:100070000C9484080C9484080C9484080C948408D0
:100080000C9484080C9484080C9484080C948408C0
:100090000C94710A0C9484080C9484080C948408C1
:1000A0000C9484080C9484080C94840881128112A6
:1000B000B312B31200131E133F143F142913BE13BF
:1000C000CF13CF132F143F143F143814DF14DF1451
:1000D000F114F114E814F114F114F114DF14DF1425
:1000E000ED14F114F114ED140F24FD2316249B22BA
:1000F000EB24EB24FA23EB24EB244324EB245724B6
:10010000CB24EB24EB24EB24EB248724EB24EB24FB
:100110007424EB242F24EB24EB24E524E524E524AC
:10012000E524E524E524E524E524E524E724EB247F
:100130000F24F223EB24EB24EB24EB24EB24EB241D
:10014000EB24EB24EB24EB24E724EB24EB24FA232D
:10015000EB24E324E324E324E324E324E324E3245F
:10016000E324E324E724BD2CE42CDC2DE42CDC2D5B
:10017000302D532DDC2DAA2DB92D253032583A20A3
:10018000253031366225730A00722F6320303132F8
:10019000333435363738394142434445460A001432
:1001A000001A0008002B001500180017001C001290
:1001B0000013002F000C003000000031004C001E26
:1001C000001F002000290021002400220023002617
:1001D0000027002D0025002E0000002A00AE0000A0
:1001E00000E200E300E0000000000000002C00E658
:1001F000000000E40000000458510050004F0000CF
:10020000001D001B00E1000600110019000500366A
:1002100000370038001000E5005200000000000424
:100220000016430742390009410D000A000B000F78
:1002300000330034000E0000000000280000000120
:100240000001000100010001002F00010001000178
:1002500000300001000100010000000100AA003A86
:10026000003B003C0035003D0040003E003F0042A6
:1002700000430044004100450000000100A90000C7
:100280000001000100010000000000000001000169
:100290000000000100000001000100010001000059
:1002A0000001000100010001000100010001000146
:1002B0000001000100010001000100000000000138
:1002C0000001000100010001002F020100010027D0
:1002D000023002350026020000000001000000008C
:1002E0000000000000000000004A00000000004D77
:1002F00000000000005200000000000000AC000000
:1003000000000000000000000000000000000000ED
:1003100000000000000000000000000000AB000032
:1003200000000000000000000000000000000000CD
:1003300000000000000000000000000000000000BD
:100340000000000000000000004E00000000004B14
:10035000000000000051000000000000000000004C
:100360000000000000000000005000000000004FEE
:100370000000003502000000000000000000000046
:100380000000000000000000005F000000000061AD
:1003900000570000006000000000000000000000A6
:1003A00000000000000000000053000000000055A5
:1003B00000560000005400000000002A0000000069
:1003C0000000000000000000000000000062006368
:1003D000000000000000000000000000000000001D
:1003E0000000000000000000000000000000005AB3
:1003F000005B0067005900000000000000000000E2
:100400000000000000000000005C00000000005E32
:1004100000850000005D000000000058000000148E
:10042000001A0008002B001500180017001C00120D
:100430000013002F000C00300000003100AA001E45
:10044000001F002000290021002400220023002694
:100450000027002D0025002E0000002A00A9000022
:1004600000E2000000E3000000000000002C00E6B5
:10047000000000E40000000100510050004F0000A7
:10048000001D001B00E100060011001900050036E8
:1004900000370038001000E50052000000000004A2
:1004A0000016000700E00009000D000A000B000F15
:1004B00000330034000E000000000028000000009F
:1004C000000000000000000000000000000000002C
:1004D0000000000000000000000000000000003AE2
:1004E000003B003C0000003D0040003E003F004259
:1004F00000430044004100450000000000000000EF
:1005000000000000000000000000000000000000EB
:1005100000000000000000010000000000000000DA
:1005200000000000000000000000000000000000CB
:1005300000000000000000000000000000000000BB
:1005400000000000000000000000000000000000AB
:100550000000000000000000000000000000004457
:10056000454255473A2064697361626C65642E0A9E
:100570000044454255473A20656E61626C65642EC1
:100580000A000A002530325820006B6579626F61DD
:1005900072645F7265706F72743A20000A002530D1
:1005A0003258006B6579626F6172645F7365745F66
:1005B0006C65643A200064656C5F6B65795F6269A5
:1005C000743A2063616E27742064656C3A2025308C
:1005D00032580A006164645F6B65795F6269743ADE
:1005E0002063616E2774206164643A20253032589C
:1005F0000A00290A002575002F002575005D2800D6
:1006000025640020002564002000256400200025CA
:1006100064007C0025303258006D6F7573656B6522
:1006200079205B62746E7C782079207620685D2862
:100630007265702F61636C293A205B006D6B5F7788
:100640006865656C5F74696D655F746F5F6D617817
:10065000203D2025640A006D6B5F776865656C5FDF
:100660006D61785F7370656564203D2025640A00C4
:100670006D6B5F74696D655F746F5F6D6178203D50
:100680002025640A006D6B5F6D61785F737065652E
:1006900064203D2025640A006D6B5F696E7465728D
:1006A00076616C203D2025640A006D6B5F64656C8B
:1006B0006179203D2025640A006D6B5F7768656570
:1006C0006C5F74696D655F746F5F6D6178203D204C
:1006D00025640A006D6B5F776865656C5F6D617896
:1006E0005F7370656564203D2025640A006D6B5F53
:1006F00074696D655F746F5F6D6178203D2025645E
:100700000A006D6B5F6D61785F7370656564203D95
:100710002025640A006D6B5F696E74657276616C8A
:10072000203D2025640A006D6B5F64656C61792053
:100730003D2025640A000A00257500363A207768B6
:1007400065656C5F74696D655F746F5F6D61783A44
:1007500020000A00257500353A20776865656C5FD2
:100760006D61785F73706565643A20000A002575D5
:1007700000343A2074696D655F746F5F6D61783A1B
:1007800020000A00257500333A206D61785F737090
:100790006565643A20000A00257500323A20696ECA
:1007A00074657276616C286D73293A20000A002501
:1007B0007500313A2064656C6179282A31306D7397
:1007C000293A20000A092D2056616C756573202D89
:1007D0000A004D3E004D25643E20003F00736574C5
:1007E0002064656661756C740A00433E200077687A
:1007F0006572652064656C74613A20637572736F0D
:10080000723D25642C20776865656C3D25640A532C
:10081000656520687474703A2F2F656E2E77696B4A
:100820006970656469612E6F72672F77696B692FD4
:100830004D6F7573655F6B6579730A000A092D202A
:100840004D6F7573656B6579202D0A4553432F7184
:100850003A09717569740A313A0964656C617928DD
:100860002A31306D73290A323A09696E74657276DD
:10087000616C286D73290A333A096D61785F737072
:100880006565640A343A0974696D655F746F5F6DFC
:1008900061780A353A09776865656C5F6D61785FE4
:1008A00073706565640A363A09776865656C5F74CC
:1008B000696D655F746F5F6D61780A0A703A0970DF
:1008C00072696E742076616C7565730A643A097397
:1008D00065742064656661756C74730A75703A0995
:1008E0002B310A646F776E3A092D310A7067757083
:1008F0003A092B31300A7067646F776E3A092D31EF
:10090000300A0A7370656564203D2064656C74610B
:10091000202A206D61785F7370656564202A202825
:10092000726570656174202F2074696D655F746FE6
:100930005F6D6178290A003F004D3E2000433E2054
:10094000004C25640A0074696D65725F72656164AC
:10095000333228293A202530346C580A006B6579E7
:100960006D61705F636F6E6669672E6E6B726F3A52
:100970002025580A006B6579626F6172645F696453
:100980006C653A2025580A006B6579626F61726464
:100990005F70726F746F636F6C3A2025580A00683D
:1009A0006F73745F6B6579626F6172645F6C6564AD
:1009B0007328293A2025580A000A092D205374610A
:1009C000747573202D0A004743433A20352E342E88
:1009D00030204156522D4C4942433A20322E302E7F
:1009E00030204156525F415243483A206176723579
:1009F0000A004F5054494F4E533A204C554641201F
:100A00004D4F5553454B45592045585452414B4540
:100A10005920434F4E534F4C4520434F4D4D414E6F
:100A200044204E4B524F20343039360A004255494B
:100A30004C443A202230306436326422202830354B
:100A40003A32323A3439204175672020342032302E
:100A50003230290A005649443A2030783438353348
:100A6000284861737529205049443A203078363639
:100A700030432846433636304329205645523A20E3
:100A80003078303130300A000A092D2056657273F3
:100A9000696F6E202D0A000A092D20436F6E736F57
:100AA0006C65202D0A4553432F713A09717569749D
:100AB0000A6D3A096D6F7573656B65790A000A09ED
:100AC0002D204D61676963202D0A443A094465620F
:100AD0007567204D65737361676520546F67676C38
:100AE000650A583A094D61747269782044656275E7
:100AF00067204D6F646520546F67676C65202D20FB
:100B000053686F77206B65797072657373657320B6
:100B1000696E206D617472697820677269640A4B2E
:100B20003A094B6579626F6172642044656275674A
:100B300020546F67676C65202D2053686F77206B9A
:100B400065797072657373207265706F72740A4D87
:100B50003A094465627567204D6F75736520546F5F
:100B600067676C650A563A0956657273696F6E0A53
:100B7000533A095374617475730A433A09416374B3
:100B8000697661746520436F6E736F6C65204D6F7D
:100B900064650A46312D4631303A095377697463EA
:100BA0006820746F204C6179657220302D392028BF
:100BB000463130203D204C30290A302D393A095336
:100BC000776974636820746F204C61796572203096
:100BD0002D390A47524156453A095377697463687B
:100BE00020746F204C6179657220302028616C740C
:100BF00065726E617465290A423A094A756D702002
:100C0000746F20426F6F746C6F616465720A455334
:100C1000433A094A756D7020746F20426F6F746C8F
:100C20006F616465722028616C7465726E617465B1
:100C3000290A453A095072696E7420454550524F51
:100C40004D2053657474696E67730A425350414373
:100C5000453A09436C65617220454550524F4D0A33
:100C60004E3A094E4B524F20546F67676C650A002D
:100C70000A002575002E6E6B726F3A20000A00255F
:100C800075002E737761705F6261636B736C617363
:100C9000685F6261636B73706163653A20000A008C
:100CA0002575002E737761705F67726176655F6589
:100CB00073633A20000A002575002E6E6F5F67751A
:100CC000693A20000A002575002E737761705F7203
:100CD000616C745F726775693A20000A00257500BF
:100CE0002E737761705F6C616C745F6C6775693AC5
:100CF00020000A002575002E737761705F7263749F
:100D00006C5F726775693A20000A002575002E73C2
:100D10007761705F6C63746C5F6C6775693A200013
:100D20000A002575002E636170736C6F636B5F74CE
:100D30006F5F636F6E74726F6C3A20000A002575E6
:100D4000002E737761705F636F6E74726F6C5F6398
:100D50006170736C6F636B3A20000A002530325863
:100D6000006B65796D61705F636F6E6669672E7287
:100D700061773A20000A002575002E6D6F75736546
:100D80003A20000A002575002E6B6579626F61724A
:100D9000643A20000A002575002E6D61747269782E
:100DA0003A20000A002575002E656E61626C653A76
:100DB00020000A00253032580064656275675F6361
:100DC0006F6E6669672E7261773A20000A0025759A
:100DD0000064656661756C745F6C617965723A2058
:100DE000003F004E4B524F3A206F66660A004E4B52
:100DF000524F3A206F6E0A000A6D6F7573653A2084
:100E00006F66660A000A6D6F7573653A206F6E0A29
:100E1000000A6B6579626F6172643A206F66660AD8
:100E2000000A6B6579626F6172643A206F6E0A0026
:100E30000A6D61747269783A206F66660A000A6DFD
:100E400061747269783A206F6E0A000A646562758F
:100E5000673A206F66660A000A64656275673A2021
:100E60006F6E0A000A0A4A756D70696E6720746FAA
:100E700020626F6F746C6F616465722E2E2E20007D
:100E8000433E2000436C656172696E6720454550A2
:100E9000524F4D0A006565636F6E6669673A0A00D6
:100EA0005B735D004B6579626F617264207374617E
:100EB00072742E0A005B575D005B535D005B525DF0
:100EC000005B445D005B435D000403300000000EE6
:100ED0000346004300360036003000430000000A9D
:100EE0000348006100730075000000040309040951
:100EF000025B00030100A0FA0904000001030101E4
:100F000000092111010001224000070581030800AA
:100F10000A09040100010300000009211101000178
:100F200022BC000705820320000A09040200020314
:100F3000000000092111010001222200070583039E
:100F40002000010705030320000112011001000029
:100F5000000853480C660001010203010631FF0935
:100F600074A1010975150026FF00952075088102FE
:100F70000976150026FF00952075089102C005012D
:100F80000902A10185020901A1000509190129052C
:100F900015002501950575018102950175038101F3
:100FA0000501093009311581257F950275088106F3
:100FB00009381581257F950175088106050C0A38C9
:100FC000021581257F950175088106C0C0050109BC
:100FD00080A101850319012AB700150126B70095E4
:100FE0000175108100C0050C0901A10185041901DA
:100FF0002AA002150126A002950175108100C005E6
:10100000010906A1018505050719E029E715002555
:10101000019508750181020507190029EF150025C2
:101020000195F075018102050819012905950575DD
:10103000019102950175039101C005010906A10105
:10104000050719E029E715002501950875018102BA
:101050009501750881010507190029FF150026FF74
:101060000095067508810005081901290595057583
:10107000019102950175039101C011241FBECFEFAC
:10108000DAE0DEBFCDBF04B603FE27C08091B60212
:101090009091B702A091B802B091B9028730904BFD
:1010A000A740B04BD1F41092B6021092B702109242
:1010B000B8021092B90214BE84B7877F84BF0FB6FE
:1010C000F894A895809160008861809360001092E8
:1010D00060000FBEE0E0F8E3099511E0A0E0B1E0A8
:1010E000EAE1FDE502C005900D92A239B107D9F7FA
:1010F00022E0A2E9B1E001C01D92A63BB207E1F7F0
:101100000E94A4280C948B2E0C940000FF93EF9364
:10111000E0919201F0919301309709F00995EF91D8
:10112000FF910895FC018591803011F0EFDFFBCF36
:101130000895FF27E0E230E247FF0CC0419597FF9A
:1011400009C0EDE26095709580959095611D711DC7
:10115000811D911D27FF02C0219530E350E2AA278F
:10116000660F771F881F991FAA1FA41710F0A41BD2
:1011700063955A95A9F7AA3008F0A95FA05DAF93CF
:10118000F395611571058105910541F7ED3211F473
:10119000EF93F395F21718F43F93F395FBCF8F91EC
:1011A000B5DFFA95E1F70895E991F99185918030DD
:1011B00021F0853219F0AADFF9CF089520E0E894F4
:1011C00055915532C1F3503311F4689455915A3307
:1011D00048F4505390F3220F022E220F220F200DBD
:1011E000250FF4CF0EF4219589919991533619F377
:1011F000533729F1533559F1BC0188279927E894D1
:101200005C3621F48991999168945591543639F45A
:1012100046EF7EF077FF0DC08FEF9FEF0AC0553786
:101220004AE039F0583540E121F0523642E009F009
:101230000895FF93EF937DDFEF91FF91B7CFFF9379
:10124000EF93FC0181918030B9F360DFFBCFFF9316
:10125000EF9368DFF1CFDF93CF93CDB7DEB725965D
:10126000A3DFCF91DF91089508950C94340984B1E0
:101270008F6184B93E98469A3F9A8AB1806F8AB945
:101280005F9A479884B1806684B985B1806685B9D4
:10129000AEE9B1E011961C921E9213961C921E921A
:1012A000129715961C921E92149717961C921E92D6
:1012B000169719961C921E921897E4E9F1E0118294
:1012C000108213821282158214821782168211866E
:1012D0001086B093AB01A093AA01F093A901E0930B
:1012E000A8010C942C0BAF92BF92DF92EF92FF9269
:1012F0000F931F93CF93DF938091A8019091A90141
:101300002091AA013091AB013093A9012093A8014B
:101310009093AB018093AA01C0E0D0E001E010E01F
:1013200085B1982F907EC3FF02C020E101C028E064
:101330008C2F8770892B822B85B9A8010C2E02C0B7
:10134000440F551F0A94E2F75A01A094B09420E08C
:1013500030E08BB18F708068B90194E0660F771F21
:101360009A95E1F7862B8BB99AE09A95F1F700C030
:10137000C901880F991FA091A801B091A901A80FD8
:10138000B91F6D917C9164237523672B09F0479AEF
:10139000E5E3EA95F1F70000D6B45F98FAE0FA9534
:1013A000F1F700C06091AA017091AB017B01E80EDA
:1013B000F91EF701369B05C0A081B181AA21BB218E
:1013C00004C0A081B181A42BB52BB183A083A6B5A5
:1013D000AD19A63070F0A091A801B091A901A80F95
:1013E000B91F0D90BC91A02D860F971FFC01B183F2
:1013F000A083FAE1FA95F1F700C047985F9A8BE273
:1014000091E00197F1F700C000002F5F3F4F2530BA
:10141000310509F09ECFA091AA01B091AB01E091F6
:10142000A801F091A9011A962D913C911B978285F4
:1014300093852817390711F00E94911D2196C0311C
:10144000D10509F06DCF0E94340B81E0DF91CF917F
:101450001F910F91FF90EF90DF90BF90AF90089594
:101460002091AA019091AB01E22FF92FE80FF11D15
:10147000E80FF11D808191810895EF92FF920F9303
:101480001F93CF93DF9389E891E00E949208C0E018
:10149000D0E085E1E82E81E0F82E0AE711E08C2FFC
:1014A0000E94300A0E94611BFF92EF929F938F93DC
:1014B000DF93CF931F930F930E942B0921968DB733
:1014C0009EB708960FB6F8949EBF0FBE8DBFC5306D
:1014D000D10529F7DF91CF911F910F91FF90EF90E8
:1014E00008951F920F920FB60F9211248F939F931E
:1014F000EF93FF938091B900887F803869F038F4CA
:101500008823C9F18036C9F51092AC0136C0883AFB
:1015100009F1883BF9F031C08091AC01811111C013
:101520008091BB008093AD018091AD01803120F0AE
:101530001092AD0180E001C081E091E09093AC0198
:101540001DC0E091AD01F0E08091BB00ED56FD4F74
:10155000808308C0E091AD01F0E0ED56FD4F808141
:101560008093BB008091AD0190E001968F70992728
:101570008093AD0102C01092BC0081E09091BC004C
:101580008295880F880F807C9568892B8093BC009A
:10159000FF91EF919F918F910F900FBE0F901F9031
:1015A00018950C9435090C9434090C94E00A81FFC9
:1015B00002C02E9801C02E9A0C94360B81E008953B
:1015C00081E0089508950C94E20A1F93CF93DF936E
:1015D00000D000D01F92CDB7DEB749835A836B830A
:1015E0003091C30189819A81311114C0662359F069
:1015F000222349F00E94181A182F682F89819A8196
:101600000E94C11903C00E94EC19182F69817A81C8
:10161000812F04C00E94181A69817A810F900F905F
:101620000F900F900F90DF91CF911F910C94B00B02
:10163000FC01262F408151816281738184810C9449
:10164000E50ACF93DF93EC0160E00E94180BBE0126
:10165000DF91CF910C94E30A0E94741B811102C0A8
:101660000E94141C0C94D10A0C94D30A089581E0B2
:1016700008950C94370BCF93C82F0E94D70A8C2F54
:101680000E94390BCF91089508950E94CD140E94B5
:10169000440B2FEF84E39CE0215080409040E1F721
:1016A00000C000000C94D21D0F931F93CF93DF93C3
:1016B000EC0161E00E94180B8C01BE010E94D50A6A
:1016C000882309F442C0BE01C8010E94300E88235D
:1016D000E1F1BE01C8010E94710E8823B1F1BE0183
:1016E000C8010E949C0F882381F18A81882331F1EF
:1016F00001308CE5180751F00E3D8CE51807D9F044
:1017000001151C45D9F40E94450B1FC080915B0256
:10171000C82FC095C170C0FB80F980935B02CC23B9
:1017200029F081E795E00E9492080FC08FE595E0CF
:101730000E9492080BC00E94141C07C0CE01DF91CA
:10174000CF911F910F910C94DE0AC0E08C2FDF9196
:10175000CF911F910F91089580E090E00895089532
:10176000E72FF0E095E0899FE00DF11D112484E062
:10177000EE0FFF1F8A95E1F7E60FF11DEE0FFF1F39
:10178000E156FE4F859194910895880F991FFC01B1
:10179000EE57FA4F859194910895CF93DF930E946D
:1017A000B00B0E94E50CEC018115904508F041C09A
:1017B000C11580E4D80708F0D1C0C83ED10510F5A6
:1017C000C03ED10508F0FDC0C83AD10578F4C53A4D
:1017D000D10508F0A2C0C130D10509F4F2C008F467
:1017E000EEC0C430D10508F0ECC0E9C0CF3BD10554
:1017F00008F49BC0C03CD10508F4E1C0CE01805C78
:1018000091099EC0C11590E2D90758F4C11521E095
:10181000D20708F0D6C0C03FD10508F4D0C0D065CB
:10182000D0C0C11580E3D80708F08EC0CE019F70EC
:1018300087C0C11595E5D90708F043C0C11524E557
:10184000D20708F0A2C0C11582E5D80708F5C11576
:1018500091E5D90708F085C0CE0174E0969587958B
:101860007A95E1F783709C2F937021E030E002C0FD
:10187000220F331F9A95E2F73C68382BCF70C6953C
:10188000C69580E2C89FE0011124C22BD32B99C0DA
:101890009E01237033278C2F86958695C115D345DD
:1018A00008F064C0C1E0D0E002C0CC0FDD1F2A9573
:1018B000E2F720E2829FC0011124C82BD92BDC68FB
:1018C00080C0C11529E5D207A0F4C11588E5D80765
:1018D00008F060C0C11596E5D90708F070C08C2FDC
:1018E0000E94790D8F71C82FD0E0DC2FCC27D062F9
:1018F00068C0C1152AE5D20708F451C0CE01905640
:101900008115904208F05BC08D2F8F710E94790D78
:10191000DD27D0628F71D82B54C0C55AD0E0CC5B84
:10192000DE4FC881D0E0D0644CC0C85AD0E0CC0FA4
:10193000DD1FCA5EDE4F0990D881C02DD46441C03E
:101940000E94C50BEC013DC0CE019927D3FF03C017
:10195000EC01D86C36C0EC01D06C33C0DF70D06ABB
:1019600030C0DC2FCC27C16FD06A2BC0C1E0D0E0E3
:1019700002C0CC0FDD1F2A95E2F720E2829FC00152
:101980001124C82BD92BDA681CC0DC2FCC27C46FDC
:10199000D06A17C0DC2FCC27C06FD06A12C08C2F42
:1019A0008F700E94790D94E0D695C7959A95E1F7CE
:1019B000CF70D0E0DC2FCC27D069C82B02C0C0E0AC
:1019C000D0E0CE01DF91CF9108958238910569F181
:1019D000B0F48133910509F46DC048F48932910562
:1019E00009F463C08A32910509F469C0089585330A
:1019F000910509F455C089339105B9F00895833EE6
:101A0000910569F138F4803E9105B1F0823E91056F
:101A100009F10895863E9105A9F1873E9105B9F136
:101A2000843E910509F064C023C02091A70220FDE7
:101A30004FC021FD4DC008958091A70280FD44C094
:101A40008091A80280FF44C08091A70284FD42C01B
:101A500083EE4DC08091A70282FF38C0F5CF809100
:101A6000A70282FD33C08091A80280FD31C0ECCF77
:101A70008091A80281FF32C08091A70284FD2AC014
:101A800087EE35C08091A70283FF26C0F5CF8091F5
:101A9000A70283FD21C08091A80281FD1FC0ECCF69
:101AA0008091A70285FD1CC01DC08091A70285FD05
:101AB00019C016C08091A70286FD16C017C080917C
:101AC000A70286FD13C010C089E311C082EE0FC0CB
:101AD00080EE0DC080E00BC086EE09C084EE07C02A
:101AE00089E205C085E303C08AE201C081E390E09A
:101AF00008959091A70292FF0DC0282F28712830D9
:101B000019F4877F846006C0282F2471243011F4D3
:101B10008B7F886093FF0DC0282F2871283119F41E
:101B2000877E846106C0282F2471243111F48B7EB6
:101B300088612091A80220FF0DC0382F38713830FD
:101B400019F4877F816006C0382F3171313011F46C
:101B50008E7F886021FF0DC0282F2871283119F44D
:101B6000877E816106C0282F2171213111F48E7E7C
:101B7000886194FD877E08950F931F93CF93DF9321
:101B8000C62FD42F122FFC0182818823C9F06093C5
:101B9000B0010E94851D9093AF018093AE0180E259
:101BA0008C0F883008F057C0C77081E001C0880FE3
:101BB000CA95EAF7DF91CF911F910F910C943D12D6
:101BC0008091B001681330C08091AE019091AF0157
:101BD0000E949D1D8F3A910538F500E20D0FCD173B
:101BE000B9F080E28C0F883040F4C77081E001C00A
:101BF000880FCA95EAF70E944412083028F581E060
:101C00009D2F977001C0880F9A95EAF70E943D12A8
:101C1000812F0E942A120830F0F4D77081E001C0B1
:101C2000880FDA95EAF70AC080E28C0F883098F4C2
:101C3000C77081E001C0880FCA95EAF7DF91CF91A4
:101C40001F910F910C944412812FDF91CF911F911E
:101C50000F910C942A12DF91CF911F910F9108954B
:101C60009C01CB01233F4CE53407F9F078F4283D83
:101C7000FCE53F07B9F0293D4CE5340711F1273D5C
:101C80003C4531F526E241EE61EE1EC0253FFCE504
:101C90003F0799F070F0263F3C45D1F427E245EE2E
:101CA00066EE12C027E245EE0EC026E241EE60EE7F
:101CB0000BC027E245EE64EE07C026E241EE62EE7D
:101CC00003C028E241E065EE0E94BC0D80E008956B
:101CD000FC018281882319F01092B001089581E0FF
:101CE0000895CF93DF93EC01FB018281882309F4EF
:101CF0001FC1C230FCE5DF0708F41BC1C6319CE5FB
:101D0000D90738F09E012A5F3C452930310508F09B
:101D100010C10E94871B9093A8028093A702C03134
:101D2000ECE5DE0709F4C3C008F041C0C8308CE51B
:101D3000D80709F49AC0F0F4C430ECE5DE0709F4E2
:101D400087C068F4C2308CE5D80709F477C0C33087
:101D5000DC4509F0E3C08091A702826076C0C630FE
:101D6000ECE5DE0709F46EC008F07BC08091A702A5
:101D700088606BC0CC308CE5D80709F485C068F466
:101D8000CA30ECE5DE0709F474C008F079C00E949F
:101D9000CD148091A702806858C0CE308CE5D8075A
:101DA00009F476C008F07FC08091A7028BC0CB3FBA
:101DB000ECE5DE0709F44FC018F5C3318CE5D80710
:101DC00009F47DC078F4C131ECE5DE0709F473C095
:101DD000C231DC4509F0A2C00E94CD148091A70257
:101DE0008F7733C0C5318CE5D80709F472C008F489
:101DF00086C0CA3FDC4509F091C08091A8023EC070
:101E0000CF3FFCE5DF0709F45FC058F4CD3F9CE508
:101E1000D90709F444C008F43FC08091A802826049
:101E20002DC0C130FDE5DF0709F475C008F45DC0C1
:101E3000C230DD4509F072C080E06EC08091A7021B
:101E4000816003C08091A70280618093A70266C071
:101E50008091A70211C08091A80282608093A8029D
:101E60005DC08091A7028062F0CF8091A70280645C
:101E7000ECCF8091A70288608460E7CF8160EECFCD
:101E80008091A7028E7FE1CF8091A7028D7FDDCF69
:101E90008091A702877FD9CF8091A80218C0809136
:101EA000A8028D7FDBCF8091A7028F7ECECF80915D
:101EB000A7028F7DCACF8091A7028F7BC6CF80916A
:101EC000A702877F8B7FC1CF8091A8028D7F8E7FF5
:101ED000C5CF8091A70282FB222720F991E09227AB
:101EE00090FB82F990FB83F9B0CF8091A802982FE4
:101EF000909591708E7F892B90FB81F9AFCF0E94D6
:101F0000CD148091A70287FB222720F991E0922728
:101F100090FB87F99ACF81E00E94161C8091A7025E
:101F20009091A8020E94981B0E94CD1480E001C0ED
:101F300081E0DF91CF910895CF93DF9386319C4567
:101F400041F5EB010E94991A982F8A812091000196
:101F500030910101882379F09A7A81E009F480E0D8
:101F60008093B101911102C069E201C065E3C9012A
:101F70000E94D31C0AC08091B101811102C069E2A4
:101F800001C065E3C9010E94DE1C0E94E71A80E0DF
:101F900001C081E0DF91CF9108959093B7018093C4
:101FA000B6010895E091B601F091B701309721F0A4
:101FB0000190F081E02D099480E00895EF92FF9266
:101FC0001F93CF93DF93FC01A091B601B091B701AD
:101FD000109709F442C080911401882341F0809148
:101FE000A70287FF04C08081818385E08083EF01A1
:101FF0001296ED91FC911397CE01099580915B02A9
:1020000082FF2BC080FF04C08AE895E00E949208FE
:1020100018E084E8E82E85E0F82E80915B0280FFCE
:102020000BC088811F928F93FF92EF920E942B0921
:102030000F900F900F900F90115021961111EDCF2E
:1020400080915B0280FF09C082E895E0DF91CF912B
:102050001F91FF90EF900C949208DF91CF911F9108
:10206000FF90EF900895E091B601F091B70130979D
:1020700039F022E0DC012C930480F581E02D0994F5
:1020800008952091B4013091B5012817390771F0F6
:102090009093B5018093B401E091B601F091B7013E
:1020A000309721F00680F781E02D09940895209162
:1020B000B2013091B3012817390771F09093B30141
:1020C0008093B201E091B601F091B701309721F011
:1020D0000084F185E02D0994089585B7806885BF57
:1020E00085B7806885BF089508950C9474100C948A
:1020F00075100C9474100C9474100E946D100E9452
:1021000079100C94771081E008950C9483100E944C
:102110007C1D0E9437090E94F61D0C947B10CF9302
:10212000C82F80915B0282FF1EC080FF04C083EA3B
:1021300095E00E94920880915B0280FF0CC01F9284
:10214000CF938EE995E09F938F930E942B090F9078
:102150000F900F900F9080915B0280FF04C08CE97C
:1021600095E00E9492088C2FCF910C943B0B7F92AC
:102170008F929F92AF92BF92CF92DF92EF92FF9297
:102180000F931F93CF93DF93CDB7DEB72A970FB688
:10219000F894DEBF0FBECDBF0E9473090E94851068
:1021A000811111C08FEF89838A831B820E94851D54
:1021B0008160782F9D838C8349815A816B818D81C9
:1021C0000E9467114FC049EBA42E41E0B42E00E0FD
:1021D00010E0702E802F0E94300A6C01F501819072
:1021E00091905F01882699268114910431F40F5F44
:1021F0001F4F0530110569F7D5CF80915B0281FD36
:102200000E943D0A80E0EE24E394F12C94012E21FB
:102210003F21232B09F18E837F82CE20DF2081E0B6
:10222000CD2809F480E088870E94851D8160782F81
:102230009A8789874E815F8168858A850E946711A8
:10224000000F111FF801E754FE4F80819181E826AD
:10225000F926F182E08206C08F5FEE0CFF1C803110
:10226000A9F6C5CF0E940A200E94D20F9091B80112
:102270008917C9F00E94D20F8093B8012A960FB631
:10228000F894DEBF0FBECDBFDF91CF911F910F91AC
:10229000FF90EF90DF90CF90BF90AF909F908F9086
:1022A0007F900C948F102A960FB6F894DEBF0FBE65
:1022B000CDBFDF91CF911F910F91FF90EF90DF90F5
:1022C000CF90BF90AF909F908F907F900895CF93C5
:1022D000DF93CDB7DEB72B970FB6F894DEBF0FBEF6
:1022E000CDBF4F83588769877A878B87DE01119628
:1022F00086E0FD0111928A95E9F785E0FE013796A7
:1023000001900D928A95E1F749815A816B817C8118
:102310008D819E810E9486172B960FB6F894DEBFA2
:102320000FBECDBFDF91CF910895FC0180819181D7
:102330000E945A1A0895CF93882309F455C0C82FD4
:102340008CEF8C0F813AF8F48C2F0E9403258111B9
:102350004BC06C2F80910001909101010E94311CB3
:10236000882349F06C2F80910001909101010E9417
:10237000DE1C0E94E71A6C2F8091000190910101F0
:102380000E94D31C0CC080E28C0F883058F4C770B8
:1023900081E001C0880FCA95EAF70E949C1ACF918C
:1023A0000C94E71AEBE5EC0FE33040F4F0E0EB5867
:1023B000FE4F808190E0CF910C944110E8E5EC0F46
:1023C000E73150F4F0E0EE0FFF1FE95BFE4F808134
:1023D0009181CF910C945710C03F30F08C2F0E9408
:1023E000901ECF910C947D1FCF910895882389F181
:1023F0009CEF980F913A40F4682F809100019091E2
:1024000001010E94DE1C0DC090E2980F983058F434
:10241000877091E001C0990F8A95EAF7892F0E9491
:10242000A21A0C94E71A9BE5980F933020F480E0F1
:1024300090E00C94411098E5980F973120F480E0DB
:1024400090E00C945710803F20F00E94F81E0C94EE
:102450007D1F0895CF93C82F0E949B11C93349F463
:102460002FEF87EE93E0215080409040E1F700C0CD
:1024700000008C2FCF910C94F611882321F00E943C
:102480009C1A0C94E71A0895882321F00E94A21A3E
:102490000C94E71A0895CF92DF92EF92FF920F9378
:1024A0001F93CF93DF937C01062FC72FFC0115816B
:1024B00012951F70D281D1110E94B91A0E94921AEE
:1024C000882399F0DD2389F08C2F807F803421F0E0
:1024D00080E2800F883048F082E00E94311B0E9429
:1024E000921A91E0D82ED92601C0D12CCC2EC294BC
:1024F0008FE0C8228C2D90E0FC01EA5AFF4F0C942B
:102500002F2E8C2F807FCF70882311F0C295C07F33
:10251000DD2399F0CC2309F48DC180E2800F88304F
:1025200010F0011104C08C2F0E949C1A03C08C2F44
:102530000E94AC1A0E94E71A7DC1802F0E94F611FA
:10254000CC2309F49CC180E2800F883010F0011187
:1025500004C08C2F0E94A21A03C08C2F0E94B21AB2
:102560000E94E71A8CC18C2F807FCF70803211F0CF
:10257000C295C07F002319F00130C9F022C0DD23CD
:1025800071F0112341F0113031F40E94CC1A8C2BE0
:102590000E94D41A74C10E94CC1A8C2B1DC0112326
:1025A00019F0113009F46BC10E94DD1A25C0DD233A
:1025B00021F0163008F063C10EC0153008F05FC17D
:1025C0001BC0DD2361F0112331F0F701858180FF0D
:1025D00031C18F7085838C2F0E943D1250C1112311
:1025E00059F0093309F037C1FFEF27EE83E0F150CE
:1025F00020408040E1F72DC18C2F0E9444123FC142
:102600008C2F86958695837019F0813061F037C1E3
:10261000DD2321F0802F9C2F937002C080E090E09A
:102620000E94411034C1DD2321F0802F9C2F937034
:1026300002C080E090E00E94571029C1802FDD2366
:1026400019F00E94901E02C00E94F81E0E947D1F79
:102650001EC18C2F837009F045C0D11114C1402FC9
:10266000429546954770440F440F602F6F70862F38
:1026700090E0A0E0B0E0042E04C0880F991FAA1FCC
:10268000BB1F0A94D2F704FF10C00FE010E020E057
:1026900030E004C0000F111F221F331F4A95D2F7EC
:1026A000009510952095309503C000E010E098014A
:1026B000C695C695C370BC01CD01602B712B822BD2
:1026C000932BC23049F058F4C13019F00E94D7184A
:1026D000DAC00E94C518D7C00E94E918D4C00E9471
:1026E000C318D1C0DD2319F08C2F817001C08695ED
:1026F000882309F4C8C0402F429546954770440F7F
:10270000440F602F6F70862F90E0A0E0B0E0042EA1
:1027100004C0880F991FAA1FBB1F0A94D2F704FF99
:1027200010C00FE010E020E030E004C0000F111FE7
:10273000221F331F4A95D2F70095109520953095AA
:1027400003C000E010E09801C695C695C370BC01B7
:10275000CD01602B712B822B932BC23049F058F4A2
:10276000C13019F00E949C198EC00E948A198BC03A
:102770000E94AE1988C00E94FD1885C0CF70DD236D
:1027800039F08C2F0E942319802F0E943D127BC0AC
:10279000802F0E9444128C2F0E94441974C0023F63
:1027A00001F128F4003F41F0013FA1F03FC0033F99
:1027B000F9F0043F39F13AC0DD2341F0153008F05B
:1027C0005EC08C2F8F710E94691959C0163008F0B5
:1027D00056C0F7CFDD2339F08C2F8F710E9423195B
:1027E0004EC0DD23C9F38C2F8F710E94441947C05E
:1027F000DD2329F08C2F8F710E940E1940C00E949A
:1028000009193DC0DD2349F0CF718C2F0E94231997
:1028100063E08C2F0E941C1B32C081E00E94311BA0
:10282000123068F182E00E94311B29C0DD2331F0B3
:10283000112391F2802F0E949B1121C0112399F244
:10284000093349F49FEFE7EEF3E09150E040F040A8
:10285000E1F700C00000802F0E94F61110C04C2F3D
:102860004F70602FC7010E94AC0B0E9434180FC03C
:102870004C2F4F70602FC7010E94AF0B08C088EF2C
:102880008C0D843020F40E94D20F0E943B0BDD207F
:10289000C9F00E948E1A80FD15C0F70112820E94B5
:1028A000881A0E942319C7010E9483140E94881A63
:1028B000DF91CF911F910F91FF90EF90DF90CF901C
:1028C0000C944419DF91CF911F910F91FF90EF90DD
:1028D000DF90CF9008950F931F93CF93DF93EC0178
:1028E000688179818A810E94651A8C010E94C019D1
:1028F0000E94B118B801CE010E944B12DF91CF9116
:102900001F910F910895CF93DF93EC0198818981F6
:102910002B813C81232B31F08F3F31F481E09F3FAD
:1029200019F403C081E001C080E080FD19C0CE0130
:102930000E94540B81110CC00E94921A882381F0CE
:102940008A81882369F082E0DF91CF910C94311B5A
:10295000CE010E946B14CE01DF91CF910C94210B1C
:10296000DF91CF9108950E94B91A0E94C91A0E945E
:10297000E71A0E9429210E947D1F80E090E00E94BA
:10298000411080E090E00C945710809100019091EC
:1029900001010E94E91C0C94B3140E94A91A0C9422
:1029A000C514E92FE295EF704E2F50E0FA013297EF
:1029B000EE30F105B0F4EA59FF4F0C942F2E803F12
:1029C00091F018F4883E68F40EC0843F51F40BC0B7
:1029D000883E48F0813F29F406C093FB882780F9A0
:1029E000089580E0089581E008950E945A1A0E9497
:1029F000D1140895CF93DF9300D000D01F92CDB7AC
:102A0000DEB70F900F900F900F900F90DF91CF9146
:102A10000895CF93DF9300D000D000D0CDB7DEB7BC
:102A200026960FB6F894DEBF0FBECDBFDF91CF91D3
:102A300008951F93CF93DF93C091C40116E0809156
:102A4000C501C81799F0D0E01C9FF0011D9FF00D43
:102A50001124EA53FE4F4081518162817381848148
:102A600095810E9409152196C770E9CFDF91CF911A
:102A70001F9108954091F6015091F7016091F8017E
:102A80007091F9018091FA019091FB010C94091564
:102A90000F931F93CF93DF938091FB0182958F70EB
:102AA00009F05DC08091F801882309F458C0809135
:102AB000C4011091C5016091F6017091F701C091B8
:102AC000F901D091FA0191E06F3F09F090E0292FD0
:102AD00006E0811709F443C0209721F07F3F21F0E1
:102AE00030E003C031E001C0322F90E030FD34C04F
:102AF000089FF001099FF00D1124DF01AA53BE4F7A
:102B000011963C911197371327C03C91361324C07E
:102B100012963C91129731111FC013964D915C9102
:102B200014974C1B5D0B4F3A5105B0F48091FB019B
:102B30008F7080618093FB01E553FE4F80818F7021
:102B40008061808386EF91E00E948314DF91CF91B2
:102B50001F910F910C94191501968770BACFDF91D0
:102B6000CF911F910F9108959F92AF92BF92CF92F4
:102B7000DF92EF92FF920F931F93CF93DF93CDB726
:102B8000DEB761970FB6F894DEBF0FBECDBF8C01E4
:102B900085E0F801DE011D9601900D928A95E1F71E
:102BA000F80140815181E2809091F6016091F70136
:102BB0002091F9013091FA012115310531F06F3F73
:102BC00031F481E09F3F19F403C081E001C080E04F
:102BD000F82FF1709F2E80FD46C1F801A380B480CC
:102BE00086EFC82E81E0D82EF090F801F501E21BA7
:102BF000F30BFF2009F4DFC08091FB01EF3AF105F0
:102C000008F09BC0282F207F09F052C0561313C034
:102C1000491311C0FE2CE1100EC08F7080618093AB
:102C2000FB010E943A15C6010E9483148091FB01AA
:102C3000F801858358C1AB2831F05F3F31F481E062
:102C40004F3F19F403C081E001C080E080FD03C064
:102C500081E08E2502C080E090E0F82FF170FF2E19
:102C600080FF1CC08091C4012091C50136E082170D
:102C700009F417C190E0389FF001399FF00D11243D
:102C8000EA53FE4F6181561306C06081461303C0AC
:102C90006281E61203C001968770E9CFFE2CEE2018
:102CA00009F421C18091FB0181608093FB015AC02E
:102CB000561306C0491304C0E11002C0F8019FC0BA
:102CC0004D875E878D859E850E94F514882379F156
:102CD000EE2069F12091FB01822F82958F7090E0A8
:102CE000029774F08091F6019091F70198878F8395
:102CF0001986BB86AA862C87CE0107960E9483146C
:102D000086E0F801A6EFB1E001900D928A95E1F717
:102D10000E9448150E943A150DC0561729F14D879B
:102D20005E878D859E850E94F51481112CC0C80197
:102D30000E948314FF24F394D6C0282F207F69F7C4
:102D40007A2DB98AA88A6E2D89890E94FA1486EF95
:102D500091E00E94831486E0F60111928A95E9F7CA
:102D60000E943A15F12CBFC04913D9CFE110D7CF3B
:102D7000F8018583C8010E94831486E0F601119250
:102D80008A95E9F7B0C0EE2091F22091FB01822FE5
:102D900082958F7090E002970CF4B2CF8091F6018B
:102DA0009091F7019A8389831B82BD82AC822E8326
:102DB000CE010196A3CFEF3AF10508F047C0FE2CF3
:102DC000EE2009F4B4CF561330C049132EC0209121
:102DD000FB0120FD21C0822F82958F70482F50E08B
:102DE00041155105C9F0F80125834F30510541F0D7
:102DF0008F5F982F9295907F822F8F70892B85837C
:102E0000C8010E94831486E0F801A6EFB1E00190AA
:102E10000D928A95E1F742C086E0F801A6EFB1E095
:102E200001900D928A95E1F75EC04D875E878D8592
:102E30009E850E94F514811163CF8091FB01816012
:102E40008093FB01C8010E9483144DC07A2DB98A7A
:102E5000A88A6E2D89890E94FA1486E0F6011192E3
:102E60008A95E9F71BC0EE2009F461CF4D875E8794
:102E70008D859E850E94F514F82E882309F457CF7E
:102E800086E0F801A6EFB1E001900D928A95E1F796
:102E900086EF91E00E9495110E9448150E943A1514
:102EA00022C04D875E878D859E850E945A1A292FE4
:102EB00022952F70223028F49F7039F0811105C0BF
:102EC0000BC0243028F49F7049F4805E883020F0D5
:102ED000C8010E9483149F2CF92C05C0F80195812C
:102EE000907F99F7F9CF8F2D61960FB6F894DEBFDA
:102EF0000FBECDBFDF91CF911F910F91FF90EF904B
:102F0000DF90CF90BF90AF909F9008951F93CF9385
:102F1000DF93CDB7DEB72C970FB6F894DEBF0FBEA8
:102F2000CDBF4F83588769877A878B879C87CE016F
:102F300007960E94B4158823D1F09F8188852A8541
:102F40003B85232B31F08F3F31F481E09F3F19F413
:102F500003C081E001C080E080FD47C04F815885FB
:102F600069857A858B859C850E9409153EC086E01F
:102F7000FE013796DE01119601900D928A95E1F7D8
:102F8000FF81E8856A857B856115710531F0EF3F2A
:102F900031F481E0FF3F19F403C081E001C080E01B
:102FA00080FD23C02091C50130E0C90101968770E2
:102FB00099274091C40150E084179507F1F1F983F6
:102FC000EA837D836C8396E0929FD001939FB00D3E
:102FD0001124AA53BE4FFE01319601900D929A958D
:102FE000E1F78093C5010E94191516E08091C40194
:102FF0009091C501891771F1189FC00111248A535E
:103000009E4F0E94B415882329F1E091C4011E9FB0
:10301000F0011124EA53FE4F408151816281738196
:10302000848195810E9409158091C40190E00196E8
:10303000877099278093C401D9CF0E94CD14109234
:10304000C5011092C401E6EFF1E086E0DF011D92B8
:103050008A95E9F72C960FB6F894DEBF0FBECDBF68
:10306000DF91CF911F910895EF92FF920F931F93DD
:10307000CF93DF938C01892B09F46CC0F12CEE24E3
:10308000E394E8012196F8018491843740F4843078
:1030900008F051C0813081F0823019F15BC0853772
:1030A00009F444C0A8F19CE7980F903708F052C08B
:1030B0008F770E94F61141C00E5F1F4FFE01849171
:1030C00090E2980F983050F48770FE2D01C0FF0FEA
:1030D0008A95EAF78F2F0E94BC1A14C00E949B1198
:1030E0002DC00E5F1F4FFE01849190E2980F983023
:1030F00060F48770FE2D01C0FF0F8A95EAF78F2FCD
:103100000E94C21A0E94E71A19C00E94F61116C046
:103110000E5F1F4FFE01C491CC2381F08FE99FE029
:103120000197F1F700C00000C150F6CF0E5F1F4FAE
:10313000FE01F49003C00E949B118E018F2D882305
:1031400009F49FCFEFE9FFE03197F1F700C00000ED
:103150008150F5CFDF91CF911F910F91FF90EF90AC
:103160000895089508950C94B2180C94B3180E9411
:10317000B5186093320270933302809334029093B7
:1031800035020C94B3140C94B7180F931F9300914D
:103190003202109133022091340230913502602BBB
:1031A000712B822B932B1F910F910C94B7180F93B7
:1031B0001F9300913202109133022091340230911A
:1031C000350260237123822393231F910F910C9466
:1031D000B7180F931F930091320210913302209180
:1031E00034023091350260277127822793271F917F
:1031F0000F910C94B7180C94B2180E94FB186093AE
:103200002E0270932F0280933002909331020C941F
:10321000B31460E070E0CB010C94FD180F931F9382
:1032200041E050E060E070E08A019B0104C0000FC3
:10323000111F221F331F8A95D2F7C901B8011F91B0
:103240000F910C94FD180F931F9341E050E060E044
:1032500070E004C0440F551F661F771F8A95D2F790
:1032600080912E0290912F02A0913002B0913102F4
:103270008A019B01082B192B2A2B3B2BC901B80172
:103280001F910F910C94FD180F931F9341E050E094
:1032900060E070E004C0440F551F661F771F8A95D9
:1032A000D2F7409550956095709580912E0290913F
:1032B0002F02A0913002B09131028A019B010823B4
:1032C00019232A233B23C901B8011F910F910C94A4
:1032D000FD180F931F9341E050E060E070E004C0E0
:1032E000440F551F661F771F8A95D2F780912E02D3
:1032F00090912F02A0913002B09131028A019B017E
:10330000082719272A273B27C901B8011F910F91C8
:103310000C94FD180F931F9300912E0210912F0211
:103320002091300230913102602B712B822B932B34
:103330001F910F910C94FD180F931F9300912E0273
:1033400010912F02209130023091310260237123BD
:10335000822393231F910F910C94FD180F931F93B9
:1033600000912E0210912F022091300230913102F3
:1033700060277127822793271F910F910C94FD18C6
:10338000089520E1929F800D1124E82FE695E6959F
:10339000E695877051E001C0550F8A95EAF785E000
:1033A000E89FF0011124E450FE4F20E030E070E08F
:1033B0004081CB01022E02C0969587950A94E2F7D0
:1033C0008170819584278523842781932F5F3F4FC8
:1033D0002530310569F7089520E1929F800D112471
:1033E000682F669566956695982F977085E0689F1B
:1033F000B001112440E050E080E0FB01E40FF51F34
:10340000E450FE4F208130E0092E02C0369527950A
:103410000A94E2F721703327042E01C0220F0A9488
:10342000EAF7822B4F5F5F4F4530510531F7089522
:10343000BF92CF92DF92EF92FF920F931F93CF93A1
:10344000DF938C01C0902E02D0902F02E0903002CA
:10345000F09031028091320290913302A0913402B7
:10346000B0913502C82AD92AEA2AFB2ACFE1D0E056
:10347000D701C6010C2E04C0B695A79597958795E0
:103480000A94D2F780FD04C0219790F7B12C07C0B1
:10349000BC2EB8018C2F0E94CD0B0197A9F38B2D68
:1034A000DF91CF911F910F91FF90EF90DF90CF9020
:1034B000BF900895CF93DF93EC010E94181ABE01CC
:1034C0000E94CD0BDF91CF9108951F93CF93DF938F
:1034D000EB019091C301992321F0CB010E945A1A6C
:1034E00013C0882349F0CB010E94181A182F682FA7
:1034F000CE010E94C11904C0CB010E94EC19182F03
:10350000BE01812F0E94CD0BDF91CF911F910895B5
:10351000809136028595859585950895809136022E
:103520008770089590913602977081E009F480E0E9
:10353000089580915A02089590915A02892B8093A0
:103540005A020895809590915A02892380935A02D5
:10355000089510925A02089590915902892B8093F0
:1035600059020895809590915902892380935902B8
:10357000089510925902089590915802892B8093D2
:10358000580208958095909158028923809358029B
:103590000895109258020895809137020895089571
:1035A0000C94CF1A0C94D01A90913702981721F0EE
:1035B000809337020C94D21A0895809137028823A1
:1035C00029F01092370280E00C94D21A0895E0910D
:1035D0000001F091010180915A028083E091000185
:1035E000F0910101908180915902892B8083E091B3
:1035F0000001F0910101908180915802892B808314
:1036000080913702882381F0E0910001F09101015F
:103610009081892B808380910001909101010E940B
:103620001B1C81110E94DD1A809100019091010103
:103630000C94DE0F0C94CF1A98E0899F900111240E
:10364000262B209336020E942319809136028595FD
:10365000859585950C941A1B1092360280E00C9487
:103660001A1B209136028095822380933602982F70
:10367000977079F430E0482F082E000C550B241772
:10368000350739F08595859585950E9444190C94E8
:103690002C1B089590939301809392010895829535
:1036A000982F937344E0949F900111248C7C86950D
:1036B0008695282B822F8575880F2A7A2695822B4E
:1036C0000895CF93DF93D92F0E944F1BC82F8D2FC2
:1036D0000E944F1B2C2F30E0322F2227A901482BAC
:1036E000CA01DF91CF91089580E090E00E94512EB1
:1036F00021E08C3E9E4F09F020E0822F089582E069
:1037000090E00C94492E83E090E00C94492ECF93E6
:1037100084E090E00E94492EC82F81E290E00E9450
:10372000492E2C2F30E0A901582BCA01CF910895C2
:10373000CF93C92F682F84E090E00E94572E6C2F02
:1037400081E290E0CF910C94572EAB01BC018FE049
:1037500090E00C94692EAB01BC0183E190E00C94E5
:10376000692E60E070E0CB010C94AB1B60E070E070
:10377000CB010E94A51B0C94B11B6CEE7EEF80E088
:1037800090E00E94752E60E082E090E00E94572E4B
:1037900060E083E090E00E94572E10923202109277
:1037A0003302109234021092350260E084E090E01F
:1037B0000E94572E60E081E290E00E94572E60E068
:1037C00085E090E00E94572E60E086E090E00E9445
:1037D000572E6FEF87E090E00E94572E40E050E0B8
:1037E000BA0188E090E00E94692E60E08DE090E0F0
:1037F0000E94572E40E050E0BA0188E190E00E941C
:10380000692E60E087E190E00E94572E40E050E092
:10381000BA018CE190E00E94692E60E080E290E0C5
:103820000E94572E0C94B61B0C94BD1B682F8EE083
:1038300090E00C94572EFC0132968091140188235D
:1038400031F08091A70287FF02C09EE101C096E09F
:1038500080E0915028F021912223D9F38F5FF9CF96
:103860000895662351F1209114012223E9F020915B
:10387000A70227FF19C0462F4695469546954E311B
:10388000E0F4677021E030E002C0220F331F6A9538
:10389000E2F7FC01E40FF11D828190E02823392337
:1038A00081E0232B69F409C0FC013296089621912E
:1038B000621729F0E817F907D1F780E0089581E051
:1038C00008959C01FC0132969FEF80E041914617DC
:1038D00089F09F3F19F4411101C0982F8F5F863006
:1038E000A9F79F3F39F0F901E90FF11D97FDFA950E
:1038F0006283089508959C012A5F3F4FFC01428135
:10390000461301C01282019682179307B9F70895F2
:10391000262F2695269526952E3170F4FC01E20F70
:10392000F11D677021E030E001C0220F6A95EAF7CF
:103930008281282B2283089580915B0280FF0CC036
:103940001F926F9384ED95E09F938F930E942B09B4
:103950000F900F900F900F900895262F2695269583
:1039600026952E3178F4FC01E20FF11D677021E0FD
:1039700030E001C0220F6A95EAF720958281282362
:103980002283089580915B0280FF0CC01F926F9389
:1039900086EB95E09F938F930E942B090F900F90D9
:1039A0000F900F90089520911401222329F0209167
:1039B000A70227FD0C94881C0C94611C2091140113
:1039C000222329F02091A70227FD0C94AD1C0C9412
:1039D0007B1C20911401FC013296222331F080914E
:1039E000A70287FF02C08EE101C086E0DF011D92C1
:1039F0008A95E9F7089508950C94FB1C0C94FB1C20
:103A0000CF930E94FE1C0E9473090E94FC1CC0E020
:103A10008C2F0E94300A892B29F4CF5FC530C1F763
:103A200080E001C081E0CF9108950C94FB1C0C94C0
:103A3000151D0E94171D8091AD02843049F110922E
:103A40005C0220E488E190E00FB6F894A89580939A
:103A500060000FBE2093600080E00E943B0B0E943C
:103A6000171D83B7817F846083BF83B7816083BF65
:103A70007894889583B78E7F83BF0FB6F894A89506
:103A800080916000886180936000109260000FBE9A
:103A900008950C94FB1C0E94CD140E94D20F0E942A
:103AA0003B0B0C94491D1F920F920FB60F921124DD
:103AB0008F939F93AF93BF9380915C02811113C04A
:103AC0008091A3029091A402A091A502B091A602B8
:103AD0004196A11DB11D8093A3029093A402A093CF
:103AE000A502B093A602BF91AF919F918F910F90C5
:103AF0000FBE0F901F90189582E084BD93E095BD96
:103B00009AEF97BD80936E0008952FB7F894809137
:103B1000A3029091A402A091A502B091A6022FBF8A
:103B200008952FB7F8946091A3027091A402809138
:103B3000A5029091A6022FBF08959C014FB7F8945B
:103B40008091A3029091A402A091A502B091A60237
:103B50004FBF821B930B089578941F920F920FB65C
:103B60000F9211248F939F93AF93BF938091A302E1
:103B70009091A402A091A502B091A6020196A11D68
:103B8000B11D8093A3029093A402A093A502B093C9
:103B9000A602BF91AF919F918F910F900FBE0F9092
:103BA0001F90189581E08093E00080E28093D80018
:103BB0001092C9008FE19EE40197F1F700C0000068
:103BC00087E090EBDC018093B6029093B702A0935C
:103BD000B802B093B9029CE088E10FB6F894A895BA
:103BE000809360000FBE90936000FFCF0E94741B13
:103BF000811102C00E94141C0E947F1B80935B02F3
:103C00000E94871B9093A8028093A7020E94831BA7
:103C1000682F70E080E090E00C94C31880916402FB
:103C200080FF0BC06091070185E0689FB0011124FF
:103C300075956795759567952BC081FF09C0609153
:103C4000070185E0689FB00111247595679520C034
:103C500082FF07C06091070185E0689FB0011124D1
:103C600017C0909163029923D1F0609106019617D5
:103C700088F72091070185E0289F90011124929FE9
:103C8000A001939F500D112470E0CA010E941B2EC9
:103C90006038710540F46115710519F406C065E0DE
:103CA00070E0862F08958FE7089581E00895809150
:103CB000640280FF08C06091030170E0759567950C
:103CC0007595679521C081FF06C06091030170E082
:103CD0007595679519C082FF04C06091030170E07B
:103CE00010C090916302992399F060910201961798
:103CF000A0F780910301899FC001112470E00E9408
:103D00001B2E6038710540F46115710519F406C069
:103D100061E070E0862F08958FE7089581E00895AF
:103D2000803F21F40E940E1E819504C0813F29F43A
:103D30000E940E1E809368020895823F21F40E9423
:103D40000E1E819504C0833F29F40E940E1E8093AD
:103D500067020895893F19F40E94571E05C08A3FE3
:103D600031F40E94571E81958093690208958B3F1C
:103D700021F40E94571E819504C08C3F29F40E94B3
:103D8000571E80936A020895843F21F48091660251
:103D9000816017C0853F21F480916602826011C066
:103DA000863F21F48091660284600BC0873F21F436
:103DB00080916602886005C0883F31F48091660278
:103DC00080618093660208958D3F21F480916402A2
:103DD00081600BC08E3F21F480916402826005C037
:103DE0008F3F29F480916402846080936402089577
:103DF000803F39F48091680287FF6CC0109268029E
:103E000069C0813F29F4809168021816BCF362C032
:103E100090916702823F29F497FF5CC0109267027D
:103E200059C0833F19F41916CCF354C0893F41F4AB
:103E30008091690218160CF04DC0109269024AC0B8
:103E40008A3F29F48091690287FF44C0F6CF8B3FF7
:103E500039F480916A0287FF3DC010926A023AC02D
:103E60008C3F29F480916A021816BCF333C0843F5A
:103E700021F4809166028E7F17C0853F21F48091E6
:103E800066028D7F11C0863F21F4809166028B7F90
:103E90000BC0873F21F480916602877F05C0883F71
:103EA00031F4809166028F7E8093660213C08D3F4D
:103EB00021F4809164028E7F0BC08E3F21F48091AB
:103EC00064028D7F05C08F3F29F4809164028B7F4F
:103ED000809364028091670281110EC08091680214
:103EE00081110AC080916902811106C080916A0225
:103EF000811102C010926302089580915B0283FFDA
:103F00007EC089E196E00E949208809166021F922D
:103F10008F9384E196E09F938F930E942B0982E117
:103F200096E00E94920880916702282F082E000CCC
:103F3000330B3F938F938FE096E09F938F930E9474
:103F40002B098DE096E00E94920880916802282F4C
:103F5000082E000C330B3F938F938AE096E09F93DB
:103F60008F930E942B0988E096E00E94920880912E
:103F70006902282F082E000C330B3F938F9385E0A6
:103F800096E09F938F930E942B0983E096E00E9416
:103F9000920880916A02282F082E000C330B3F9361
:103FA0008F9380E096E09F938F930E942B098DEF73
:103FB00095E00E949208809163021F928F938AEF8E
:103FC00095E09F938F930E942B0988EF95E00E94C4
:103FD0009208809164021F928F9385EF95E09F93E2
:103FE0008F930E942B0982EF95E00E9492088DB773
:103FF0009EB74C960FB6F8949EBF0FBE8DBF85E658
:1040000092E00E9433100E94851D9093620280937B
:1040100061020895CF93DF9300D000D000D0CDB7D8
:10402000DEB786E0E5E6F2E0DE01119601900D9242
:104030008A95E1F780916702811105C0809168023D
:10404000882309F47AC080915F02909160020E94F7
:104050009D1DAC0190916302992339F020910801D4
:1040600030E02417350758F068C0209109018AE034
:10407000289F900111242417350718F05EC09F3F38
:1040800019F09F5F909363021092690210926A0286
:1040900080916702181624F40E940E1E8093670216
:1040A0008091670287FF05C00E940E1E8195809354
:1040B000670280916802181624F40E940E1E8093F5
:1040C00068028091680287FF05C00E940E1E8195DC
:1040D00080936802309167023323E1F020916802F7
:1040E0002223C1F045EB3403C0011124992319F0B8
:1040F0009093670203C081E08093670235EB23034E
:10410000C0011124992319F09093680203C081E043
:10411000809368020E947D1F8091610290916202EB
:104120009093600280935F0286E0FE013196A5E6DF
:10413000B2E001900D928A95E1F7809169028111B8
:1041400005C080916A02882309F47AC080915D02DB
:1041500090915E020E949D1DAC0190916302992393
:1041600039F02091040130E02417350758F068C079
:10417000209105018AE0289F90011124241735071A
:1041800018F05EC09F3F19F09F5F909363021092FA
:1041900067021092680280916902181624F40E9446
:1041A000571E809369028091690287FF05C00E94B3
:1041B000571E81958093690280916A02181624F433
:1041C0000E94571E80936A0280916A0287FF05C091
:1041D0000E94571E819580936A02309169023323B1
:1041E000E1F020916A022223C1F045EB3403C001C3
:1041F0001124992319F09093690203C081E0809300
:10420000690235EB2303C0011124992319F090931F
:104210006A0203C081E080936A020E947D1F809140
:1042200061029091620290935E0280935D0286E04B
:10423000FE013196A5E6B2E001900D928A95E1F774
:1042400026960FB6F894DEBF0FBECDBFDF91CF919B
:104250000895E5E6F2E086E0DF011D928A95E9F730
:10426000109263021092640208958CE398E00E9419
:1042700092081F9281E08F931F9285E08F938EEEBC
:1042800097E09F938F930E942B090F900F900F90B0
:104290000F900F900F9008958330E9F128F481304A
:1042A00061F0823009F10895853009F462C008F4A4
:1042B00049C0863009F474C0089580910901262F01
:1042C00030E0280F311D2F3F310524F4680F609333
:1042D000090103C08FEF80930901809109011F92AA
:1042E0008F9387E297E072C080910801262F30E01B
:1042F000280F311D2F3F310524F4680F609308010A
:1043000003C08FEF80930801809108011F928F9363
:1043100085E197E05BC080910701262F30E0280FF0
:10432000311D2F3F310524F4680F6093070103C04E
:104330008FEF80930701809107011F928F9382E096
:1043400097E044C080910601262F30E0280F311DF0
:104350002F3F310524F4680F6093060103C08FEFEF
:1043600080930601809106011F928F938DEE96E057
:104370002DC080910301262F30E0280F311D2F3FE3
:10438000310524F4680F6093030103C08FEF80931D
:104390000301809103011F928F9384ED96E016C074
:1043A00080910201262F30E0280F311D2F3F31056B
:1043B00024F4680F6093020103C08FEF8093020121
:1043C000809102011F928F9389EB96E09F938F93C8
:1043D0000E942B090F900F900F900F90089583303B
:1043E00081F128F4813059F08230D1F00895853080
:1043F00009F449C0B8F1863009F456C00895809197
:104400000901681720F4861B8093090102C01092ED
:104410000901809109011F928F938AEA96E054C0A6
:1044200080910801681720F4861B8093080102C060
:1044300010920801809108011F928F9388E996E0FD
:1044400043C080910701681720F4861B8093070101
:1044500002C010920701809107011F928F9385E897
:1044600096E032C080910601681720F4861B809385
:10447000060102C010920601809106011F928F93DF
:1044800080E796E021C080910301681720F4861B25
:104490008093030102C010920301809103011F92D7
:1044A0008F9387E596E010C080910201681720F491
:1044B000861B8093020102C01092020180910201CA
:1044C0001F928F938CE396E09F938F930E942B090A
:1044D0000F900F900F900F900895CF93C82F1F92B9
:1044E0008F9381E499E09F938F930E942B0981E041
:1044F00090E0A0E0B0E0BC01CD0104C0660F771FE2
:10450000881F991FCA95D2F70E94C3180F900F9069
:104510000F900F90CF910C94CD14CF93DF93482F31
:1045200050E0FA013597EF33F10508F054C2EC582A
:10453000FF4F0C942F2E85E99EE00E94920881ED9A
:104540009DE00E9492080E94831B1F928F938EEC25
:104550009DE09F938F930E942B098CEC9DE00E941D
:1045600092080E947F1BC82F89EB9DE00E94920851
:104570001F92CF9384EB9DE09F938F930E942B0912
:1045800082EB9DE00E94920888EA9DE00E949208DA
:104590008C2F81701F928F9385EA9DE09F938F935C
:1045A0000E942B0983EA9DE00E94920889E99DE020
:1045B0000E949208C1FB882780F91F928F9386E999
:1045C0009DE09F938F930E942B0984E99DE00E94B8
:1045D000920888E89DE00E949208C2FB882780F933
:1045E0001F928F9385E89DE09F938F930E942B09E4
:1045F00083E89DE00E9492088AE79DE00E9492086D
:10460000C3FBCC27C0F91F92CF9387E79DE09F9310
:104610008F930E942B0985E79DE00E9492080E94DB
:10462000871BEC0181E69DE00E949208DF93CF9307
:104630008CE59DE09F938F930E942B098AE59DE076
:104640000E94920881E49DE00E9492088C2F817064
:104650001F928F938EE39DE09F938F930E942B096F
:104660008DB79EB780960FB6F8949EBF0FBE8DBFD4
:104670008CE39DE00E94920885E29DE00E949208F2
:10468000C1FB882780F91F928F9382E29DE09F9360
:104690008F930E942B0980E29DE00E9492088EE099
:1046A0009DE00E9492088D2F81701F928F938BE066
:1046B0009DE09F938F930E942B0989E09DE00E94CB
:1046C000920887EF9CE00E949208D695D1701F92C5
:1046D000DF9384EF9CE09F938F930E942B0982EFDE
:1046E0009CE00E94920880EE9CE00E949208C2FB2F
:1046F000882780F91F928F938DED9CE09F938F9375
:104700000E942B098BED9CE00E94920889EC9CE0B2
:104710000E949208C3FB882780F91F928F9386EC32
:104720009CE09F938F930E942B0984EC9CE00E9455
:1047300092088AEB9CE00E949208C4FB882780F9CB
:104740001F928F9387EB9CE09F938F930E942B097E
:1047500085EB9CE00E94920883EA9CE00E9492080C
:10476000C5FB882780F91F928F9380EA9CE09F9376
:104770008F930E942B098EE99CE00E94920882E8A8
:104780009CE00E949208C6FB882780F91F928F93B5
:104790008FE79CE09F938F930E942B098DB79EB764
:1047A00080960FB6F8949EBF0FBE8DBF8DE79CE03C
:1047B0000E94920885E79CE00E949208C7FBCC27E4
:1047C000C0F91F92CF9382E79CE09F938F930E9442
:1047D0002B0980E79CE00E9492080F900F900F90A9
:1047E0000F9006C084E89EE00E9492080E94141C6C
:1047F000C1E0F6C08EEB9AE074C080915B02817FCD
:104800008E7F80935B0287E99AE00E94920880E89D
:104810009EE00E94920881E080936C02E9CF84E6DA
:104820009EE00E9492080E94450BE2CF80915B02BD
:10483000C82FC095C170C0FB80F980935B02CC2368
:1048400019F088E59EE0B9C08BE49EE00E949208D2
:1048500080915B02897F877F80935B02C9CF9091B3
:104860005B0291FBCC27C0F981E0C827892FC0FBF0
:1048700081F980935B02CC2319F08EE39EE027C080
:1048800080E39EE02EC090915B0292FBCC27C0F9A2
:1048900081E0C827892FC0FB82F980935B02CC237B
:1048A00019F081E29EE013C081E19EE01AC0909170
:1048B0005B0293FBCC27C0F981E0C827892FC0FB9E
:1048C00083F980935B02CC2351F085E09EE00E9447
:1048D000920880915B02816080935B0281C088EFC7
:1048E0009DE00E94920884CF88E89AE00E94920896
:1048F00085E59AE00E9492088DE29AE00E94920873
:1049000082EF99E00E94920887EC99E0EACF89EB68
:1049100099E00E9492080E94D20F1F928F938FE914
:1049200099E09F938F930E942B09809114011F920D
:104930008F9388E899E09F938F930E942B09809131
:1049400091021F928F9385E799E09F938F930E9426
:104950002B098091A70287FB882780F91F928F93EC
:104960008DE599E09F938F930E942B090E94911DE2
:104970009F938F937F936F9386E499E09F938F9398
:104980000E942B098DB79EB746960FB6F8949EBF2E
:104990000FBE8DBF2DCF0E94CD149091A70297FB23
:1049A000CC27C0F981E0C827892FC0FB87F9809305
:1049B000A702CC2329F08EEE9DE00E94920810C041
:1049C00083EE9DE08ECF895303C08D5101C080E0FE
:1049D0000E946D220DCF81EE9DE00E949208C0E002
:1049E0008C2FDF91CF91089580E008950C94F424EA
:1049F0008E518A3030F4E82FF0E0E858FE4F808185
:104A0000089580E00895CF93C82F80916C02813083
:104A100059F020F0823009F445C039C10E94991A3A
:104A2000823209F036C104C00E94991A823261F4C0
:104A30008C2F0E94F624811104C08C2F0E948D229D
:104A40002FC081E090E02CC08C2F0E94F4248111B3
:104A500026C0C431E1F070F4CB3081F0C031D1F424
:104A60000E94352189E399E00E94920882E08093B8
:104A70006C0215C0C93259F0C83361F487E99AE075
:104A80000E9492088DE399E00E94920808C010925B
:104A90006C0201C187E399E00E949208FCC081E0AA
:104AA0008170FBC0C43228F5CE3108F0C1C0CB30D4
:104AB000A1F1D0F4C73009F0D0C08EE18093090194
:104AC00082E3809308018AE08093070184E1809368
:104AD000060188E08093030188E2809302018DED56
:104AE00097E00E949208BCC0C33149F1C431C1F0C3
:104AF000B4C0CB3409F4A6C028F4C93289F0C83355
:104B000061F0ABC0C13509F49BC0C23509F496C051
:104B1000CE3409F0A2C06AE09BC00E943521A0C03B
:104B200080916B02882319F010926B0299C08AEE73
:104B300097E00E94920881E080936C02AEC084EC02
:104B400097E00E94920882EB97E00E949208809181
:104B500009011F928F938FEA97E09F938F930E9492
:104B60002B098DEA97E00E9492088BE997E00E945A
:104B70009208809108011F928F9388E997E09F9394
:104B80008F930E942B0986E997E00E94920887E89C
:104B900097E00E949208809107011F928F9384E80A
:104BA00097E09F938F930E942B0982E897E00E94E1
:104BB000920881E797E00E949208809106011F9277
:104BC0008F938EE697E09F938F930E942B098CE63C
:104BD00097E00E94920887E597E00E9492088091F2
:104BE00003011F928F9384E597E09F938F930E9418
:104BF0002B0982E597E00E9492088BE397E00E94E0
:104C00009208809102011F928F9388E397E09F930F
:104C10008F930E942B0986E397E00E9492088DB73C
:104C20009EB748960FB6F8949EBF0FBE8DBF18C0B2
:104C30008C2F0E94F82480936B0212C061E003C0A5
:104C400061E006C06AE080916B020E944C2108C0BE
:104C500080916B020E94EF2103C08BED97E013C09F
:104C600080916B02882369F01F928F9385ED97E006
:104C70009F938F930E942B090F900F900F900F908E
:104C800004C082ED97E00E94920881E006C0109275
:104C90006C0280E002C080E003CFCF910895809144
:104CA000900208959FB7F89410926F029FBF909161
:104CB000AD02943009F057C09091E9009F70309197
:104CC000EC00232F217030FD20E8922B23E020936D
:104CD000E9002091EB0020FF43C02091EE0027FF68
:104CE0003FC020916D02222321F02091E80025FF92
:104CF00037C010926D0226E03091E80035FD15C0F6
:104D00003091AD02343061F53091EB0035FD28C0B3
:104D1000215021F481E080936D0222C0EFE9FFE091
:104D20003197F1F700C00000E7CF8093F100809148
:104D3000E80085FD0AC08091E80080FFFCCF8091EB
:104D4000E8008E778093E80006C08FB7F89421E0E2
:104D500020936F028FBF9F709093E90080E00895C9
:104D60009F709093E9008FEF0895CF93DF9300D069
:104D70001F92CDB7DEB79091AD02943019F58983BB
:104D80007B836A8382E08093E9008FEF9091E80053
:104D9000815095FD06C095ED9A95F1F700008111BF
:104DA000F5CF8091E80085FF0DC040E050E063E062
:104DB00070E0CE0101960E9472298091E8008E7702
:104DC0008093E8000F900F900F90DF91CF9108959E
:104DD000CF93DF93EC010E945529823011F084308B
:104DE00031F4BE0184E0DF91CF910C94B526DF91C0
:104DF000CF910895BC0183E00C94B526CF93DF9347
:104E0000EC010E945529823011F08430F9F482E0DF
:104E10008093E9008FEF9091E800815095FD06C0E6
:104E200095ED9A95F1F700008111F5CF8091E8009A
:104E300085FF0CC040E050E066E070E0CE010E94CB
:104E400072298091E8008E778093E800DF91CF91FE
:104E50000895CF93DF93EC010E945529823011F021
:104E60008430D9F580911401882339F08091A7020C
:104E700087FF03C060E282E002C068E081E08093C7
:104E8000E9008FEF9091E800815095FD06C095ED07
:104E90009A95F1F700008111F5CF8091E80085FF28
:104EA0001CC080911401811105C040E050E068E011
:104EB00070E003C070E040E050E0CE010E94722933
:104EC0008091E8008E778093E80080E2FE01A0E701
:104ED000B2E001900D928A95E1F7DF91CF910895AC
:104EE00085EC9EE00E9492088091AC02811109C07D
:104EF0000E94032B0E94602B8091E20084608093CB
:104F0000E200089581EC9EE00E9492081092AC02AB
:104F100008958DEB9EE00C94920889EB9EE00C9432
:104F2000920885EB9EE00E9492080C944B1D209104
:104F30006E022F5F822F62E30E940F2E992319F0D9
:104F400020936E02089510926E0280916F02882362
:104F500071F18091AD02843041F58091E9008F704C
:104F60002091EC00922F917020FD90E8892B93E026
:104F70009093E9009091EB0090FF14C09091EE00A7
:104F800097FF10C09091E80095FF03C01092F100C8
:104F9000F9CF9091E80090FF05C09091E8009E77CE
:104FA0009093E8008F708093E90010926F0208954B
:104FB00042E061EC81E00E947C2A42E261EC82E006
:104FC0000E947C2A42E261EC83E00C947C2A80916E
:104FD000AF02833009F460C030F4813071F0823068
:104FE00009F499C008958A3009F485C08B3009F41A
:104FF0006BC0893009F0A7C020C08091AE02813A11
:1050000009F0A1C08091E800877F8093E80080913B
:10501000B2029091B302892B21F460E280E792E022
:1050200003C060E080E090E070E00E94BD298091C4
:10503000E8008B778093E80008958091AE0281327A
:1050400009F081C08091B2029091B302029708F0FA
:105050007AC08091E800877F8093E8008091E80023
:1050600082FD05C08091AD028111F8CF6CC0209106
:10507000F3008091F20090E0922B029729F4809146
:10508000F1008B7F813021F48091F10080939002B8
:105090008091E8008B7753C08091AE02813A09F08D
:1050A00052C08091B2029091B302892B09F04BC09B
:1050B0008091E800877F8093E8008091E80080FF7E
:1050C000FCCF8091140136C08091AE028132D9F5B7
:1050D0008091B2029091B302892BA9F58091E800EA
:1050E000877F8093E8000E94B12A8091B00280936C
:1050F00014010C94CD148091AE02813221F580917F
:10510000E800877F8093E8000E94B12A8091B10275
:105110008093910208958091AE02813AA1F480912A
:10512000E800877F8093E8008091E80080FFFCCF53
:10513000809191028093F1008091E8008E778093B6
:10514000E8000C94B12A089584B7877F84BF0FB616
:10515000F894A89580916000886180936000109217
:1051600060000FBE90E080E80FB6F8948093610075
:10517000909361000FBE0E947D100E94032B0E943D
:10518000602B8091E20084608093E20082E596E2E9
:105190000E944A1B78940E94F42D0E9487108AE096
:1051A00091E00E94CD0F84EA9EE00E9492088091D7
:1051B000AD02853089F480EA9EE00E9492080E9448
:1051C000191D8091AB02882391F30E94001D882352
:1051D00071F30E945C29EBCF0E94B710E8CF0C94CA
:1051E000F128292F332723303105C9F060F421300D
:1051F000310581F02230310509F047C08BE590E0A0
:105200002FEE3EE046C02132310511F12232310548
:1052100061F13BC082E190E02AE43FE03AC0992787
:105220008130910561F040F08230910559F003978B
:1052300061F5E9ECFEE008C0EBEEFEE005C0EFED45
:10524000FEE002C0EFECFEE0849190E09F0121C0FF
:1052500063307105D0F4660F771FFB01E557FE4FF1
:105260002081318189E090E014C06330710568F4D9
:10527000FB01EE0FFF1FEB57FE4F20813181FB0139
:10528000EE57FE4F808190E004C080E090E020E087
:1052900030E0FA013183208308958091AD0284309B
:1052A00011F081E0089582E00895809192028111C9
:1052B00002C00C944D29089580E189BD82E189BD29
:1052C00009B400FEFDCF8091D8008F7D8093D80077
:1052D0008091E00082608093E0008091E00081FD99
:1052E000FCCF0895CF92DF92EF92FF920F931F931E
:1052F000CF93DF93EC018B017A010E94D02A8111B8
:1053000033C0E114F10439F0F70180819181081B69
:10531000190BC80FD91FC12CD12C0115110519F17A
:105320008091E80085FD16C08091E8008E7780931B
:10533000E800E114F10449F0F70180819181C80E81
:10534000D91ED182C08285E00FC00E94D02A882356
:1053500021F30AC089918093F10001501109FFEFF8
:10536000CF1ADF0ADACF80E0DF91CF911F910F9142
:10537000FF90EF90DF90CF9008952091B40230918C
:10538000B5022617370748F06115710539F42091E9
:10539000E8002E772093E80001C0B901FC0120E06D
:1053A0006115710579F18091AD028823F1F18530A5
:1053B000F1F18091E80083FD3CC08091E80082FD1E
:1053C0002EC08091E80080FFEBCF2091F300809108
:1053D000F20090E0922B6115710551F08830910533
:1053E00038F421912093F100615071090196F3CFB7
:1053F00021E0089709F020E08091E8008E77809303
:10540000E800CECF2111CFCF0AC08091AD02882312
:1054100061F0853061F08091E80083FD0AC08091E1
:10542000E80082FFF2CF80E0089582E0089583E0F3
:10543000089581E008952091B4023091B5022617B5
:10544000370748F06115710539F42091E8002E778F
:105450002093E80001C0B901FC0120E0611571054D
:1054600091F18091AD02882309F440C0853009F4A0
:105470003FC08091E80083FD3DC08091E80082FD3F
:105480002FC08091E80080FFE9CF2091F300809148
:10549000F20090E0922B6115710559F0883091056A
:1054A00040F424912093F1003196615071090196E6
:1054B000F2CF21E0089709F020E08091E8008E7794
:1054C0008093E800CBCF2111CCCF0AC08091AD02F0
:1054D000882361F0853061F08091E80083FD0AC087
:1054E0008091E80082FFF2CF80E0089582E0089585
:1054F00083E0089581E00895982F973068F59093A0
:10550000E900981739F07091EC002091ED0050916E
:10551000F00003C0242F762F50E021FD02C09F5FD2
:10552000ECCF3091EB003E7F3093EB003091ED00FB
:105530003D7F3093ED003091EB0031603093EB0014
:105540007093EC002093ED005093F0002091EE005A
:1055500027FDE5CF80E008958F708093E90081E01A
:1055600008958091AE0287FF11C08091E80082FD0E
:1055700005C08091AD028111F8CF11C08091E80083
:105580008B770BC08091AD02882349F08091E800B1
:1055900080FFF8CF8091E8008E778093E80008952F
:1055A0002091E4003091E50095E64091EC00842FD5
:1055B000817040FF23C08091E80080FD1DC0809174
:1055C000AD02882399F0853099F08091EB0085FD3C
:1055D00011C04091E4005091E5002417350729F3EC
:1055E000915011F09A01E1CF84E0089582E008958E
:1055F00083E0089581E0089580E008954091E800F7
:1056000042FFDDCF08950E94712B0E94792BE0EEBE
:10561000F0E0808181608083E8EDF0E080818F7729
:10562000808319BCA7EDB0E08C918E7F8C93808134
:105630008F7E80831092AC0208950F931F93CF93B7
:10564000DF930E94712B0E94792BC8EDD0E08881F6
:105650008F77888388818068888388818F7D88831D
:1056600019BC1092AD021092A9021092AB021092D6
:10567000AA0200EE10E0F80180818B7F8083888190
:105680008160888342E060E080E00E947C2AE1EE55
:10569000F0E080818E7F8083E2EEF0E080818160A7
:1056A0008083808188608083F80180818E7F808301
:1056B000888180618883DF91CF911F910F91089538
:1056C000E8EDF0E080818F7E8083E7EDF0E080817F
:1056D0008160808384E082BF81E08093AC020C947F
:1056E0001D2BE8EDF0E080818E7F80831092E20038
:1056F00008951092DA001092E10008951F920F921F
:105700000FB60F9211242F933F934F935F936F9394
:105710007F938F939F93AF93BF93EF93FF9380916A
:10572000E10082FF0BC08091E20082FF07C0809100
:10573000E1008B7F8093E1000E9497278091DA003F
:1057400080FF1FC08091D80080FF1BC08091DA00CD
:105750008E7F8093DA008091D90080FF0DC080E1B8
:1057600089BD82E189BD09B400FEFDCF81E080934F
:10577000AD020E94702705C019BC1092AD020E94B4
:1057800082278091E10080FF19C08091E20080FFB4
:1057900015C08091E2008E7F8093E2008091E2004C
:1057A00080618093E2008091D80080628093D8006D
:1057B00019BC85E08093AD020E948D278091E100A5
:1057C00084FF30C08091E20084FF2CC080E189BD5D
:1057D00082E189BD09B400FEFDCF8091D8008F7DA4
:1057E0008093D8008091E1008F7E8093E1008091CA
:1057F000E2008F7E8093E2008091E20081608093DE
:10580000E2008091A902882311F084E007C0809112
:10581000E30087FD02C081E001C083E08093AD0218
:105820000E9491278091E10083FF29C08091E200CE
:1058300083FF25C08091E100877F8093E10082E0B3
:105840008093AD021092A9028091E1008E7F809337
:10585000E1008091E2008E7F8093E2008091E2007F
:1058600080618093E20042E060E080E00E947C2A58
:105870008091F00088608093F0000E948927FF915A
:10588000EF91BF91AF919F918F917F916F915F91B8
:105890004F913F912F910F900FBE0F901F90189531
:1058A0001F920F920FB60F9211242F933F934F9395
:1058B0005F936F937F938F939F93AF93BF93CF9398
:1058C000DF93EF93FF93C091E900CF708091EC00DC
:1058D000D82FD17080FDD0E81092E9008091F000BF
:1058E000877F8093F00078940E94942C1092E900B6
:1058F0008091F00088608093F000CD2BCF70C09332
:10590000E900FF91EF91DF91CF91BF91AF919F910E
:105910008F917F916F915F914F913F912F910F9058
:105920000FBE0F901F9018951F93CF93DF93CDB7A5
:10593000DEB7AA970FB6F894DEBF0FBECDBFEEEA72
:10594000F2E08091F100819322E0E63BF207C9F793
:105950000E94E7278091E80083FF2EC18091AE026C
:105960009091AF02492F50E04A30510508F024C110
:10597000FA01ED54FF4F0C942F2E803821F082381D
:1059800009F01AC108C08091AA029091AB02992334
:1059900089F082600FC08091B2028F70873008F06A
:1059A0000BC18093E9008091EB0085FB882780F98B
:1059B0001092E9009091E800977F9093E80080931F
:1059C000F1001092F100D1C0282F2D7F09F0F4C012
:1059D000882319F0823061F0EFC08091B0028130ED
:1059E00009F0EAC0933009F080E08093AB022EC04A
:1059F0008091B00281112AC08091B2028F702FEF86
:105A0000280F263008F0D8C08093E9002091EB00E1
:105A100020FF1CC0933021F48091EB00806214C001
:105A20009091EB0090619093EB0021E030E0A901B0
:105A300002C0440F551F8A95E2F74093EA00109286
:105A4000EA008091EB0088608093EB001092E900FF
:105A50008091E800877F8093E8000E94B12AACC063
:105A60008111AAC01091B0021F778091E300807865
:105A7000812B8093E3008091E800877F8093E8008A
:105A80000E94B12A8091E80080FFFCCF8091E30062
:105A900080688093E300111102C082E001C083E0BE
:105AA0008093AD0289C08058823008F085C0809113
:105AB000B0029091B1028C3D53E0950779F583E0F7
:105AC0008A838AE289834FB7F894DE01139620E037
:105AD0003EE051E2E32FF0E050935700E49120FFC5
